:020000040000FA
:0600000082EF25F0120062
:020006001200E6
:08000800F2A402D0E8EF1AF0A7
:100010009EA002D063EF1BF09EA202D0C0EF1BF0A7
:080020001200D08EF28E1200D6
:080028000E00E94D0000F60D89
:1000300000000A000000CF4D0000400E00001A0032
:100040000000CD4D00005F0E000002000000CB4D0F
:1000500000005D0E000002000000CA4D0000640EAA
:10006000000001000000A24D0000000F0000280069
:100070000000844D0000220E00001E0000001C4DF8
:1000800000000001000068000000904C0000600DBE
:1000900000008C000000474C0000170D00004900D4
:1000A0000000254C0000000E000022000000224C41
:1000B00000005A0E000003000000A44B0000000BDB
:1000C00000007E0000008D4B0000000D00001700B6
:0200D00000002E
:0E00D200D9CFE6FFE1CFD9FFE652FD0EDBCF1E
:1000E00016F0FE0EDBCF17F017C016F0176A640E7D
:1000F0001702F3CF17F01602F3CF16F0F4501726BD
:10010000FD0EDBCF18F0FE0EDBCF19F0040ED890F9
:1001100019321832E804FBE10A0E1902F3CF19F084
:100120001802F3CF18F0F450192616501810146E58
:1001300017501910156E0F0EE76EFD0EDBCF1AF07B
:10014000FE0EDBCF1BF0E7501A161B6A14501A1074
:10015000DF6EDF5000D0E552E552E7CFD9FF120045
:10016000D9CFE6FFE1CFD9FFFE0EDB50F00BE83A26
:10017000060DFE0EDBCFE7FFF350E75EFE0EE7CF86
:10018000DBFFDB50146E156A14C0F3FF15C0F4FFDB
:1001900000D0E552E7CFD9FF1200D9CFE6FFE1CF7B
:1001A000D9FF020EE1260A0E146E14C00EF0FE0EE8
:1001B000DBCF09F090EC25F00950DF6E0A0E146ECB
:1001C00014C00EF0FE0EDBCF09F090EC25F0010E0E
:1001D00005C0DBFFDB500F0B146E0F0EDF14100D8C
:1001E000F3501410146E020EE15C03E200D0E16AD9
:1001F000E552E16E1450E552E7CFD9FF1200D9CF96
:10020000E6FFE1CFD9FF0E0EE126FD0EDBCF14F0A5
:10021000FE0EDBCF15F00A0E0D6E0E6A14C008F04C
:1002200015C009F04CEC25F004C014F005C015F021
:100230000A0E14C0DBFF0B0E15C0DBFF0C0EDB6AD1
:100240000D0EDB6A0A0EDB50E76E040EE7CFDBFF14
:10025000FD0EDBCF14F0FE0EDBCF15F00A0E0D6E97
:100260000E6A14C008F015C009F04CEC25F008C067
:1002700014F009C015F0060E14C0DBFF070E15C000
:10028000DBFF080EDB6A090EDB6A060EDBCF06F029
:10029000070EDBCF07F0080EDBCF08F0090EDBCF2F
:1002A00009F00A0E0B6E0C6A0D6A0E6A96EC24F0C9
:1002B0000A0E02C0DBFF0B0E03C0DBFF0C0E04C0F6
:1002C000DBFF0D0E05C0DBFF0A0EDB50E76E030EF1
:1002D000E7CFDBFF060EDBCF06F0070EDBCF07F024
:1002E000080EDBCF08F0090EDBCF09F00A0E0B6E0B
:1002F0000C6A0D6A0E6A96EC24F0060E06C0DBFF4F
:10030000070E07C0DBFF080E08C0DBFF090E09C09F
:10031000DBFF060EDBCF06F0070EDBCF07F0080E83
:10032000DBCF08F0090EDBCF09F00A0E0B6E0C6A6A
:100330000D6A0E6A96EC24F00A0E02C0DBFF0B0E6B
:1003400003C0DBFF0C0E04C0DBFF0D0E05C0DBFF9E
:100350000A0EDB50E76E020EE7CFDBFF060EDBCFA7
:1003600006F0070EDBCF07F0080EDBCF08F0090E12
:10037000DBCF09F00A0E0B6E0C6A0D6A0E6A96EC62
:1003800024F0060E06C0DBFF070E07C0DBFF080ED9
:1003900008C0DBFF090E09C0DBFF060EDBCF06F04D
:1003A000070EDBCF07F0080EDBCF08F0090EDBCF1E
:1003B00009F00A0E0B6E0C6A0D6A0E6A96EC24F0B8
:1003C0000A0E02C0DBFF0B0E03C0DBFF0C0E04C0E5
:1003D000DBFF0D0E05C0DBFF0A0EDB50E76E010EE2
:1003E000E7CFDBFF060EDBCF06F0070EDBCF07F013
:1003F000080EDBCF08F0090EDBCF09F00A0E0B6EFA
:100400000C6A0D6A0E6A96EC24F0060E06C0DBFF3D
:10041000070E07C0DBFF080E08C0DBFF090E09C08E
:10042000DBFF060EDB50DF6E050EDB6AF36EDBCF03
:10043000F4FFF350F45C21E2D9CF14F0DACF15F0D9
:10044000050EDB500F011424E96E000E1520EA6E34
:10045000EF50E66E050EDB50E76EFB0EDBCFE9FFDB
:10046000FC0EDBCFEAFFE750E926000EEA22E55258
:10047000E750EF6E050EDB2AD9D70E0EE15C02E2E3
:10048000E16AE552E16EE552E7CFD9FF1200D9CF1C
:10049000E6FFE1CFD9FF080EE1260A0E146E14C064
:1004A0000EF0FE0EDBCF09F090EC25F00550E66E65
:1004B000D950060FE96EDACFEAFFE552E750EE6E4B
:1004C000ED6A060EDB50E76E020EE7CFDBFF0A0E89
:1004D000146E14C00EF0FE0EDBCF09F090EC25F088
:1004E0000950E66ED950040FE96EDACFEAFFE55203
:1004F000E750EE6EED6A040EDBCF14F0050EDBCF95
:1005000015F00A0E0D6E0E6A14C008F015C009F041
:100510004CEC25F004C014F005C015F0060E14C014
:10052000DBFF070E15C0DBFF060EDB50E76E010E8A
:10053000E7CFDBFF0A0E146E156A040EDBCF08F05E
:10054000050EDBCF09F014C00DF015C00EF04CEC19
:1005500025F0040E08C0DBFF050E09C0DBFF040E0A
:10056000DB50DF6E030EDB6AF36EDBCFF4FFF3507C
:10057000F45C21E2D9CF14F0DACF15F0030EDB5092
:100580000F011424E96E000E1520EA6EEF50E66E9E
:10059000030EDB50E76EFC0EDBCFE9FFFD0EDBCF79
:1005A000EAFFE750E926000EEA22E552E750EF6E37
:1005B000030EDB2AD9D7080EE15C02E2E16AE552BC
:1005C000E16EE552E7CFD9FF1200D9CFE6FFE1CFC8
:1005D000D9FF130EE126FB0EDBCF06F0FC0EDBCFBE
:1005E00007F0FD0EDBCF08F0FE0EDBCF09F00A0EA0
:1005F0000B6E0C6A0D6A0E6A96EC24F00F0E02C0A8
:10060000DBFF100E03C0DBFF110E04C0DBFF120E78
:1006100005C0DBFF0F0EDB50E76E090EE7CFDBFFF7
:10062000FB0EDBCF06F0FC0EDBCF07F0FD0EDBCFC1
:1006300008F0FE0EDBCF09F00A0E0B6E0C6A0D6A95
:100640000E6A96EC24F00B0E06C0DBFF0C0E07C002
:10065000DBFF0D0E08C0DBFF0E0E09C0DBFF0B0E2B
:10066000DBCF06F00C0EDBCF07F00D0EDBCF08F072
:100670000E0EDBCF09F00A0E0B6E0C6A0D6A0E6AC5
:1006800096EC24F00F0E02C0DBFF100E03C0DBFF60
:10069000110E04C0DBFF120E05C0DBFF0F0EDB5096
:1006A000E76E080EE7CFDBFF0B0EDBCF06F00C0E7C
:1006B000DBCF07F00D0EDBCF08F00E0EDBCF09F01D
:1006C0000A0E0B6E0C6A0D6A0E6A96EC24F00B0E85
:1006D00006C0DBFF0C0E07C0DBFF0D0E08C0DBFF02
:1006E0000E0E09C0DBFF0B0EDBCF06F00C0EDBCFCE
:1006F00007F00D0EDBCF08F00E0EDBCF09F00A0E6F
:100700000B6E0C6A0D6A0E6A96EC24F00F0E02C096
:10071000DBFF100E03C0DBFF110E04C0DBFF120E67
:1007200005C0DBFF0F0EDB50E76E070EE7CFDBFFE8
:100730000B0EDBCF06F00C0EDBCF07F00D0EDBCF80
:1007400008F00E0EDBCF09F00A0E0B6E0C6A0D6A74
:100750000E6A96EC24F00B0E06C0DBFF0C0E07C0F1
:10076000DBFF0D0E08C0DBFF0E0E09C0DBFF0B0E1A
:10077000DBCF06F00C0EDBCF07F00D0EDBCF08F061
:100780000E0EDBCF09F00A0E0B6E0C6A0D6A0E6AB4
:1007900096EC24F00F0E02C0DBFF100E03C0DBFF4F
:1007A000110E04C0DBFF120E05C0DBFF0F0EDB5085
:1007B000E76E060EE7CFDBFF0B0EDBCF06F00C0E6D
:1007C000DBCF07F00D0EDBCF08F00E0EDBCF09F00C
:1007D0000A0E0B6E0C6A0D6A0E6A96EC24F00B0E74
:1007E00006C0DBFF0C0E07C0DBFF0D0E08C0DBFFF1
:1007F0000E0E09C0DBFF0B0EDBCF06F00C0EDBCFBD
:1008000007F00D0EDBCF08F00E0EDBCF09F00A0E5D
:100810000B6E0C6A0D6A0E6A96EC24F00F0E02C085
:10082000DBFF100E03C0DBFF110E04C0DBFF120E56
:1008300005C0DBFF0F0EDB50E76E050EE7CFDBFFD9
:100840000B0EDBCF06F00C0EDBCF07F00D0EDBCF6F
:1008500008F00E0EDBCF09F00A0E0B6E0C6A0D6A63
:100860000E6A96EC24F00B0E06C0DBFF0C0E07C0E0
:10087000DBFF0D0E08C0DBFF0E0E09C0DBFF0B0E09
:10088000DBCF06F00C0EDBCF07F00D0EDBCF08F050
:100890000E0EDBCF09F00A0E0B6E0C6A0D6A0E6AA3
:1008A00096EC24F00F0E02C0DBFF100E03C0DBFF3E
:1008B000110E04C0DBFF120E05C0DBFF0F0EDB5074
:1008C000E76E040EE7CFDBFF0B0EDBCF06F00C0E5E
:1008D000DBCF07F00D0EDBCF08F00E0EDBCF09F0FB
:1008E0000A0E0B6E0C6A0D6A0E6A96EC24F00B0E63
:1008F00006C0DBFF0C0E07C0DBFF0D0E08C0DBFFE0
:100900000E0E09C0DBFF0B0EDBCF06F00C0EDBCFAB
:1009100007F00D0EDBCF08F00E0EDBCF09F00A0E4C
:100920000B6E0C6A0D6A0E6A96EC24F00F0E02C074
:10093000DBFF100E03C0DBFF110E04C0DBFF120E45
:1009400005C0DBFF0F0EDB50E76E030EE7CFDBFFCA
:100950000B0EDBCF06F00C0EDBCF07F00D0EDBCF5E
:1009600008F00E0EDBCF09F00A0E0B6E0C6A0D6A52
:100970000E6A96EC24F00B0E06C0DBFF0C0E07C0CF
:10098000DBFF0D0E08C0DBFF0E0E09C0DBFF0B0EF8
:10099000DBCF06F00C0EDBCF07F00D0EDBCF08F03F
:1009A0000E0EDBCF09F00A0E0B6E0C6A0D6A0E6A92
:1009B00096EC24F00F0E02C0DBFF100E03C0DBFF2D
:1009C000110E04C0DBFF120E05C0DBFF0F0EDB5063
:1009D000E76E020EE7CFDBFF0B0EDBCF06F00C0E4F
:1009E000DBCF07F00D0EDBCF08F00E0EDBCF09F0EA
:1009F0000A0E0B6E0C6A0D6A0E6A96EC24F00B0E52
:100A000006C0DBFF0C0E07C0DBFF0D0E08C0DBFFCE
:100A10000E0E09C0DBFF0B0EDBCF06F00C0EDBCF9A
:100A200007F00D0EDBCF08F00E0EDBCF09F00A0E3B
:100A30000B6E0C6A0D6A0E6A96EC24F00F0E02C063
:100A4000DBFF100E03C0DBFF110E04C0DBFF120E34
:100A500005C0DBFF0F0EDB50E76E010EE7CFDBFFBB
:100A60000B0EDBCF06F00C0EDBCF07F00D0EDBCF4D
:100A700008F00E0EDBCF09F00A0E0B6E0C6A0D6A41
:100A80000E6A96EC24F00B0E06C0DBFF0C0E07C0BE
:100A9000DBFF0D0E08C0DBFF0E0E09C0DBFF0B0EE7
:100AA000DB50DF6E0A0EDB6AF36EDBCFF4FFF35030
:100AB000F45C22E2D9CF14F0DACF15F00A0EDB5045
:100AC0000F011424E96E000E1520EA6EEF50300974
:100AD000E66E0A0EDB50E76EF90EDBCFE9FFFA0E89
:100AE000DBCFEAFFE750E926000EEA22E552E750A5
:100AF000EF6E0A0EDB2AD8D7130EE15C02E2E16A40
:100B0000E552E16EE552E7CFD9FF1200D9CFE6FFFB
:100B1000E1CFD9FFFE0EDB50F00BE83A060DFE0EDA
:100B2000DBCFE7FFF350E75EFE0EE7CFDBFFDB50E6
:100B300000D0E552E7CFD9FF1200D9CFE6FFE1CFD1
:100B4000D9FF0A0E146E14C00EF0FE0EDBCF09F0B2
:100B500090EC25F00950060DFE0EDBCFE7FFF350B9
:100B6000E726FE0EE7CFDBFFDB50146E156A14C0DC
:100B7000F3FF15C0F4FF00D0E552E7CFD9FF120014
:100B8000D9CFE6FFE1CFD9FF060EE126F36EFC0ECA
:100B9000DBCFF4FFF350F45C71E2020EDB6A030E6C
:100BA000DB6A040EDB6A050EDB6ADF6AFC0EDB50D3
:100BB000DF5C58E2FC0EDBCFE6FFDF28E552E75CA6
:100BC000E76E010EE7CFDBFFF36E040EF3CFDBFF22
:100BD000050EDB6A010EDB50000814E20A0E086EF7
:100BE000096A040EDBCF0DF0050EDBCF0EF0A4EC8E
:100BF00021F0040E06C0DBFF050E07C0DBFF010E6F
:100C0000DB06E8D7020EDBCF16F0030EDBCF17F0C2
:100C1000DF50E76EFD0EDBCFE9FFFE0EDBCFEAFF14
:100C2000E750E926000EEA22EF500F0B186E196A02
:100C3000040EDBCF08F0050EDBCF09F018C00DF075
:100C400019C00EF0A4EC21F016500624146E1750B3
:100C50000720156E020E14C0DBFF030E15C0DBFF6C
:100C6000DF2AA4D7020EDBCF14F0030EDBCF15F082
:100C700014C0F3FF15C0F4FF04D003D0F36AF46A84
:100C800000D0060EE15C02E2E16AE552E16EE55257
:060C9000E7CFD9FF1200BE
:0A0C9600D9CFE6FFE1CFD9FFE65207
:100CA0000101310E206F300E216F226F330E236F42
:100CB000246B80908092809480965B6B400EE66EF1
:100CC0000E0EE66EB2EC0BF0E552E5528AEC0AF03D
:100CD000300E0101295D196E300E2A5D0A0DF350A8
:100CE0001924156E166A176A186A300E2B5D146E79
:100CF000300E2C5D0A0DF3501424066E076A086A44
:100D0000096A3C0E0B6E0C6A0D6A0E6A34EC24F014
:100D10000250000115240101256F03500001162027
:100D20000101266F0450000117200101276F0550B3
:100D3000000118200101286F300E2D5D146E300E59
:100D40002E5D0A0DF3501424066E076A086A096ABC
:100D5000100E0B6E0E0E0C6E0D6A0E6A34EC24F043
:100D60000250010125270350262304502723055054
:100D70002823DF6A100EDF5C2DE2DF50040DF3CF75
:100D8000F6FFF4CFF7FF960EF626450EF722090080
:100D9000580EF524146E0900020EF520156E090098
:100DA000000EF520166E0800000EF520176E145088
:100DB000255D15502659165027591750285908E314
:100DC000DF50EA6A2F0FE96E010EEA22010EEF6E84
:100DD000DF2AD0D7DF6A060EDF5C2DE2DF50040D7C
:100DE000F3CFF6FFF4CFF7FFEE0EF626450EF7220F
:100DF0000900580EF524146E0900020EF520156E38
:100E00000900000EF520166E0800000EF520176E82
:100E10001450255D1550265916502759175028593A
:100E200008E3DF50EA6A450FE96E010EEA22010E7F
:100E3000EF6EDF2AD0D7E552E552E7CFD9FF120097
:100E4000D9CFE6FFE1CFD9FFE652400EE66E0E0E97
:100E5000E66EB2EC0BF0E552E5525CDBA5EC13F06C
:100E6000000901E1A0DB300E0101295D196E300E91
:100E70002A5D0A0DF3501924156E166A176A186A4E
:100E8000300E2B5D146E300E2C5D0A0DF3501424C1
:100E9000066E076A086A096A3C0E0B6E0C6A0D6AD8
:100EA0000E6A34EC24F00250000115240101256F74
:100EB0000350000116200101266F04500001172085
:100EC0000101276F0550000118200101286F300E25
:100ED0002D5D146E300E2E5D0A0DF3501424066E37
:100EE000076A086A096A100E0B6E0E0E0C6E0D6A08
:100EF0000E6A34EC24F0025001012527035026230A
:100F000004502723055028235B51030A01E17FD1B8
:100F1000010A01E128D1030A01E1B2D0010A01E08E
:100F200098D1DF6A100EDF5C53E2DF50EA6A2F0FC0
:100F3000E96E010EEA22EF5048E1DF50040DF3CFD5
:100F4000F6FFF4CFF7FF960EF626450EF7220900BE
:100F5000F5CF14F00900F5CF15F00900F5CF16F024
:100F60000800F5CF17F0B40E145E000E155A165A8D
:100F7000175A14500101255D15502659165027594E
:100F80001750285921E3DF50040DF3CFF6FFF4CFBB
:100F9000F7FF960EF626450EF7220900F550255D5F
:100FA0000900F55026590900F55027590900F55058
:100FB00028590AE28080809280948096006BDFCF6F
:100FC00001F1010E5B6F04D001D000D0DF2AAAD757
:100FD000DF6A060EDF5C53E2DF50EA6A450FE96E16
:100FE000010EEA22EF5048E1DF50040DF3CFF6FF87
:100FF000F4CFF7FFEE0EF626450EF7220900F5CFE7
:1010000014F00900F5CF15F00900F5CF16F008002F
:10101000F5CF17F0B40E145E000E155A165A175A73
:1010200014500101255D15502659165027591750A7
:10103000285921E3DF50040DF3CFF6FFF4CFF7FF7B
:10104000EE0EF626450EF7220900F550255D090043
:10105000F55026590900F55027590900F55028592F
:101060000AE28080809280948096010E006FDFCF2C
:1010700001F15B6F04D001D000D0DF2AAAD7E9D0FC
:10108000E66A3BEC1DF0E55201081BE1809080927E
:101090008094809601010051160DF3CF14F0F4CF27
:1010A00015F02F0E1426010E152201510F011424E4
:1010B000E96E000E1520EA6E010EEF6E01015B6B0A
:1010C000C8D001010051580DF3CF14F0F4CF15F042
:1010D000960E1426450E15220151040D1450F324CA
:1010E000F66E1550F420F76E0900F550255D0900E5
:1010F000F55026590900F55027590900F55028598F
:1011000031E30051580DF3CF1AF0F4CF1BF0960ED7
:101110001A26450E1B220151040D1A50F324F66EB7
:101120001B50F420F76E0900B40EF524166E09006A
:10113000000EF520176E0900000EF520186E08004D
:10114000000EF520196E1650255D175026591850BF
:1011500027591950285906E2809080828094809601
:10116000020E5B6F76D0E66A3BEC1DF0E55201089B
:101170001BE1809080928094809601010051160DB1
:10118000F3CF14F0F4CF15F02F0E1426010E152214
:1011900001510F011424E96E000E1520EA6E010EB4
:1011A000EF6E01015B6B55D001010051580DF3CF7B
:1011B00018F0F4CF19F0960E1826450E1922015199
:1011C000040D1850F324F66E1950F420F76E090040
:1011D000B40EF524146E0900000EF520156E0900FA
:1011E000000EF520166E0800000EF520176E145044
:1011F000255D15502659165027591750285906E3D2
:101200008090809280848086030E5B6F22D0E66A95
:101210003BEC1DF0E55201081BE180908092809428
:10122000809601010051160DF3CF14F0F4CF15F0A4
:101230002F0E1426010E152201510F011424E96E00
:10124000000E1520EA6E010EEF6E01015B6B01D0FE
:1012500000D0E552E552E7CFD9FF1200D9CFE6FF23
:10126000E1CFD9FFFD0EDBCFE6FFFE0EDBCFE6FFC1
:10127000200EE66E010EE66E8AEC22F0E552E55293
:10128000E552E552000902E0000E02D0010E00D046
:10129000E552E7CFD9FF1200D9CFE6FFE1CFD9FF62
:1012A000070EE126010EE76EFD0EDBCFE9FFFE0E15
:1012B000DBCFEAFFE750E926000EEA22EF50D00F1D
:1012C000E76E050EE7CFDBFF030EE76EFD0EDBCF0B
:1012D000E9FFFE0EDBCFEAFFE750E926000EEA2227
:1012E000EF50D00F146E020EE76EFD0EDBCFE9FF5C
:1012F000FE0EDBCFEAFFE750E926000EEA22EF50B0
:10130000D00F0A0DF3501424E76E060EE7CFDBFF73
:10131000050EE76EFD0EDBCFE9FFFE0EDBCFEAFF29
:10132000E750E926000EEA22EF50D00F176E040EA8
:10133000E76EFD0EDBCFE9FFFE0EDBCFEAFFE750E5
:10134000E926000EEA22EF50D00F0A0DF3501724C1
:10135000146E156A166A100E0C6E0E0E0D6E0E6A65
:1013600014C007F015C008F016C009F0C2EC21F057
:1013700004C014F005C015F006C016F014C0DFFF5D
:10138000010E15C0DBFF020E16C0DBFF070EE76E75
:10139000FD0EDBCFE9FFFE0EDBCFEAFFE750E926CB
:1013A000000EEA22EF50D00F146E060EE76EFD0E0F
:1013B000DBCFE9FFFE0EDBCFEAFFE750E926000EA8
:1013C000EA22EF50D00F0A0DF35014243C0D030E07
:1013D000F3CFDBFF040EF4CFDBFF030EDBCF17F000
:1013E000040EDBCF18F0196AD9CFE9FFDACFEAFF94
:1013F000EE501724146EEE501820156EEE50192082
:10140000166E14C0DFFF010E15C0DBFF020E16C002
:10141000DBFFDFCF16F0010EDBCF17F0020EDBCFC4
:1014200018F0196A050EDB04580DF3CF14F0F4CF51
:1014300015F0960E1426450E1522060EDB04040D3B
:101440001450F324F66E1550F420F76E16C0F5FF15
:101450000D0017C0F5FF0D0018C0F5FF0D0019C0F5
:10146000F5FF0D00070EE15C02E2E16AE552E16E74
:10147000E552E7CFD9FF1200D9CFE6FFE1CFD9FF80
:101480000E01466B030EE76EFD0EDBCFE9FFFE0E8D
:10149000DBCFEAFFE750E926000EEA22EF50D00F3B
:1014A000146E020EE76EFD0EDBCFE9FFFE0EDBCF02
:1014B000EAFFE750E926000EEA22EF50D00F100DA8
:1014C000F3501410476F010EE76EFD0EDBCFE9FFFE
:1014D000FE0EDBCFEAFFE750E926000EEA22EF50CE
:1014E000D00F146EFD0EDBCFE9FFFE0EDBCFEAFF5F
:1014F000EF50D00F100DF3501410486F460EE66EEB
:101500000E0EE66E5AEC0CF0E552E552E552E7CFCE
:10151000D9FF12000F0E0E014015300F0101296F87
:10152000F00E0E014015E8380F0B300F01012A6F45
:101530000F0E0E014115300F01012B6FF00E0E0141
:101540004115E8380F0B300F01012C6F0F0E0E0103
:101550004215300F01012D6F300E0E014215E83893
:101560000F0B300F01012E6F1200D9CFE6FFE1CF34
:10157000D9FFE552E7CFD9FF1200D9CFE6FFE1CF7F
:10158000D9FF020EE126010EDB6ADB50146E020E5B
:10159000E15C03E200D0E16AE552E16E1450E552ED
:1015A000E7CFD9FF1200D9CFE6FFE1CFD9FF0C0E6C
:1015B000E126D950010FE96EDACFEAFF200EEE6E78
:1015C000EE6E440EEE6E450EEE6E4E0EEE6E530E49
:1015D000EE6E4F0EEE6E200EEE6E3A0EEE6E200E9A
:1015E000EE6EEE6ADF6A040EDF5C15E2050ED8804F
:1015F000DF54EA6A290FE96E010EEA22EF50E66E27
:10160000DF50EA6A5C0FE96E010EEA22E552E7500C
:10161000EF6EDF2AE8D7DF50EA6A5C0FE96E010E51
:10162000EA22EF6A620EE66E010EE66E5C0EE66E70
:10163000010EE66E8AEC22F0E552E552E552E552E3
:10164000000947E02EEC1AF0DF6AD950010F146E42
:10165000DACF15F0DF500F011424E96E000E1520CB
:10166000EA6EEF5012E0D950010F146EDACF15F088
:10167000DF501424E96E000E1520EA6EEF50E66E7E
:1016800035EC1AF0E552DF2AE0D7DF6ADF50EA6A6C
:101690005C0FE96E010EEA22EF500DE0DF50EA6ABE
:1016A0005C0FE96E010EEA22EF50E66E35EC1AF09F
:1016B000E552DF2AEBD75C0EE66E010EE66E620E97
:1016C000E66E010EE66EAAEC22F0E552E552E55216
:1016D000E5520C0EE15C02E2E16AE552E16EE55290
:0616E000E7CFD9FF120064
:0A16E600D9CFE6FFE1CFD9FFFE0ED9
:1016F000DB04E96EEA6AD890E936EA36010EE9269B
:101700000F0EEA22EECF14F0EFCF15F014C0F3FF66
:1017100015C0F4FF00D0E552E7CFD9FF1200D9CFB2
:10172000E6FFE1CFD9FFFE0EDBCFE6FFE66A69EC0C
:1017300000F0E552E552FF0FE96EEA6AD890E9360B
:10174000EA360F0EE9260F0EEA22EECF14F0EFCFA5
:1017500015F014C0F3FF15C0F4FF00D0E552E7CF39
:10176000D9FF1200D9CFE6FFE1CFD9FF46EC1FF039
:10177000D00EE66E8AEC1FF0E552E66A8AEC1FF0A6
:10178000E55246EC1FF0D10EE66E8AEC1FF0E552F2
:10179000010EE66ED1EC1FF0E552E66EFD0EDBCFDA
:1017A000E9FFFE0EDBCFEAFFE552E750EF6E010ED8
:1017B000E66ED1EC1FF0E552E66E010EE76EFD0E0F
:1017C000DBCFE9FFFE0EDBCFEAFFE750E926000E94
:1017D000EA22E552E750EF6E010EE66ED1EC1FF003
:1017E000E552E66E020EE76EFD0EDBCFE9FFFE0E60
:1017F000DBCFEAFFE750E926000EEA22E552E75088
:10180000EF6E010EE66ED1EC1FF0E552E66E030EB0
:10181000E76EFD0EDBCFE9FFFE0EDBCFEAFFE75000
:10182000E926000EEA22E552E750EF6E010EE66E61
:10183000D1EC1FF0E552E66E040EE76EFD0EDBCF35
:10184000E9FFFE0EDBCFEAFFE750E926000EEA22B1
:10185000E552E750EF6E010EE66ED1EC1FF0E55257
:10186000E66E050EE76EFD0EDBCFE9FFFE0EDBCF69
:10187000EAFFE750E926000EEA22E552E750EF6E54
:10188000E66AD1EC1FF0E552E66E060EE76EFD0E3D
:10189000DBCFE9FFFE0EDBCFEAFFE750E926000EC3
:1018A000EA22E552E750EF6E5CEC1FF0E552E7CF1D
:1018B000D9FF1200D9CFE6FFE1CFD9FF46EC1FF0E8
:1018C000D00EE66E8AEC1FF0E552E66A8AEC1FF055
:1018D000E552FD0EDBCFE9FFFE0EDBCFEAFFEF5056
:1018E000E66E8AEC1FF0E552010EE76EFD0EDBCFCF
:1018F000E9FFFE0EDBCFEAFFE750E926000EEA2201
:10190000EF50E66E8AEC1FF0E552020EE76EFD0E18
:10191000DBCFE9FFFE0EDBCFEAFFE750E926000E42
:10192000EA22EF50E66E8AEC1FF0E552030EE76EF6
:10193000FD0EDBCFE9FFFE0EDBCFEAFFE750E92625
:10194000000EEA22EF50E66E8AEC1FF0E552040E1C
:10195000E76EFD0EDBCFE9FFFE0EDBCFEAFFE750BF
:10196000E926000EEA22EF50E66E8AEC1FF0E552FF
:10197000050EE76EFD0EDBCFE9FFFE0EDBCFEAFFC3
:10198000E750E926000EEA22EF50E66E8AEC1FF0DF
:10199000E552060EE76EFD0EDBCFE9FFFE0EDBCF54
:1019A000EAFFE750E926000EEA22EF50E66E8AECE5
:1019B0001FF0E5525CEC1FF0E552E7CFD9FF1200B3
:1019C000D9CFE6FFE1CFD9FFFD0EDB041DE1FE0E0E
:1019D000DB504009E76EFE0EE7CFDBFFFC0EDB04B9
:1019E00008E1FE0EDB502009E76EFE0EE7CFDBFFBD
:1019F0000AD0FC0EDB5007E1FE0EDB50DF0BE76E7A
:101A0000FE0EE7CFDBFF0AD0FD0EDB5007E1FE0E36
:101A1000DB50BF0BE76EFE0EE7CFDBFFFE0EDB50A9
:101A200000D0E552E7CFD9FF1200D9CFE6FFE1CFD2
:101A3000D9FFFD0EDBCFE9FFFE0EDBCFEAFFEE5252
:101A4000EF50E66EFB0EDBCFE9FFFC0EDBCFEAFFCB
:101A5000EE52E552E750EF6EFD0EDBCFE9FFFE0ED2
:101A6000DBCFEAFFEF50E66EFB0EDBCFE9FFFC0EAB
:101A7000DBCFEAFFE552E750EF6EFD0EDBCFE9FF6B
:101A8000FE0EDBCFEAFF020EE926000EEA22EFCFC0
:101A900014F00C0E145C42E3FD0EDBCFE9FFFE0EEA
:101AA000DBCFEAFF020EE926000EEA22EF50F40F28
:101AB000E66EFB0EDBCFE9FFFC0EDBCFEAFF020E8A
:101AC000E926000EEA22E552E750EF6EFB0EDBCF6F
:101AD000E9FFFC0EDBCFEAFF070EE926000EEA2243
:101AE000010EEF6E0C0E146EFD0EDBCFE9FFFE0E45
:101AF000DBCFEAFF020EE926000EEA22EF50145C6B
:101B00000CE1FB0EDBCFE9FFFC0EDBCFEAFF020EA0
:101B1000E926000EEA220C0EEF6E4BD0FD0EDBCF55
:101B2000E9FFFE0EDBCFEAFF020EE926000EEA22F5
:101B3000EFCF14F00C0E145C3CE2FD0EDBCFE9FF9E
:101B4000FE0EDBCFEAFF020EE926000EEA22EF507E
:101B5000E66EFB0EDBCFE9FFFC0EDBCFEAFF020EE9
:101B6000E926000EEA22E552E750EF6EFB0EDBCFCE
:101B7000E9FFFC0EDBCFEAFF070EE926000EEA22A2
:101B8000EF6AFD0EDBCFE9FFFE0EDBCFEAFF020EB0
:101B9000E926000EEA22EF500CE1FB0EDBCFE9FF55
:101BA000FC0EDBCFEAFF020EE926000EEA220C0E45
:101BB000EF6EE552E7CFD9FF1200D9CFE6FFE1CFB4
:101BC000D9FFFD0EDBCFE9FFFE0EDBCFEAFFEE52C1
:101BD000EF50E66EFB0EDBCFE9FFFC0EDBCFEAFF3A
:101BE000EE52E552E750EF6EFD0EDBCFE9FFFE0E41
:101BF000DBCFEAFFEF50E66EFB0EDBCFE9FFFC0E1A
:101C0000DBCFEAFFE552E750EF6EFD0EDBCFE9FFD9
:101C1000FE0EDBCFEAFF070EE926000EEA22EF04F4
:101C200036E1FD0EDBCFE9FFFE0EDBCFEAFF020E51
:101C3000E926000EEA22EF500C0FE66EFB0EDBCF1A
:101C4000E9FFFC0EDBCFEAFF020EE926000EEA22D6
:101C5000E552E750EF6E0C0E146EFD0EDBCFE9FF80
:101C6000FE0EDBCFEAFF020EE926000EEA22EF505D
:101C7000145C0CE1FB0EDBCFE9FFFC0EDBCFEAFFCF
:101C8000020EE926000EEA220C0EEF6E3FD0FD0E8A
:101C9000DBCFE9FFFE0EDBCFEAFF070EE926000EE1
:101CA000EA22EF5033E1FD0EDBCFE9FFFE0EDBCF82
:101CB000EAFF020EE926000EEA22EF50E66EFB0E66
:101CC000DBCFE9FFFC0EDBCFEAFF020EE926000EB8
:101CD000EA22E552E750EF6E0C0E146EFD0EDBCFDC
:101CE000E9FFFE0EDBCFEAFF020EE926000EEA2234
:101CF000EF50145C0BE1FB0EDBCFE9FFFC0EDBCFFA
:101D0000EAFF020EE926000EEA22EF6AE552E7CF6B
:101D1000D9FF1200D9CFE6FFE1CFD9FFE652DF6A43
:101D2000FD0EDB040DE1FE0EDB500C0FDF6E0C0E22
:101D3000146EFE0EDB50145C02E10C0EDF6E16D04A
:101D4000FD0EDB500BE1FE0EDB50DF6E0C0E146E51
:101D5000FE0EDB50145C01E1DF6A08D0AA0E146E9F
:101D6000FD0EDB50145C02E1AA0EDF6EDF5000D0E6
:101D7000E552E552E7CFD9FF1200D9CFE6FFE1CF18
:101D8000D9FF46EC1FF0D00EE66E8AEC1FF0E5524C
:101D9000E66A8AEC1FF0E552050EE76EFD0EDBCF1A
:101DA000E9FFFE0EDBCFEAFFE750E926000EEA224C
:101DB000EF500F0B146E040EE76EFD0EDBCFE9FF44
:101DC000FE0EDBCFEAFFE750E926000EEA22EF50D5
:101DD0000F0B100DF3501410E66E8AEC1FF0E55255
:101DE000030EE76EFD0EDBCFE9FFFE0EDBCFEAFF51
:101DF000E750E926000EEA22EF500F0B146E020E98
:101E0000E76EFD0EDBCFE9FFFE0EDBCFEAFFE7500A
:101E1000E926000EEA22EF500F0B100DF3501410BC
:101E2000E66E8AEC1FF0E552010EE76EFD0EDBCF89
:101E3000E9FFFE0EDBCFEAFFE750E926000EEA22BB
:101E4000EF500F0B146EFD0EDBCFE9FFFE0EDBCF64
:101E5000EAFFEF500F0B100DF3501410E66E8AECF2
:101E60001FF0E5525CEC1FF0E552E7CFD9FF1200FE
:101E7000D9CFE6FFE1CFD9FF46EC1FF0D00EE66EDA
:101E80008AEC1FF0E552040EE66E8AEC1FF0E55274
:101E9000010EE76EFD0EDBCFE9FFFE0EDBCFEAFFA2
:101EA000E750E926000EEA22EF500F0B146EFD0EEC
:101EB000DBCFE9FFFE0EDBCFEAFFEF500F0B100D7B
:101EC000F3501410E66E8AEC1FF0E552030EE76E35
:101ED000FD0EDBCFE9FFFE0EDBCFEAFFE750E92680
:101EE000000EEA22EF500F0B146E020EE76EFD0E8D
:101EF000DBCFE9FFFE0EDBCFEAFFE750E926000E5D
:101F0000EA22EF500F0B100DF3501410E66E8AEC1E
:101F10001FF0E552050EE76EFD0EDBCFE9FFFE0E6A
:101F2000DBCFEAFFE750E926000EEA22EF500F0B65
:101F3000146E040EE76EFD0EDBCFE9FFFE0EDBCF65
:101F4000EAFFE750E926000EEA22EF500F0B100DD2
:101F5000F3501410E66E8AEC1FF0E5525CEC1FF0B3
:101F6000E552E7CFD9FF1200D9CFE6FFE1CFD9FF85
:101F700046EC1FF0D00EE66E8AEC1FF0E552030E21
:101F8000E66E8AEC1FF0E552FE0EDBCFE6FF8AEC30
:101F90001FF0E5525CEC1FF0E552E7CFD9FF1200CD
:101FA000D9CFE6FFE1CFD9FFE652E66AD00EE66E62
:101FB00022EC20F0E552E552DF6E7F0EDF14DF6E7B
:101FC000DFCFE6FFE66AD00EE66E44EC20F0E55285
:101FD000E552E552900EE66E070EE66ED00EE66E06
:101FE00044EC20F0E552E552E552E552E552E7CFE8
:101FF000D9FF12002F0EE66E0F0EE66EB2EC0BF05C
:10200000E552E5520F0127510F012F5D05E02FCF5B
:0A20100027FF0F01010E006F120000
:06201A00080EE66E23EC47
:102020001AF0E552E66A07DBE5520C0EE66E1EEC8E
:1020300019F0E552DEDA0AEF13F0D9CFE6FFE1CF6F
:10204000D9FF060EE126DF68D950020FE66E000EBA
:10205000DA20E66ED950030FE66E000EDA20E66E47
:1020600052EC1EF0E552E552E552E552000901E15D
:10207000A5D1020EDBCFE6FF030EDBCFE6FFA8D92A
:10208000E552E552DF6EFF0EDF5C01E197D10D01F5
:102090000051040A01E123D1070A01E1E1D0010A5C
:1020A00001E195D0030A37E0010A01E087D12A0E49
:1020B000DF5C17E11651162BEA6A0C0FE96E0D0E64
:1020C000EA222A0EEF6E010EE66EB5DAE5520F0E29
:1020D000E66E1EEC19F0E5528CDA0D01010E006F70
:1020E00019D0230EDF5C16E11651162BEA6A0C0F8D
:1020F000E96E0D0EEA22230EEF6E010EE66E9BDAFC
:10210000E5520F0EE66E1EEC19F0E55272DA0D0183
:10211000010E006F53D1080EDF5C0DE1E66A8BDA29
:10212000E5520C0EE66E1EEC19F0E55262DA72DA38
:102130000D01006B4BD00C0EDF5C39E1050EDB6A44
:102140000B51EA6A010FE96E0D0EEA22EF6A010EE9
:10215000E66E0D0EE66E2EEC09F0E552E552E76EE6
:10216000050EE7CFDBFFDB041AE12A0E0D010C5D43
:1021700009E1040EE66E5FDAE5523BDA0D01040E6A
:10218000006F0CD0230E0C6F0C5108E0020EE66EAF
:1021900052DAE5522EDA0D01020E006F07D0E66A20
:1021A0004ADAE55226DA36DA0D01006B0FD00B5110
:1021B000EA6A010FE96E0D0EEA22DFCFEFFF2A0E69
:1021C000E66E35EC1AF0E5520D010B2BF7D0080E38
:1021D000DF5C18E10B51000808E2DFCFE6FF35ECC9
:1021E0001AF0E5520D010B070CD0E66A24DAE5522D
:1021F0000C0EE66E1EEC19F0E552FBD90BDA0D0160
:10220000006B2DD00C0EDF5C0CE10B51000808E2D6
:10221000030EE66E10DAE552ECD90D01030E006FE5
:102220001ED00B51EA6A010FE96E0D0EEA22DFCFD4
:10223000EFFF0B51EA6A010FE96E0D0EEA22EF5033
:10224000E66E35EC1AF0E5520D011651162BEA6ACE
:102250000C0FE96E0D0EEA22DFCFEFFF0B2BAED095
:10226000080EDF5C16E10B51000808E2DFCFE6FF45
:1022700035EC1AF0E5520D010B070AD0020EE66E9E
:10228000DAD9E552B6D90D01010E166F020E006FB4
:1022900025D00C0EDF5C0DE10B51000809E25FD97F
:1022A000040EE66EC8D9E552A4D90D01040E006FE4
:1022B00015D00B51EA6A010FE96E0D0EEA22DFCF4D
:1022C000EFFF0B51EA6A010FE96E0D0EEA22EF50A3
:1022D000E66E35EC1AF0E5520D010B2B6FD0080EAF
:1022E000DF5C26E10B51000808E2DFCFE6FF35ECAA
:1022F0001AF0E5520D010B071AD02A0E0C5D0AE107
:102300000C0EE66E1EEC19F0E55273D983D90D015F
:10231000006B0DD0230E0C5D0AE1030EE66E8BD927
:10232000E55267D90D01020E166F030E006F45D0FE
:102330000C0EDF5C24E12A0E0C5D09E1010EE66E55
:102340000D0EE66E3CEC0AF0E552E5520BD0230E82
:102350000C5D08E10C0EE66E0D0EE66E4CEC09F01D
:10236000E552E552E66A67D9E5520C0EE66E1EECC0
:1023700019F0E5523ED94ED90D01006B1ED00B511C
:10238000EA6A010FE96E0D0EEA22DFCFEFFF165168
:10239000162BEA6A0C0FE96E0D0EEA22DFCFEFFF73
:1023A0000B51EA6A010FE96E0D0EEA22EF50E66E5C
:1023B00035EC1AF0E5520D010B2B00D0060EE15C56
:1023C00002E2E16AE552E16EE552E7CFD9FF120081
:1023D000D9CFE6FFE1CFD9FFE652DF680D0100510A
:1023E000040A01E18AD0070A60E0010A3AE0030A20
:1023F00015E0010A01E0ACD0FE0EDB50F76A7D0F5C
:10240000F66E4B0EF7220800F550DF6E2A0EDF5CE9
:1024100004E0230EDF5C01E0DF689AD0FE0EDB50A3
:10242000F76A7D0FF66E4B0EF7220800F550DF6E4F
:10243000050E0B5D08E3080EDF5C04E00C0EDF5CAC
:1024400001E0DF680DD02A0EDF5C09E0230EDF5CBF
:1024500006E00A0EDF5C03E00B0EDF5C01E1DF68E3
:1024600077D0FE0EDB50F76A7D0FF66E4B0EF7222B
:102470000800F550DF6E0B51010802E2DF6814D04E
:102480000B0508E1080EDF5C04E00C0EDF5C01E0E8
:10249000DF680AD0080EDF5C07E0310EDF5C04E085
:1024A000320EDF5C01E0DF6853D0FE0EDB50F76ACE
:1024B0007D0FF66E4B0EF7220800F550DF6E0B51C4
:1024C000020802E2DF6818D0020E0B5D08E1080E78
:1024D000DF5C04E00C0EDF5C01E0DF680DD02A0E4B
:1024E000DF5C09E0230EDF5C06E00A0EDF5C03E040
:1024F0000B0EDF5C01E1DF682BD0FE0EDB50F76ACC
:102500007D0FF66E4B0EF7220800F550DF6E0B5173
:10251000040802E2DF681BD0040E0B5D08E1080E20
:10252000DF5C04E00C0EDF5C01E0DF6810D02A0EF7
:10253000DF5C0CE0230EDF5C09E00A0EDF5C06E0E6
:102540000B0EDF5C03E00C0EDF5C01E1DF6800D006
:10255000DF5000D0E552E552E7CFD9FF1200D9CFC6
:10256000E6FFE1CFD9FF020EE126010EDB6A0D0185
:102570000B0513E11651EA6A0C0FE96E0D0EEA2203
:10258000300EEF6E162B1651EA6A0C0FE96E0D0E27
:10259000EA2201CDEFFF162B12D01651EA6A0C0F7A
:1025A000E96E0D0EEA2201CDEFFF162B1651EA6AF5
:1025B0000C0FE96E0D0EEA2202CDEFFF162B300E46
:1025C0000D5D146E300E0C5D0A0DF3501424E76E91
:1025D000010EE7CFDBFFDB50146E020EE15C03E27D
:1025E00000D0E16AE552E16E1450E552E7CFD9FF21
:1025F00012000A0EE66EE66AE66A010EE66E0D0E3F
:10260000E66E70EC22F0146E050EE15E14500D01C2
:102610000B6B12000A0EE66EE66AE66A0C0EE66EB8
:102620000D0EE66E70EC22F0146E050EE15E145095
:102630000D01166B1200D9CFE6FFE1CFD9FF030ED3
:10264000E126FE0EEA6ADB34FE0BEA36E96EF60E90
:10265000E9260D0EEA22010EEECFDBFF020EEDCFD2
:10266000DBFF2EEC1AF0DF6ADF50E76E010EDBCFE6
:10267000F6FF020EDBCFF7FFE750F626000EF7223B
:102680000800F55014E0DF50E76E010EDBCFF6FFD7
:10269000020EDBCFF7FFE750F626000EF722080008
:1026A000F550E66E35EC1AF0E552DF2ADDD7030E61
:1026B000E15C02E2E16AE552E16EE552E7CFD9FF63
:1026C0001200D9CFE6FFE1CFD9FF030EE126FE0EBF
:1026D000EA6ADB34FE0BEA36E96EF60EE9260D0EE9
:1026E000EA22010EEECFDBFF020EEDCFDBFFDF6A49
:1026F000DF50E76E010EDBCFF6FF020EDBCFF7FFF8
:10270000E750F626000EF7220800F55014E0DF50DF
:10271000E76E010EDBCFF6FF020EDBCFF7FFE750CF
:10272000F626000EF7220800F550E66E35EC1AF09A
:10273000E552DF2ADDD7030EE15C02E2E16AE552F1
:10274000E16EE552E7CFD9FF1200D9CFE6FFE1CF26
:10275000D9FFE65200CDDFFFDF5000D0E552E55251
:06276000E7CFD9FF1200D3
:0A276600DACFE4FFE2CFDAFFE9CF9B
:10277000E4FFEACFE4FFF6CFE4FFF7CFE4FFF5CFC5
:10278000E4FFF3CFE4FFF4CFE4FFFACFE4FF00EE81
:1027900000F0140EE80403E3EECFE4FFFBD700EEF5
:1027A00014F0090EE80403E3EECFE4FFFBD7E65292
:1027B000D9CFE6FFE1CFD9FFE652BAEC24F0DF6EC5
:1027C0000B01BD51BD2BEA6AC00FE96E0B0EEA2268
:1027D000DFCFEFFF3C0EBD5D01E3BD6BBF2BA49AC5
:1027E000E552E552E7CFD9FFE55200EE1CF0090EA5
:1027F000E80403E3E5CFEDFFFBD700EE13F0140E82
:10280000E80403E3E5CFEDFFFBD7E5CFFAFFE5CF23
:10281000F4FFE5CFF3FFE5CFF5FFE5CFF7FFE5CF19
:10282000F6FFE5CFEAFFE5CFE9FFE5CFDAFF1100DC
:10283000DACFE4FFE2CFDAFFE9CFE4FFEACFE4FF4B
:10284000E652D9CFE6FFE1CFD9FFE6520B010251A4
:1028500004E1ACA2FED7AC9A1BD00151EA6A030F87
:10286000E96E0B0EEA22EFCFDFFFDF50AD6E012BDA
:102870003C0E015D01E3016B000EE76E0219E8AE4C
:1028800002D0023503D0E750D880025501E202079A
:10289000E552E552E7CFD9FFE552E5CFEAFFE5CFB4
:1028A000E9FFE5CFDAFF1100DACFE4FFE2CFDAFF8C
:1028B000E9CFE4FFEACFE4FFE652D9CFE6FFE1CF6C
:1028C000D9FFE6520B01805104E172A2FED7729A41
:1028D0001BD07F51EA6A810FE96E0B0EEA22EFCF1F
:1028E000DFFFDF50736E7F2B3C0E7F5D01E37F6B5C
:1028F000000EE76E8019E8AE02D0803503D0E750B5
:10290000D880805501E28007E552E552E7CFD9FF34
:10291000E552E5CFEAFFE5CFE9FFE5CFDAFF1100A9
:10292000D9CFE6FFE1CFD9FFE6527C0EDF6E0F0E66
:10293000E66EE66ADFCFE6FFFBEC23F0E552E552F8
:10294000E552AC8AAC9EE552E552E7CFD9FF1200C2
:10295000D9CFE6FFE1CFD9FFE6527C0EDF6E670EDE
:10296000E66EE66ADFCFE6FFBFEC23F0E552E55204
:10297000E552D08E718E728A729EA38AA58AE55224
:10298000E552E7CFD9FF1200D9CFE6FFE1CFD9FF5B
:10299000ACA2FED70B010051002BEA6A030FE96ECF
:1029A0000B0EEA22FE0EDBCFEFFF022B3C0E005D8A
:1029B00001E3006B010E00D0E552E7CFD9FF120012
:1029C000D9CFE6FFE1CFD9FF72A2FED70B017E512E
:1029D0007E2BEA6A810FE96E0B0EEA22FE0EDBCF38
:1029E000EFFF802B3C0E7E5D01E37E6B010E00D07D
:1029F000E552E7CFD9FF1200D9CFE6FFE1CFD9FFEB
:102A0000060EE126010EF36E020EF3CFDBFF030E7E
:102A1000DB6A020EDBCF14F0DB06030EDBCF15F012
:102A200001E2DB061450151006E0040EE66E62ECBF
:102A300025F0E552EED7000E0B01E76E0219E8AE65
:102A400002D0023503D0E750D880025523E201516D
:102A5000EA6A030FE96E0B0EEA22010EEFCFDBFFED
:102A6000ACA2FED7010EDB50AD6EACA2FED70B01BF
:102A7000012B3C0E015D01E3016B000EE76E0219B4
:102A8000E8AE02D0023503D0E750D880025501E20B
:102A90000207D1D7010EF36E040EF3CFDBFF050E54
:102AA000DB6A040EDBCF14F0DB06050EDBCF15F07E
:102AB00001E2DB061450151006E0040EE66E62EC2F
:102AC00025F0E552EED7146E060EE15C02E2E16AF3
:102AD000E552E16E1450E552E7CFD9FF1200D9CF8D
:102AE000E6FFE1CFD9FF060EE126010EF36E020EDE
:102AF000F3CFDBFF030EDB6A020EDBCF14F0DB0645
:102B0000030EDBCF15F001E2DB061450151006E0D2
:102B1000040EE66E62EC25F0E552EED7000E0B01D6
:102B2000E76E8019E8AE02D0803503D0E750D88038
:102B3000805523E27F51EA6A810FE96E0B0EEA228B
:102B4000010EEFCFDBFF72A2FED7010EDB50736EDA
:102B500072A2FED70B017F2B3C0E7F5D01E37F6BE2
:102B6000000EE76E8019E8AE02D0803503D0E75042
:102B7000D880805501E28007D1D7010EF36E040E94
:102B8000F3CFDBFF050EDB6A040EDBCF14F0DB06B0
:102B9000050EDBCF15F001E2DB061450151006E040
:102BA000040EE66E62EC25F0E552EED7146E060ECA
:102BB000E15C02E2E16AE552E16E1450E552E7CFD2
:102BC000D9FF1200D9CFE6FFE1CFD9FFE652DF6A85
:102BD000A39A000E0B01E76EBF19E8AE02D0BF3515
:102BE00003D0E750D880BF5502E2010EDF6EA38A02
:102BF000DF5000D0E552E552E7CFD9FF1200D9CF20
:102C0000E6FFE1CFD9FFE652DF6A9D9A000E0B0185
:102C1000E76E4119E8AE02D0413503D0E750D880C5
:102C2000415502E2010EDF6E9D8ADF5000D0E55271
:102C3000E552E7CFD9FF1200D9CFE6FFE1CFD9FFA8
:102C4000E6529D9A0B014051402BEA6A420FE96E11
:102C50000B0EEA22EFCFDFFF3C0E405D01E3406B3D
:102C6000000EE76E4119E8AE02D0413503D0E750BF
:102C7000D880415501E241079D8ADF5000D0E552DE
:102C8000E552E7CFD9FF1200D9CFE6FFE1CFD9FF58
:102C9000E652A39A0B01BE51BE2BEA6AC00FE96E41
:102CA0000B0EEA22EFCFDFFF3C0EBE5D01E3BE6BF1
:102CB000000EE76EBF19E8AE02D0BF3503D0E75073
:102CC000D880BF5501E2BF079D8ADF5000D0E55292
:082CD000E552E7CFD9FF120025
:082CD800D9CFE6FFE1CFD9FFDF
:102CE000FE0EDBCF61FDFD0EDBCF62FDFC0EDBCF08
:102CF00063FDFB0EDBCF64FDF90EDBCFE1FDFA0EC9
:102D0000DBCFE2FD04D8E552E7CFD9FF120090EC0B
:102D100014F00D01DD6BDE6B010E606FDF6B050ED5
:102D2000E06FE7CDE3FDE8CDE4FDE9CDE5FDEACDDB
:102D3000E6FD60CDEBFD12000D01DD6BDE6B010EDB
:102D4000606FDF6B050EE06FE7CDE3FDE8CDE4FDDE
:102D5000E9CDE5FDEACDE6FD60CDEBFD1200D9CF72
:102D6000E6FFE1CFD9FF060EE126DF6A8CEC1CF00E
:102D700006C0E7FD07C0E8FD08C0E9FD09C0EAFD9F
:102D8000E30EE96E0D0EEA6EEE500D01E71909E152
:102D9000EE50E81906E1EE50E91903E1EE50EA19A8
:102DA00000E113E06051EB5D08E1020E605D05E1BA
:102DB000E007E05102E1ABDFBED0E7CDE3FDE8CDB7
:102DC000E4FDE9CDE5FDEACDE6FD6051030A01E150
:102DD000ADD0010A16E0030A02E0AEDFAAD0FFEC94
:102DE00015F0000901E1A7D01CEC16F0DF6E0D0113
:102DF0006151DF5C05E1DD6B020E606F050EE06F77
:102E000098D0FFEC15F0000901E195D01CEC16F00C
:102E1000DF6E0D016251DF5C74E1020EDB6A030EAE
:102E2000DB68D950030FE66E000EDA20E66E8DD80F
:102E3000E552E552E76E020EE7CFDBFFDB50020AF8
:102E400054E0030A05E0010A01E057D075DF73D0B2
:102E50000D01E151E21147E0D950040FE66E000E7A
:102E6000DA20E66EDF0EE66E0D0EE66E670EE66E9B
:102E70000D0EE66E05D0E2CDFAFF0D01E151F96EBF
:102E8000FADF146E060EE15E14500D01DE6F010EC6
:102E9000A16FDE2BDFCDA2FDDE2BDE52020EDD6E3A
:102EA000DE51F36E010EDBCFF4FFF350F45C1AE257
:102EB000040EDBCFE9FF050EDBCFEAFFEF50E66E35
:102EC000010EDB50EA6AA10FE96E0D0EEA22E5520F
:102ED000E750EF6E040EDB2A050E01E3DB2A010E3C
:102EE000DB2ADED701D028DF08D00D01010EA16F4B
:102EF000DE2BDFCDA2FDDE2B00D00D01030E606FB7
:102F000014D0DD51DD2BEA6A650FE96E0D0EEA2261
:102F1000DFCFEFFF3C0EDD5D08E3010EA16FDE2B7E
:102F2000900EA26FDE2B030E606F03D059D804DF22
:102F300000D060CDEBFD060EE15C02E2E16AE552F5
:102F4000E16EE552E7CFD9FF1200D9CFE6FFE1CF1E
:102F5000D9FF020EE1260D01DD05EA6A650FE96E73
:102F60000D0EEA22EFCFDFFF010EDB6A650505E0FB
:102F7000FF0E655D02E0000E27D0DD05E66E650EF2
:102F8000E66E0D0EE66E9AD8E552E552E552E76E12
:102F9000010EE7CFDBFFDB50DF5C0CE10D01DD074D
:102FA000DD51EA6A650FE96E0D0EEA22EF6A010E45
:102FB0000BD00AD0FD0EDBCFE9FFFE0EDBCFEAFF20
:102FC000910EEF6E000E00D0146E020EE15C02E274
:102FD000E16AE552E16E1450E552E7CFD9FF1200E5
:102FE000D9CFE6FFE1CFD9FF020EE126DF6A010E5D
:102FF000DB6ADECDE6FFA10EE66E0D0EE66E5ED854
:10300000E552E552E552DF6E63CDE6FFC4EC14F005
:10301000E552010EDB6A0D01DE51F36E010EDBCFCE
:10302000F4FFF350F45C0FE2010EDB50EA6AA10FEB
:10303000E96E0D0EEA22EF50E66EC4EC14F0E55294
:10304000010EDB2AE8D7DFCFE6FFC4EC14F0E5522F
:1030500064CDE6FFC4EC14F0E552FCEC14F0020E73
:10306000E15C02E2E16AE552E16EE552E7CFD9FFA9
:103070001200D9CFE6FFE1CFD9FFFD0EDBCFF6FF7F
:10308000FE0EDBCFF7FF0800F55012E0FD0EDBCFA0
:10309000F6FFFE0EDBCFF7FF0800F550E66EC4EC3E
:1030A00014F0E552FD0EDB2AFE0E01E3DB2AE5D724
:1030B000FCEC14F0E552E7CFD9FF1200D9CFE6FFC0
:1030C000E1CFD9FF030EE126DF6A010EDB6AFC0EB9
:1030D000DB50F36E010EDBCFF4FFF350F45C12E231
:1030E000010EDB50E76EFD0EDBCFE9FFFE0EDBCFFE
:1030F000EAFFE750E926000EEA22EF50DF1A010E40
:10310000DB2AE5D7DF50146E030EE15C03E200D04A
:10311000E16AE552E16E1450E552E7CFD9FF1200A3
:10312000D9CFE6FFE1CFD9FFE652FC0EDBCFDEFDC3
:103130000D010A0EDF6F020EDF6EDE51DF5C18E25A
:10314000FD0EDBCFE9FFFE0EDBCFEAFFEF50E66EB0
:10315000DF50EA6AA10FE96E0D0EEA22E552E75050
:10316000EF6EFD0EDB2AFE0E01E3DB2ADF2AE5D738
:0C31700037DFE552E552E7CFD9FF12002F
:04317C00D9CFE6FFC2
:10318000E1CFD9FF030EE126300EF36E010EF3CF2F
:10319000DBFF750EF36E020EF3CFDBFF010EDF6E69
:1031A000DF0425E105DA000000008392838400003B
:1031B00000008386000000008350800B01E0010EB8
:1031C000DF6E83968386000000008396010EDB0687
:1031D000020E01E2DB06D950010FE96EDACFEAFFF9
:1031E000EE50ED1003E1ECD9FF0E04D0D9D7E8D9A9
:1031F000000E00D0146E030EE15C02E2E16AE552BB
:10320000E16E1450E552E7CFD9FF1200D9CFE6FFA7
:10321000E1CFD9FF839283940000FE0EDB50F00BC8
:10322000146E0F0E8C1414108C6E00008386000038
:1032300000008396E552E7CFD9FF1200D9CFE6FF11
:10324000E1CFD9FF9BDF839283940000FE0EDB5019
:10325000F00B146E0F0E8C1414108C6E000083860D
:10326000000000008396FE0EDB38F00BF00B146EAE
:103270000F0E8C1414108C6E00008386000000006A
:103280008396E552E7CFD9FF1200D9CFE6FFE1CF11
:10329000D9FF74DF838283940000FE0EDB50F00BB5
:1032A000146E0F0E8C1414108C6E000083860000B8
:1032B00000008396FE0EDB38F00BF00B146E0F0E41
:1032C0008C1414108C6E000083860000000083961E
:1032D000E552E7CFD9FF1200D9CFE6FFE1CFD9FF02
:1032E0000B0EE1266DD9280EF36E010EF3CFDBFF36
:1032F000020EDB6A010EDBCF14F0DB06020EDBCF21
:1033000015F001E2DB061450151006E0040EE66E1F
:1033100062EC25F0E552EED7300EE66E77DFE5522F
:103320000A0EF36E030EF3CFDBFF040EDB6A030E0F
:10333000DBCF14F0DB06040EDBCF15F001E2DB0679
:103340001450151006E0040EE66E62EC25F0E5520E
:10335000EED7300EE66E5ADFE5520A0EF36E050E1A
:10336000F3CFDBFF060EDB6A050EDBCF14F0DB06C6
:10337000060EDBCF15F001E2DB061450151006E057
:10338000040EE66E62EC25F0E552EED7300EE66EE6
:103390003DDFE5520A0EF36E070EF3CFDBFF080E9A
:1033A000DB6A070EDBCF14F0DB06080EDBCF15F06F
:1033B00001E2DB061450151006E0040EE66E62EC26
:1033C00025F0E552EED7200EE66E20DFE5520A0E1C
:1033D000F36E090EF3CFDBFF0A0EDB6A090EDBCFBB
:1033E00014F0DB060A0EDBCF15F001E2DB06145009
:1033F000151006E0040EE66E62EC25F0E552EED7FD
:10340000280EE66E1BDFE552B9DEDF6EDF5010E1FD
:103410000F0EE66E13DFE552010EE66E0FDFE5528A
:10342000040EE66E0BDFE552060EE66E07DFE55290
:103430000B0EE15C03E200D0E16AE552E16EE55279
:10344000E7CFD9FF1200D9CFE6FFE1CFD9FFFE0EBB
:10345000DBCF01FEE552E7CFD9FF1200010EE66E89
:10346000EDDEE5520E01006B1200D9CFE6FFE1CF91
:10347000D9FFE652FE0EDB500E01015D23E1005143
:1034800001E137D0100E005D0EE1800EE66ED6DE53
:10349000E552DF6A100EDF5C06E2140EE66ECEDE49
:1034A000E552DF2AF7D7100EE66EC8DEE552200E91
:1034B000E66EEBDEE552100EE66EC0DEE5520E0162
:1034C000000717D0100E005D05E1C00EE66EB6DEF7
:1034D000E55208D0200E005D05E3006B020EE66E9B
:1034E000ADDEE552FE0EDBCFE6FFCFDEE5520E018C
:1034F000002BE552E552E7CFD9FF1200EDDE010EB9
:10350000E66E9CDEE5520E01006B1200D9CFE6FF9D
:10351000E1CFD9FFE652010EE66E90DEE552DF6A9A
:10352000100EDF5C1CE2FD0EDBCFE9FFFE0EDBCFF1
:10353000EAFFEF50E66EDF50EA6A020FE96E0E0E08
:10354000EA22E552E750EF6EFD0EDBCFE9FFDB2A02
:10355000FE0EDBCFEAFF01E3DB2ADF2AE1D7C00E54
:10356000E66E6CDEE552DF6A100EDF5C1CE2FD0EDB
:10357000DBCFE9FFFE0EDBCFEAFFEF50E66EDF5058
:10358000EA6A020FE96E0E0EEA22E552E750EF6E8C
:10359000FD0EDBCFE9FFDB2AFE0EDBCFEAFF01E306
:1035A000DB2ADF2AE1D7E552E552E7CFD9FF120047
:1035B000958E958C958A95889596959495921200FE
:1035C000959E959C959A95989596959495921200AE
:1035D000DACFE4FFE2CFDAFFE9CFE4FFEACFE4FF9E
:1035E000F6CFE4FFF7CFE4FFF5CFE4FFF3CFE4FF3E
:1035F000F4CFE4FFFACFE4FF00EE00F0140EE8048D
:1036000003E3EECFE4FFFBD700EE14F0090EE8046D
:1036100003E3EECFE4FFFBD7E652F2940E012E2B2C
:10362000000E2F2330233123322B3323342B352329
:10363000362B3723382B39233A073B5B3B3504E2E3
:103640003A510008000E3B5508E33C2B000E3D2389
:103650003E233F23C80E3A6F3B6B2451251107E0F0
:1036600005D025CEFAFF0E012451F96EFADF22CEE5
:10367000E6FF23CEE6FF14EC25F0E552E552E552D5
:1036800000EE1CF0090EE80403E3E5CFEDFFFBD7E5
:1036900000EE13F0140EE80403E3E5CFEDFFFBD7D3
:1036A000E5CFFAFFE5CFF4FFE5CFF3FFE5CFF5FF78
:1036B000E5CFF7FFE5CFF6FFE5CFEAFFE5CFE9FF7E
:1036C000E5CFDAFF1100DACFE4FFE2CFDAFFE9CF8E
:1036D000E4FFEACFE4FFF6CFE4FFF7CFE4FFF5CF56
:1036E000E4FFF3CFE4FFF4CFE4FFFACFE4FF00EE12
:1036F00000F0140EE80403E3EECFE4FFFBD700EE86
:1037000014F0090EE80403E3EECFE4FFFBD7E65222
:103710009E9026CEE6FF27CEE6FFF8EC24F0E55299
:10372000E5520E012851291107E005D029CEFAFFF4
:103730000E012851F96EFADFE55200EE1CF0090E79
:10374000E80403E3E5CFEDFFFBD700EE13F0140E22
:10375000E80403E3E5CFEDFFFBD7E5CFFAFFE5CFC4
:10376000F4FFE5CFF3FFE5CFF5FFE5CFF7FFE5CFBA
:10377000F6FFE5CFEAFFE5CFE9FFE5CFDAFF11007D
:10378000DACFE4FFE2CFDAFFE9CFE4FFEACFE4FFEC
:10379000F6CFE4FFF7CFE4FFF5CFE4FFF3CFE4FF8C
:1037A000F4CFE4FFFACFE4FF00EE00F0140EE804DB
:1037B00003E3EECFE4FFFBD700EE14F0090EE804BC
:1037C00003E3EECFE4FFFBD7E6529E922ACEBBFF87
:1037D0000E012C512D1107E005D02DCEFAFF0E0160
:1037E0002C51F96EFADFE55200EE1CF0090EE804E8
:1037F00003E3E5CFEDFFFBD700EE13F0140EE80472
:1038000003E3E5CFEDFFFBD7E5CFFAFFE5CFF4FF0C
:10381000E5CFF3FFE5CFF5FFE5CFF7FFE5CFF6FF07
:10382000E5CFEAFFE5CFE9FFE5CFDAFF1100D9CF19
:10383000E6FFE1CFD9FF9F0EE66E30EC25F0E552B2
:10384000FD0EDBCF22FEFE0EDBCF23FEFB0EDBCF19
:1038500024FEFC0EDBCF25FEFD0EDBCFE6FFFE0EC9
:10386000DBCFE6FF14EC25F0E552E552E552E7CF59
:10387000D9FF1200D9CFE6FFE1CFD9FF020EE12632
:10388000830EDF6EDE52080EDD6E010EDBCFE6FF2B
:10389000DFCFE6FF6CEC24F0E552E552FD0EDBCF06
:1038A000E6FFFE0EDBCFE6FFF8EC24F0E552E55232
:1038B0009F809D80010ECD6EFD0EDBCF26FEFE0E9D
:1038C000DBCF27FEFB0EDBCF28FEFC0EDBCF29FE75
:1038D000020EE15C02E2E16AE552E16EE552E7CFF9
:1038E000D9FF1200D9CFE6FFE1CFD9FF0F0EBA6E94
:1038F0009F829D82FE0EDB50BB6EFE0EDB500E01E2
:103900002A6F2B6BFC0EDBCF2CFEFD0EDBCF2DFECA
:10391000E552E7CFD9FF1200D9CFE6FFE1CFD9FFBB
:10392000040EE126F29A3CCEDFFF010E3DCEDBFF16
:10393000020E3ECEDBFF030E3FCEDBFFF28ADECF70
:1039400006F0DECF07F0DECF08F0DDCF09F0DD5264
:10395000DD52040EE15C03E200D0E16AE552E16E63
:10396000E552E7CFD9FF1200F29E0E013C6B3D6B92
:083970003E6B3F6BF28E12006A
:08397800D9CFE6FFE1CFD9FF32
:10398000E6528DD8DF6A010EDF5C09E2DF50EA6A99
:103990005A0FE96E0E0EEA22EF6ADF2AF4D7E552DB
:1039A000E552E7CFD9FF1200D9CFE6FFE1CFD9FF2B
:1039B0009BD8FC0EDBCFE6FFFD0EDBCFE6FFFE0E55
:1039C000DBCFE6FF98D8E552E552E552E552E7CF66
:1039D000D9FF1200D9CFE6FFE1CFD9FFE652FC0EA6
:1039E000DB50DF6EFB0EDB50D880DF541AE37CD84F
:1039F000DFCFE6FF176ADF34FE0B1736166EFD0EBB
:103A0000DB501624146EFE0EDB501720156E14C00A
:103A1000E6FF15C0E6FF6FD8E552E552E552DF2A12
:103A2000E1D7E552E552E7CFD9FF1200D9CFE6FF43
:103A3000E1CFD9FFE652DF6A57D8DF6A010EDF5CBB
:103A400015E2DFCFE6FF156ADF34FE0B1536146E84
:103A50005B0E14260E0E152214C0E6FF15C0E6FFFD
:103A60004AD8E552E552E552DF2AE8D7E552E55259
:103A7000E7CFD9FF1200D9CFE6FFE1CFD9FFFE0E85
:103A8000EA6ADB34FE0BEA36E96E5B0EE9260E0EBF
:103A9000EA22EF5000D0E552E7CFD9FF1200D9CF8C
:103AA000E6FFE1CFD9FFE652DF6A010EDF5C17E2E5
:103AB000EA6ADF34FE0BEA36E96E5B0EE9260E0E8B
:103AC000EA22EF6AEA6ADF34FE0BEA36E96E5B0E41
:103AD000E9260E0EEA22EE52EF6ADF2AE6D7E55219
:103AE000E552E7CFD9FF12008450020B01E0010E2E
:103AF0000E015A6F1200D9CFE6FFE1CFD9FFFD0EBC
:103B0000DBCFE9FFFE0EDBCFEAFFEF50010A3DE01D
:103B1000010A01E074D0FC0EDB50EA6A5A0FE96E2C
:103B20000E0EEA22EF50010B27E1FD0EDBCFE9FF7D
:103B3000FE0EDBCFEAFFEE52EF2AFD0EDBCFE9FFF0
:103B4000FE0EDBCFEAFFEECF14F0EFCF15F0020E42
:103B50000001155C10E3FD0EDBCFE9FFFE0EDBCFAD
:103B6000EAFF010EEF6EFD0EDBCFE9FFFE0EDBCFAD
:103B7000EAFFEE52EF6A08D0FD0EDBCFE9FFFE0E42
:103B8000DBCFEAFFEE52EF6A3AD0FC0EDB50EA6A76
:103B90005A0FE96E0E0EEA22EF50010B010826E1E2
:103BA000FD0EDBCFE9FFFE0EDBCFEAFFEE52EF2A80
:103BB000FD0EDBCFE9FFFE0EDBCFEAFFEECF14F008
:103BC000EFCF15F0020E0001155C0FE3FD0EDBCF09
:103BD000E9FFFE0EDBCFEAFFEF6AFD0EDBCFE9FF68
:103BE000FE0EDBCFEAFFEE52EF6A08D0FD0EDBCF10
:103BF000E9FFFE0EDBCFEAFFEE52EF6A00D0E5529E
:063C0000E7CFD9FF12001E
:0A3C06000D015A6B5B6B2B6B2C6BEE
:103C10002D6B2E692F6B1200D9CFE6FFE1CFD9FFB4
:103C2000020EE1260D015D2B000E5E23D9CFE6FFCB
:103C3000DACFE6FF7ED8E552E552000901E128D04F
:103C40000D015A515B5D02E15B6B5A6B5B51E96E92
:103C5000EA6AD890E936EA36300EE9260D0EEA22F5
:103C6000DFCFEFFF5B51E96EEA6AD890E936EA36BA
:103C7000300EE9260D0EEA22010EE926000EEA2298
:103C80005DCDEFFF140E5B5D01E25B2B5D6B5E6B48
:103C9000020EE15C02E2E16AE552E16EE552E7CF35
:103CA000D9FF1200D9CFE6FFE1CFD9FF0D015B515B
:103CB0005A5D31E25A51E96EEA6AD890E936EA363D
:103CC000300EE9260D0EEA22EF50E66EFD0EDBCF38
:103CD000E9FFFE0EDBCFEAFFE552E750EF6E5A51E7
:103CE000E96EEA6AD890E936EA36300EE9260D0E1A
:103CF000EA22010EE926000EEA22EF50E66EFB0EE4
:103D0000DBCFE9FFFC0EDBCFEAFFE552E750EF6EB9
:103D10005A2B010E02D0000E00D0E552E7CFD9FF9A
:103D200012000D015B6B5A6B2B6B2C6B2D6B2E698C
:103D30001200D9CFE6FFE1CFD9FFE652DF68010ECE
:103D4000146E8150800B01E0010E145C6FE1815014
:103D5000200B01E0010E166E8150040B01E0010EF4
:103D6000E824156E8150100B01E0010E040DF3CF15
:103D700014F08150080B01E0010E080DF3501410EF
:103D8000151016100F0BDF6EDF500F0A4CE0010A02
:103D900047E0030A42E0010A3DE0070A38E0010A71
:103DA00033E0030A2FE0010A2AE00F0A25E0010AA6
:103DB00020E0030A1BE0010A16E0070A11E0010AED
:103DC0000CE0030A07E0010A02E0DF682FD0050ECD
:103DD000DF6E2CD0060EDF6E29D0090EDF6E26D0E6
:103DE0000A0EDF6E23D0020EDF6E20D0010EDF6ED2
:103DF0001DD0030EDF6E1AD0070EDF6E17D0040E33
:103E0000DF6E14D0DF6A12D00B0EDF6E0FD00F0EF4
:103E1000DF6E0CD00C0EDF6E09D0080EDF6E06D000
:103E20000E0EDF6E03D00D0EDF6E00D0FF0EDF5CD6
:103E300005E10D015F695C69000E17D00D015F514E
:103E4000DF5C0FE15C51DF5C0CE0FD0EDBCFE9FFD6
:103E5000FE0EDBCFEAFFDFCFEFFFDFCF5CFD010E11
:103E600004D0DFCF5FFD000E00D0E552E552E7CF72
:043E7000D9FF120064
:0C3E7400C76AC78E590EC86E280EC66EB5
:103E8000C56A9E96A19694869488120094969498FA
:103E900082888286050EE66EABEC25F0E5528298AC
:103EA000050EE66EABEC25F0E5528296050EE66E49
:103EB000ABEC25F0E5521200949694988298050E8A
:103EC000E66EABEC25F0E5528286050EE66EABECB5
:103ED00025F0E55282881200D9CFE6FFE1CFD9FF65
:103EE000E65294969488DF6ADF500A080EE3050EC6
:103EF000E66EABEC25F0E5528286050EE66EABEC85
:103F000025F0E5528296DF2AEFD7E552E552E7CF5A
:103F1000D9FF1200D9CFE6FFE1CFD9FFE652949640
:103F20009498DF6A080EDF5C25E2FE0EDB50800B02
:103F300002E0010E01D0000EE8B08288E8A082986D
:103F4000030EE66EABEC25F0E5528286060EE66EB9
:103F5000ABEC25F0E5528296020EE66EABEC25F056
:103F6000E552FE0EDBCFF3FFF39EF346F3CFDBFF0C
:103F7000DF2AD8D79488020EE66EABEC25F0E55226
:103F80008286060EE66EABEC25F0E5528296060EB2
:103F9000E66EABEC25F0E552E552E552E7CFD9FFEE
:103FA0001200D9CFE6FFE1CFD9FF020EE126DF6A8A
:103FB000949694989488010EDB6A080EF36E010EB5
:103FC000DBCFF4FFF350F45C17E28286060EE66E58
:103FD000ABEC25F0E552DF9EDF468250100B01E08E
:103FE000010EDF10DF6E8296060EE66EABEC25F05A
:103FF000E552010EDB2AE1D79498FE0EDB0402E1C4
:10400000829801D08288020EE66EABEC25F0E55274
:104010008286060EE66EABEC25F0E5528296060E21
:10402000E66EABEC25F0E552DF50146E020EE15C5B
:1040300003E200D0E16AE552E16E1450E552E7CFA9
:10404000D9FF1200D9CFE6FFE1CFD9FFE6521EDF3C
:10405000FE0EDBCFE6FF5EDFE552FD0EDBCFE6FFB7
:1040600059DFE55213DFFE0EDB28E66E53DFE55223
:10407000E66A97DFE552DF6E1FDFDF5000D0E552C2
:10408000E552E7CFD9FF1200D9CFE6FFE1CFD9FF44
:10409000FDDEFE0EDBCFE6FF3DDFE552FD0EDBCFA2
:1040A000E6FF38DFE552FC0EDBCFE6FF33DFE552FB
:0A40B00003DFE552E7CFD9FF12004D
:0640BA00D9CFE6FFE1CFC3
:1040C000D9FF080EE126DE6A240EDE6EF40EDE6EE7
:1040D000DD6ADD52DD52DECF07F0DECF08F0DECF45
:1040E00009F0DDCF0AF0DD52DD52075007E1240E62
:1040F000081804E1F40E091801E10A501FE0075006
:1041000008E1480E081805E1E80E091802E1010E61
:104110000A1810E0075008E1900E081805E1D00ECB
:10412000091802E1030E0A1801E000D0700ED36EE8
:104130009B8C08D0600ED36E9B8C04D0700ED36E17
:104140009B9C00D0D9CFE9FFDACFEAFFEECF14F085
:10415000EECF15F0EECF16F0EFCF17F0020ED8909D
:104160001732163215321432E806F9E1040E14C083
:10417000DBFF050E15C0DBFF060E16C0DBFF070ECA
:1041800017C0DBFFD950040FE96EDACFEAFFE80E63
:104190000B6E030E0C6E0D6A0E6AEECF06F0EECFBC
:1041A00007F0EECF08F0EFCF09F096EC24F009C04D
:1041B000EDFF08C0EDFF07C0EDFF06C0EFFF176879
:1041C0001868196A040EDBCF1AF0050EDBCF1BF05E
:1041D0001C6A1A50175C146E1B501858156E1C5030
:1041E0001958166E14C05FFE15C060FEC26A0F013A
:1041F000386B396B3A6B3B6B3C6B9690949C948E0E
:1042000094969498959E959C959A95989596959444
:1042100095928168968292968096929080909294E0
:10422000809492928092F19E080EE15C02E2E16A33
:0C423000E552E16EE552E7CFD9FF120025
:04423C00D9CFE6FFF1
:10424000E1CFD9FF040EE1265DEC20F0000EE66E12
:10425000E66A5FCEE6FF60CEE6FF17EC1CF0E552A3
:10426000E552E552E5527EEC1AF0BCEC1CF07A0EF9
:10427000E66E150EE66EDD0EE66ECC0EE66EBB0E3D
:10428000E66EAA0EE66E6CEC16F0146E060EE15E9B
:10429000145003EC1EF00DEC10F04BEC06F0E40EA5
:1042A000E66E460EE66E39EC18F0E552E55211EC7A
:1042B00000F0F40EDE6E010EDE6EDE6ADD6ADD52A7
:1042C000DD52D9CFE9FFDACFEAFFEE500E012E5DC5
:1042D000EE502F59EE503059EE50315907E3A1EC12
:1042E00025F00E012E6B2F6B306B316B0E01080E1B
:1042F000325D000E335907E30CEC1EF016EC1DF096
:104300000E01326B336B0E01FA0E365D000E37591B
:1043100005E320EC07F00E01366B376B0E01280E1B
:10432000385D000E395905E31DEC10F00E01386BB5
:10433000396BC7D7040EE15C02E2E16AE552E16E37
:08434000E552E7CFD9FF12009E
:0843480008C012F008500D023C
:10435000F4CF07F0F3CF06F009500E02F4CF09F0C6
:10436000F3CF08F00D02F3500726F4500822E86A54
:10437000092212500E02F3500726F4500822E86A70
:104380000922000C09C013F008C012F007C011F098
:1043900007500C02F4CF05F0F3CF04F008500D02E3
:1043A000F4CF07F0F3CF06F00C02F3500526F450DB
:1043B0000622E86A072211500D02F3500526F45038
:1043C0000622E86A072209500C02F3500626F45030
:1043D000072209500D02086AE86A0822F3500726EE
:1043E000F450082211500E02F3500626F450072212
:1043F000096AE86A0822092212500E02F3500726C1
:10440000F4500822E86A092213500E02F3500826DD
:06441000F4500922000C2B
:0A441600DACFE4FFE2CFDAFFE9CFCE
:10442000E4FFEACFE4FFF6CFE4FFF7CFE4FFF5CFF8
:10443000E4FFF3CFE4FFF4CFE4FFFACFE4FF00EEB4
:1044400000F0140EE80403E3EECFE4FFFBD700EE28
:1044500014F0090EE80403E3EECFE4FFFBD7E652C5
:10446000D9CFE6FFE1CFD9FFE652D9EC24F0DF6ED9
:104470000B013F513F2BEA6A420FE96E0B0EEA2215
:10448000DFCFEFFF3C0E3F5D01E33F6B412B9E9A78
:10449000E552E552E7CFD9FFE55200EE1CF0090ED8
:1044A000E80403E3E5CFEDFFFBD700EE13F0140EB5
:1044B000E80403E3E5CFEDFFFBD7E5CFFAFFE5CF57
:1044C000F4FFE5CFF3FFE5CFF5FFE5CFF7FFE5CF4D
:1044D000F6FFE5CFEAFFE5CFE9FFE5CFDAFF110010
:1044E000FE0EE3CFE9FFFF0EE3CFEAFFE9CFF3FFD4
:1044F000EACFF4FFFB0EE35003E1FC0EE35009E0CA
:10450000FB0EE30602E2FC0EE306FD0EE350EE6E48
:10451000F1D71200D9CFE6FFDACFE6FFFA0EE3CFEC
:10452000D9FFFB0EE3CFDAFFFC0EE3CFE9FFFD0E70
:10453000E3CFEAFFDE50EF5C02E1EE66FBD7F36EFD
:10454000FF0EE3CFDAFFE552FF0EE3CFD9FFE552CE
:10455000F3501200D9CFE6FFDACFE6FFFA0EE3CF31
:10456000D9FFFB0EE3CFDAFFFC0EE3CFE9FFFD0E30
:10457000E3CFEAFFE9CFF3FFEACFF4FFDECFEFFFAF
:10458000EE66FCD7FF0EE3CFDAFFE552FF0EE3CF76
:06459000D9FFE552120004
:0A459600784A01008C550000945C87
:1045A0000000387C000098850000609F000044AC4B
:1045B000000078B400006CCF0000CCD80000D4DF3D
:1045C0000000C8FA0000D0010100D80801007C28D2
:1045D0000100842F01000000000000000000000026
:1045E0000000000000000000000000000000307526
:1045F00000002C97000064C80000C0F300004820B1
:104600000100444201000000000000000000000022
:10461000000000000000000000000000000000009A
:10462000000000000000000000000000000000008A
:10463000000000000000000000000000000000007A
:0646400000000000000074
:0A464600280EF66E000EF76E000E4F
:10465000F86E0D010900F550F16F0900F550F26F89
:1046600003E1F16701D03DD00900F550EC6F09007E
:10467000F550ED6F0900F550EE6F09000900F55097
:10468000E96E0900F550EA6E090009000900F550CD
:10469000EF6F0900F550F06F09000900F6CFF3FD48
:1046A000F7CFF4FDF8CFF5FDECCDF6FFEDCDF7FF3C
:1046B000EECDF8FF0D01EF5302E1F05307E00900E2
:1046C000F550EE6EEF07F8E2F007F9D7F3CDF6FFFD
:1046D000F4CDF7FFF5CDF8FF0D01F107000EF25B09
:0446E000BFD712002E
:0C46E4004944454F4E49435320414E4489
:1046F0004F4E205445524D494E414C200044656375
:10470000004E6F76004F637400536570004175670B
:10471000004A756C004A756E004D617900417072F7
:10472000004D617200466562004A616E005361741B
:1047300000467269005468750057656400547565D9
:10474000004D6F6E0053756E0054494D4528484822
:104750004D4D293A00545255434B204E4F3A00508C
:104760004C414E54204E4F3A0050415353574F52F4
:0E477000443A00202020202044454E534F00A4
:02477E00D9CF91
:10478000E6FFDACFE6FFE1CFD9FFE2CFDAFF726AC8
:10479000716AFD0EDBB07288DBA202D0728C718C64
:1047A000DBB4728EDBA602D0718801D0718ADBA8DF
:1047B00002D0728401D07294DBBA7186DBAC02D075
:1047C000A38A01D0A39ADBAE02D0A38801D0A3981C
:1047D000FB0EDB50756EFC0EDBCF15F015C014F030
:1047E000156A1450766E728A718EE552E5CFDAFF43
:0647F000E7CFD9FF120023
:0A47F600D9CFE6FFDACFE6FFE1CFEE
:10480000D9FFE2CFDAFFAC6AAB6AFD0EDBB0AC8851
:10481000DBA202D0AC8CAB8CDBB4AC8EDBA602D0BE
:10482000AB8801D0AB8ADBB8AC84DBBAAB86DBAC3F
:1048300002D09D8A01D09D9ADBAE02D09D8801D026
:104840009D98FB0EDB50AF6EFC0EDBCF15F015C054
:1048500014F0156A1450B06EAC8AAB8EE552E5CFF9
:08486000DAFFE7CFD9FF1200D7
:0848680006500B02F3CF02F031
:10487000F4CF03F00C02F3500326000EF420046E74
:1048800006500D02F3500426000EF420056E06506B
:104890000E02F350052607500B02F3500326F45086
:1048A0000422000E052207500C02F3500426F45097
:1048B000052207500D02F350052608500B02F35055
:1048C0000426F450052208500C02F3500526095026
:0848D0000B02F3500526120053
:0848D800D9CFE6FFDACFE6FFBD
:1048E000E1CFD9FFE2CFDAFFFC0EDB50F30BCC6E49
:1048F000FD0EDB507F0BE824CD6ECF6ACE6A9E9012
:10490000FD0EDBAE02D09D8001D09D90A490FC0EE8
:10491000DBA402D0A38001D0A390CCBECC86CD80F6
:0C492000E552E5CFDAFFE7CFD9FF120027
:04492C00056A046AAA
:10493000036A026A200EE76ED890063607360836FC
:10494000093602360336043605360B50025C0C502D
:1049500003580D5004580E50055809E30B50025EE1
:104960000C50035A0D50045A0E50055A062AE72ED1
:04497000E4D7120076
:0C497400D9CFE6FFDACFE6FFE1CFD9FF94
:10498000E2CFDAFFE652F20E0E01611771AC03D0EE
:10499000619171B0618171B4618571B26187745048
:1049A000DF6EDF50E552E552E5CFDAFFE7CFD9FF02
:0249B0001200F3
:0E49B200D9CFE6FFDACFE6FFE1CFD9FFE2CFA3
:1049C000DAFFE652F20E0E016217ABAC03D0629131
:1049D000ABB06281ABB46285ABB26287AE50DF6EC2
:1049E000DF50E552E552E5CFDAFFE7CFD9FF1200FD
:1049F000D9CFE6FFDACFE6FFE1CFD9FFE2CFDAFF8A
:104A0000E652E652FC0EDBCFDEFFDBCFDDFF010E10
:104A1000DB50CF6EDF50CE6EE552E552E552E5CF6A
:084A2000DAFFE7CFD9FF120015
:084A2800D9CFE6FFDACFE6FF6B
:104A3000E1CFD9FFE2CFDAFFE652E652FC0EDBCF40
:104A4000DEFFDBCFDDFF010EDB50D76EDF50D66E11
:104A5000E552E552E552E5CFDAFFE7CFD9FF120084
:104A6000D9CFE6FFDACFE6FFE1CFD9FFE2CFDAFF19
:104A7000FD0EDB507F0BD56ED76AD66AF294FD0E21
:104A8000DBAE02D0F28A01D0F29AD58EE552E5CFA4
:084A9000DAFFE7CFD9FF1200A5
:084A9800056A046A100EE76EC6
:104AA000D89008360936043605360D50045C0E5091
:104AB000055805E30D50045E0E50055A082AE72EEE
:044AC000F0D7120019
:0C4AC400FF0EE3501D6E480E01D04C0E9A
:104AD000E76EE72EFED7E76AE72EFED71D2EF7D743
:044AE00000001200C0
:0C4AE400380EF36E00EE00F00F0E01D84B
:104AF0001200EA6002D0EE6AFCD7F350E9601200BF
:044B0000EE6AFCD786
:0C4B040010EE60F020EE60F0F86A019CFA
:104B100023EC23F003EC00F01EEC21F0FBD7120095
:104B2000056A080EE76ED890093605360E50055C0A
:0C4B300002E3056E092AE72EF7D71200F9
:044B3C000E01646B97
:104B400012000E01640503E1646B849003D0010E32
:064B5000646F8480120076
:0A4B5600FF0EE350E84E12000000CD
:0C4B600000D000D000D0E82EFAD71200E0
:044B6C0020202020C5
:0D4B700020202020202020202020202000B8
:034B7D003132339F
:0D4B80000A3435360B373839082A30230C3B
:034B8D0000000025
:104B90000000000000000000000000000000000015
:044BA0000000000011
:0C4BA40000000000000000000000000005
:104BB00000000000000000000000000000000000F5
:104BC00000000000000000000000000000000000E5
:104BD00000000000000000000000000000000000D5
:104BE00000000000000000000000000000000000C5
:104BF00000000000000000000000000000000000B5
:104C000000000000000000000000000000000000A4
:104C10000000000000000000000000000000000094
:024C2000000092
:034C22000000008F
:0B4C2500000000000000000000000084
:104C30000000000000000000000000000000000074
:074C4000000000000000006D
:094C470000000000000000000064
:104C50000000000000000000000000000000000054
:104C60000000000000000000000000000000000044
:104C70000000000000000000000000000000000034
:104C8000000000000000000000000000FF0000FF26
:104C90000000000000000000000000000000000014
:104CA0000000000000000000000000000000000004
:104CB00000000000000000000000000000000000F4
:104CC00000000000000000000000000000000000E4
:104CD00000000000000000000000000000000000D4
:104CE00000000000000000000000000000000000C4
:104CF00000000000000000000000000000000000B4
:104D000000000000000000000000000000000000A3
:0C4D100000000000000000000000000097
:044D1C000000000093
:104D20000000000000000000000000000000000083
:104D30000000000000000000000000000000000073
:104D40000000000000000000000000000000000063
:104D50000000000000000000000000000000000053
:104D60000000000000000000000000000000000043
:104D70000000000000000000000000000000000033
:044D8000000000002F
:0C4D840000000000000000000000000023
:104D9000000000000000000000000000C80000004B
:024DA000000011
:0E4DA20000454741473D473947354731472DCA
:104DB000472947254721471D471947154711470DE3
:0A4DC00047094705470147FD46007B
:014DCA0000E8
:024DCB00FFFFE8
:024DCD000000E4
:014DCF0000E3
:104DD000000000000000020603271213000000007C
:094DE000000000000000000000CA
:074DE900734769475F47555E
:034DF000474947E9
:020000040030CA
:0100010008F6
:0100020001FC
:0100030024D8
:01000500BD3D
:010006008079
:010008000FE8
:01000900C036
:01000A000FE6
:01000B00E014
:01000C000FE4
:01000D0040B2
:00000001FF
