:020000040000FA
:06000000ADEF1CF0120040
:020006001200E6
:08000800F2A402D08BEF13F00B
:100010009EA002D0F5EF13F09EA202D052EF14F092
:080020001200D08EF28E1200D6
:080028000B000A3B00008F0DE4
:1000300000000A000000FD3A0000780D00000D00ED
:100040000000FB3A00009C0D000002000000353764
:1000500000009F0D000001000000D33A0000000FD7
:10006000000028000000BB3A0000600D00001800EE
:100070000000683A000000010000530000001F3A31
:100080000000170D000049000000FD390000000EBF
:10009000000022000000FA390000990D0000030062
:0E00A0000000E3390000000D00001700000012
:0200AE00D9CFA8
:1000B000E6FFE1CFD9FFE652FD0EDBCF16F0FE0ED4
:1000C000DBCF17F017C016F0176A640E1702F3CFD4
:1000D00017F01602F3CF16F0F4501726FD0EDBCF03
:1000E00018F0FE0EDBCF19F0040ED890193218323A
:1000F000E804FBE10A0E1902F3CF19F01802F3CF5E
:1001000018F0F450192616501810146E17501910C4
:10011000156E0F0EE76EFD0EDBCF1AF0FE0EDBCF75
:100120001BF0E7501A161B6A14501A10DF6EDF50CE
:1001300000D0E552E552E7CFD9FF1200D9CFE6FF54
:10014000E1CFD9FFFE0EDB50F00BE83A060DFE0EB4
:10015000DBCFE7FFF350E75EFE0EE7CFDBFFDB50C0
:10016000146E156A14C0F3FF15C0F4FF00D0E552F9
:10017000E7CFD9FF1200D9CFE6FFE1CFD9FF020EBA
:10018000E1260A0E146E14C00EF0FE0EDBCF09F04D
:10019000BBEC1CF00950DF6E0A0E146E14C00EF09A
:1001A000FE0EDBCF09F0BBEC1CF0010E05C0DBFF3F
:1001B000DB500F0B146E0F0EDF14100DF3501410E4
:1001C000146E020EE15C03E200D0E16AE552E16EDA
:1001D0001450E552E7CFD9FF1200D9CFE6FFE1CFA7
:1001E000D9FF0E0EE126FD0EDBCF14F0FE0EDBCFA5
:1001F00015F00A0E0D6E0E6A14C008F015C009F055
:1002000077EC1CF004C014F005C015F00A0E14C001
:10021000DBFF0B0E15C0DBFF0C0EDB6A0D0EDB6A7D
:100220000A0EDB50E76E040EE7CFDBFFFD0EDBCFDF
:1002300014F0FE0EDBCF15F00A0E0D6E0E6A14C020
:1002400008F015C009F077EC1CF008C014F009C0E4
:1002500015F0060E14C0DBFF070E15C0DBFF080EFD
:10026000DB6A090EDB6A060EDBCF06F0070EDBCF7A
:1002700007F0080EDBCF08F0090EDBCF09F00A0EFD
:100280000B6E0C6A0D6A0E6AFFEC1BF00A0E02C0C0
:10029000DBFF0B0E03C0DBFF0C0E04C0DBFF0D0EFB
:1002A00005C0DBFF0A0EDB50E76E030EE7CFDBFF76
:1002B000060EDBCF06F0070EDBCF07F0080EDBCF14
:1002C00008F0090EDBCF09F00A0E0B6E0C6A0D6AFE
:1002D0000E6AFFEC1BF0060E06C0DBFF070E07C020
:1002E000DBFF080E08C0DBFF090E09C0DBFF060EAE
:1002F000DBCF06F0070EDBCF07F0080EDBCF08F0F0
:10030000090EDBCF09F00A0E0B6E0C6A0D6A0E6A3D
:10031000FFEC1BF00A0E02C0DBFF0B0E03C0DBFF7D
:100320000C0E04C0DBFF0D0E05C0DBFF0A0EDB5018
:10033000E76E020EE7CFDBFF060EDBCF06F0070EFF
:10034000DBCF07F0080EDBCF08F0090EDBCF09F09A
:100350000A0E0B6E0C6A0D6A0E6AFFEC1BF0060E9D
:1003600006C0DBFF070E07C0DBFF080E08C0DBFF7F
:10037000090E09C0DBFF060EDBCF06F0070EDBCF50
:1003800007F0080EDBCF08F0090EDBCF09F00A0EEC
:100390000B6E0C6A0D6A0E6AFFEC1BF00A0E02C0AF
:1003A000DBFF0B0E03C0DBFF0C0E04C0DBFF0D0EEA
:1003B00005C0DBFF0A0EDB50E76E010EE7CFDBFF67
:1003C000060EDBCF06F0070EDBCF07F0080EDBCF03
:1003D00008F0090EDBCF09F00A0E0B6E0C6A0D6AED
:1003E0000E6AFFEC1BF0060E06C0DBFF070E07C00F
:1003F000DBFF080E08C0DBFF090E09C0DBFF060E9D
:10040000DB50DF6E050EDB6AF36EDBCFF4FFF350DB
:10041000F45C21E2D9CF14F0DACF15F0050EDB50F1
:100420000F011424E96E000E1520EA6EEF50E66EFF
:10043000050EDB50E76EFB0EDBCFE9FFFC0EDBCFDA
:10044000EAFFE750E926000EEA22E552E750EF6E98
:10045000050EDB2AD9D70E0EE15C02E2E16AE55215
:10046000E16EE552E7CFD9FF1200D9CFE6FFE1CF29
:10047000D9FF080EE1260A0E146E14C00EF0FE0E0F
:10048000DBCF09F0BBEC1CF00550E66ED950060F2F
:10049000E96EDACFEAFFE552E750EE6EED6A060E3E
:1004A000DB50E76E020EE7CFDBFF0A0E146E14C0BE
:1004B0000EF0FE0EDBCF09F0BBEC1CF00950E66E2F
:1004C000D950040FE96EDACFEAFFE552E750EE6E3D
:1004D000ED6A040EDBCF14F0050EDBCF15F00A0E2B
:1004E0000D6E0E6A14C008F015C009F077EC1CF010
:1004F00004C014F005C015F0060E14C0DBFF070E93
:1005000015C0DBFF060EDB50E76E010EE7CFDBFF09
:100510000A0E146E156A040EDBCF08F0050EDBCF51
:1005200009F014C00DF015C00EF077EC1CF0040EAD
:1005300008C0DBFF050E09C0DBFF040EDB50DF6ED9
:10054000030EDB6AF36EDBCFF4FFF350F45C21E2C1
:10055000D9CF14F0DACF15F0030EDB500F011424BD
:10056000E96E000E1520EA6EEF50E66E030EDB50CA
:10057000E76EFC0EDBCFE9FFFD0EDBCFEAFFE750B5
:10058000E926000EEA22E552E750EF6E030EDB2A61
:10059000D9D7080EE15C02E2E16AE552E16EE5526C
:1005A000E7CFD9FF1200D9CFE6FFE1CFD9FF130E75
:1005B000E126FB0EDBCF06F0FC0EDBCF07F0FD0ED5
:1005C000DBCF08F0FE0EDBCF09F00A0E0B6E0C6AD3
:1005D0000D6A0E6AFFEC1BF00F0E02C0DBFF100E5F
:1005E00003C0DBFF110E04C0DBFF120E05C0DBFFF2
:1005F0000F0EDB50E76E090EE7CFDBFFFB0EDBCF04
:1006000006F0FC0EDBCF07F0FD0EDBCF08F0FE0E90
:10061000DBCF09F00A0E0B6E0C6A0D6A0E6AFFEC56
:100620001BF00B0E06C0DBFF0C0E07C0DBFF0D0E30
:1006300008C0DBFF0E0E09C0DBFF0B0EDBCF06F0A0
:100640000C0EDBCF07F00D0EDBCF08F00E0EDBCF6C
:1006500009F00A0E0B6E0C6A0D6A0E6AFFEC1BF0B5
:100660000F0E02C0DBFF100E03C0DBFF110E04C033
:10067000DBFF120E05C0DBFF0F0EDB50E76E080E2E
:10068000E7CFDBFF0B0EDBCF06F00C0EDBCF07F066
:100690000D0EDBCF08F00E0EDBCF09F00A0E0B6E4D
:1006A0000C6A0D6A0E6AFFEC1BF00B0E06C0DBFF36
:1006B0000C0E07C0DBFF0D0E08C0DBFF0E0E09C0DD
:1006C000DBFF0B0EDBCF06F00C0EDBCF07F00D0EC1
:1006D000DBCF08F00E0EDBCF09F00A0E0B6E0C6AB2
:1006E0000D6A0E6AFFEC1BF00F0E02C0DBFF100E4E
:1006F00003C0DBFF110E04C0DBFF120E05C0DBFFE1
:100700000F0EDB50E76E070EE7CFDBFF0B0EDBCFE4
:1007100006F00C0EDBCF07F00D0EDBCF08F00E0E4F
:10072000DBCF09F00A0E0B6E0C6A0D6A0E6AFFEC45
:100730001BF00B0E06C0DBFF0C0E07C0DBFF0D0E1F
:1007400008C0DBFF0E0E09C0DBFF0B0EDBCF06F08F
:100750000C0EDBCF07F00D0EDBCF08F00E0EDBCF5B
:1007600009F00A0E0B6E0C6A0D6A0E6AFFEC1BF0A4
:100770000F0E02C0DBFF100E03C0DBFF110E04C022
:10078000DBFF120E05C0DBFF0F0EDB50E76E060E1F
:10079000E7CFDBFF0B0EDBCF06F00C0EDBCF07F055
:1007A0000D0EDBCF08F00E0EDBCF09F00A0E0B6E3C
:1007B0000C6A0D6A0E6AFFEC1BF00B0E06C0DBFF25
:1007C0000C0E07C0DBFF0D0E08C0DBFF0E0E09C0CC
:1007D000DBFF0B0EDBCF06F00C0EDBCF07F00D0EB0
:1007E000DBCF08F00E0EDBCF09F00A0E0B6E0C6AA1
:1007F0000D6A0E6AFFEC1BF00F0E02C0DBFF100E3D
:1008000003C0DBFF110E04C0DBFF120E05C0DBFFCF
:100810000F0EDB50E76E050EE7CFDBFF0B0EDBCFD5
:1008200006F00C0EDBCF07F00D0EDBCF08F00E0E3E
:10083000DBCF09F00A0E0B6E0C6A0D6A0E6AFFEC34
:100840001BF00B0E06C0DBFF0C0E07C0DBFF0D0E0E
:1008500008C0DBFF0E0E09C0DBFF0B0EDBCF06F07E
:100860000C0EDBCF07F00D0EDBCF08F00E0EDBCF4A
:1008700009F00A0E0B6E0C6A0D6A0E6AFFEC1BF093
:100880000F0E02C0DBFF100E03C0DBFF110E04C011
:10089000DBFF120E05C0DBFF0F0EDB50E76E040E10
:1008A000E7CFDBFF0B0EDBCF06F00C0EDBCF07F044
:1008B0000D0EDBCF08F00E0EDBCF09F00A0E0B6E2B
:1008C0000C6A0D6A0E6AFFEC1BF00B0E06C0DBFF14
:1008D0000C0E07C0DBFF0D0E08C0DBFF0E0E09C0BB
:1008E000DBFF0B0EDBCF06F00C0EDBCF07F00D0E9F
:1008F000DBCF08F00E0EDBCF09F00A0E0B6E0C6A90
:100900000D6A0E6AFFEC1BF00F0E02C0DBFF100E2B
:1009100003C0DBFF110E04C0DBFF120E05C0DBFFBE
:100920000F0EDB50E76E030EE7CFDBFF0B0EDBCFC6
:1009300006F00C0EDBCF07F00D0EDBCF08F00E0E2D
:10094000DBCF09F00A0E0B6E0C6A0D6A0E6AFFEC23
:100950001BF00B0E06C0DBFF0C0E07C0DBFF0D0EFD
:1009600008C0DBFF0E0E09C0DBFF0B0EDBCF06F06D
:100970000C0EDBCF07F00D0EDBCF08F00E0EDBCF39
:1009800009F00A0E0B6E0C6A0D6A0E6AFFEC1BF082
:100990000F0E02C0DBFF100E03C0DBFF110E04C000
:1009A000DBFF120E05C0DBFF0F0EDB50E76E020E01
:1009B000E7CFDBFF0B0EDBCF06F00C0EDBCF07F033
:1009C0000D0EDBCF08F00E0EDBCF09F00A0E0B6E1A
:1009D0000C6A0D6A0E6AFFEC1BF00B0E06C0DBFF03
:1009E0000C0E07C0DBFF0D0E08C0DBFF0E0E09C0AA
:1009F000DBFF0B0EDBCF06F00C0EDBCF07F00D0E8E
:100A0000DBCF08F00E0EDBCF09F00A0E0B6E0C6A7E
:100A10000D6A0E6AFFEC1BF00F0E02C0DBFF100E1A
:100A200003C0DBFF110E04C0DBFF120E05C0DBFFAD
:100A30000F0EDB50E76E010EE7CFDBFF0B0EDBCFB7
:100A400006F00C0EDBCF07F00D0EDBCF08F00E0E1C
:100A5000DBCF09F00A0E0B6E0C6A0D6A0E6AFFEC12
:100A60001BF00B0E06C0DBFF0C0E07C0DBFF0D0EEC
:100A700008C0DBFF0E0E09C0DBFF0B0EDB50DF6E84
:100A80000A0EDB6AF36EDBCFF4FFF350F45C22E274
:100A9000D9CF14F0DACF15F00A0EDB500F01142471
:100AA000E96E000E1520EA6EEF503009E66E0A0E70
:100AB000DB50E76EF90EDBCFE9FFFA0EDBCFEAFF82
:100AC000E750E926000EEA22E552E750EF6E0A0EE3
:100AD000DB2AD8D7130EE15C02E2E16AE552E16E4F
:100AE000E552E7CFD9FF1200D9CFE6FFE1CFD9FF1A
:100AF000FE0EDB50F00BE83A060DFE0EDBCFE7FFF3
:100B0000F350E75EFE0EE7CFDBFFDB5000D0E5528F
:100B1000E7CFD9FF1200D9CFE6FFE1CFD9FF0A0E08
:100B2000146E14C00EF0FE0EDBCF09F0BBEC1CF00F
:100B30000950060DFE0EDBCFE7FFF350E726FE0E51
:100B4000E7CFDBFFDB50146E156A14C0F3FF15C04E
:100B5000F4FF00D0E552E7CFD9FF1200D9CFE6FF6E
:100B6000E1CFD9FF060EE126F36EFC0EDBCFF4FFDA
:100B7000F350F45C71E2020EDB6A030EDB6A040ED2
:100B8000DB6A050EDB6ADF6AFC0EDB50DF5C58E2D5
:100B9000FC0EDBCFE6FFDF28E552E75CE76E010ED7
:100BA000E7CFDBFFF36E040EF3CFDBFF050EDB6A4E
:100BB000010EDB50000814E20A0E086E096A040EEA
:100BC000DBCF0DF0050EDBCF0EF062EC1AF0040E59
:100BD00006C0DBFF050E07C0DBFF010EDB06E8D712
:100BE000020EDBCF16F0030EDBCF17F0DF50E76EFF
:100BF000FD0EDBCFE9FFFE0EDBCFEAFFE750E92673
:100C0000000EEA22EF500F0B186E196A040EDBCFAC
:100C100008F0050EDBCF09F018C00DF019C00EF07A
:100C200062EC1AF016500624146E17500720156E49
:100C3000020E14C0DBFF030E15C0DBFFDF2AA4D7B2
:100C4000020EDBCF14F0030EDBCF15F014C0F3FF60
:100C500015C0F4FF04D003D0F36AF46A00D0060E86
:100C6000E15C02E2E16AE552E16EE552E7CFD9FFCD
:020C7000120070
:0E0C7200D9CFE6FFE1CFD9FFFE0EDB04E96E1D
:100C8000EA6AD890E936EA36010EE9260F0EEA2222
:100C9000EECF14F0EFCF15F014C0F3FF15C0F4FF42
:100CA00000D0E552E7CFD9FF1200D9CFE6FFE1CF60
:100CB000D9FFFE0EDBCFE6FFE66A57EC00F0E55207
:100CC000E552FF0FE96EEA6AD890E936EA360F0E70
:100CD000E9260F0EEA22EECF14F0EFCF15F014C084
:100CE000F3FF15C0F4FF00D0E552E7CFD9FF1200A3
:100CF000D9CFE6FFE1CFD9FFA8EC17F0D00EE66E12
:100D0000ECEC17F0E552E66AECEC17F0E552A8ECD3
:100D100017F0D10EE66EECEC17F0E552010EE66E20
:100D200033EC18F0E552E66EFD0EDBCFE9FFFE0E68
:100D3000DBCFEAFFE552E750EF6E010EE66E33ECD3
:100D400018F0E552E66E010EE76EFD0EDBCFE9FF0F
:100D5000FE0EDBCFEAFFE750E926000EEA22E5525D
:100D6000E750EF6E010EE66E33EC18F0E552E66EDA
:100D7000020EE76EFD0EDBCFE9FFFE0EDBCFEAFFD2
:100D8000E750E926000EEA22E552E750EF6E010E29
:100D9000E66E33EC18F0E552E66E030EE76EFD0EDC
:100DA000DBCFE9FFFE0EDBCFEAFFE750E926000EBE
:100DB000EA22E552E750EF6E010EE66E33EC18F0D2
:100DC000E552E66E040EE76EFD0EDBCFE9FFFE0E88
:100DD000DBCFEAFFE750E926000EEA22E552E750B2
:100DE000EF6E010EE66E33EC18F0E552E66E050E7E
:100DF000E76EFD0EDBCFE9FFFE0EDBCFEAFFE7502B
:100E0000E926000EEA22E552E750EF6EE66A33EC7F
:100E100018F0E552E66E060EE76EFD0EDBCFE9FF39
:100E2000FE0EDBCFEAFFE750E926000EEA22E5528C
:100E3000E750EF6EBEEC17F0E552E7CFD9FF120096
:100E4000D9CFE6FFE1CFD9FFA8EC17F0D00EE66EC0
:100E5000ECEC17F0E552E66AECEC17F0E552FD0E0B
:100E6000DBCFE9FFFE0EDBCFEAFFEF50E66EECECE6
:100E700017F0E552010EE76EFD0EDBCFE9FFFE0E27
:100E8000DBCFEAFFE750E926000EEA22EF50E66EDC
:100E9000ECEC17F0E552020EE76EFD0EDBCFE9FF3A
:100EA000FE0EDBCFEAFFE750E926000EEA22EF5004
:100EB000E66EECEC17F0E552030EE76EFD0EDBCFAD
:100EC000E9FFFE0EDBCFEAFFE750E926000EEA223B
:100ED000EF50E66EECEC17F0E552040EE76EFD0EF7
:100EE000DBCFE9FFFE0EDBCFEAFFE750E926000E7D
:100EF000EA22EF50E66EECEC17F0E552050EE76ED5
:100F0000FD0EDBCFE9FFFE0EDBCFEAFFE750E9265F
:100F1000000EEA22EF50E66EECEC17F0E552060EFA
:100F2000E76EFD0EDBCFE9FFFE0EDBCFEAFFE750F9
:100F3000E926000EEA22EF50E66EECEC17F0E552DF
:100F4000BEEC17F0E552E7CFD9FF1200D9CFE6FF8C
:100F5000E1CFD9FFFD0EDB041DE1FE0EDB504009A1
:100F6000E76EFE0EE7CFDBFFFC0EDB0408E1FE0EB2
:100F7000DB502009E76EFE0EE7CFDBFF0AD0FC0E48
:100F8000DB5007E1FE0EDB50DF0BE76EFE0EE7CF16
:100F9000DBFF0AD0FD0EDB5007E1FE0EDB50BF0B7E
:100FA000E76EFE0EE7CFDBFFFE0EDB5000D0E55212
:100FB000E7CFD9FF1200D9CFE6FFE1CFD9FFFD0E71
:100FC000DBCFE9FFFE0EDBCFEAFFEE52EF50E66E1D
:100FD000FB0EDBCFE9FFFC0EDBCFEAFFEE52E55262
:100FE000E750EF6EFD0EDBCFE9FFFE0EDBCFEAFF31
:100FF000EF50E66EFB0EDBCFE9FFFC0EDBCFEAFF26
:10100000E552E750EF6EFD0EDBCFE9FFFE0EDBCFC2
:10101000EAFF020EE926000EEA22EFCF14F00C0ED2
:10102000145C42E3FD0EDBCFE9FFFE0EDBCFEAFFEF
:10103000020EE926000EEA22EF50F40FE66EFB0ED8
:10104000DBCFE9FFFC0EDBCFEAFF020EE926000E44
:10105000EA22E552E750EF6EFB0EDBCFE9FFFC0E14
:10106000DBCFEAFF070EE926000EEA22010EEF6E43
:101070000C0E146EFD0EDBCFE9FFFE0EDBCFEAFF98
:10108000020EE926000EEA22EF50145C0CE1FB0E82
:10109000DBCFE9FFFC0EDBCFEAFF020EE926000EF4
:1010A000EA220C0EEF6E4BD0FD0EDBCFE9FFFE0EF9
:1010B000DBCFEAFF020EE926000EEA22EFCF14F0A2
:1010C0000C0E145C3CE2FD0EDBCFE9FFFE0EDBCF25
:1010D000EAFF020EE926000EEA22EF50E66EFB0E52
:1010E000DBCFE9FFFC0EDBCFEAFF020EE926000EA4
:1010F000EA22E552E750EF6EFB0EDBCFE9FFFC0E74
:10110000DBCFEAFF070EE926000EEA22EF6AFD0EAA
:10111000DBCFE9FFFE0EDBCFEAFF020EE926000E71
:10112000EA22EF500CE1FB0EDBCFE9FFFC0EDBCF38
:10113000EAFF020EE926000EEA220C0EEF6EE552DF
:10114000E7CFD9FF1200D9CFE6FFE1CFD9FFFD0EDF
:10115000DBCFE9FFFE0EDBCFEAFFEE52EF50E66E8B
:10116000FB0EDBCFE9FFFC0EDBCFEAFFEE52E552D0
:10117000E750EF6EFD0EDBCFE9FFFE0EDBCFEAFF9F
:10118000EF50E66EFB0EDBCFE9FFFC0EDBCFEAFF94
:10119000E552E750EF6EFD0EDBCFE9FFFE0EDBCF31
:1011A000EAFF070EE926000EEA22EF0436E1FD0E03
:1011B000DBCFE9FFFE0EDBCFEAFF020EE926000ED1
:1011C000EA22EF500C0FE66EFB0EDBCFE9FFFC0EC0
:1011D000DBCFEAFF020EE926000EEA22E552E750D5
:1011E000EF6E0C0E146EFD0EDBCFE9FFFE0EDBCFB3
:1011F000EAFF020EE926000EEA22EF50145C0CE131
:10120000FB0EDBCFE9FFFC0EDBCFEAFF020EE92687
:10121000000EEA220C0EEF6E3FD0FD0EDBCFE9FF91
:10122000FE0EDBCFEAFF070EE926000EEA22EF50A2
:1012300033E1FD0EDBCFE9FFFE0EDBCFEAFF020E4E
:10124000E926000EEA22EF50E66EFB0EDBCFE9FF47
:10125000FC0EDBCFEAFF020EE926000EEA22E55281
:10126000E750EF6E0C0E146EFD0EDBCFE9FFFE0EA5
:10127000DBCFEAFF020EE926000EEA22EF50145CF3
:101280000BE1FB0EDBCFE9FFFC0EDBCFEAFF020E2A
:10129000E926000EEA22EF6AE552E7CFD9FF1200F5
:1012A000D9CFE6FFE1CFD9FFE652DF6AFD0EDB04BE
:1012B0000DE1FE0EDB500C0FDF6E0C0E146EFE0EF9
:1012C000DB50145C02E10C0EDF6E16D0FD0EDB501D
:1012D0000BE1FE0EDB50DF6E0C0E146EFE0EDB50CB
:1012E000145C01E1DF6A08D0AA0E146EFD0EDB501B
:1012F000145C02E1AA0EDF6EDF5000D0E552E55229
:10130000E7CFD9FF1200D9CFE6FFE1CFD9FFA8EC94
:1013100017F0D00EE66EECEC17F0E552E66AECEC56
:1013200017F0E552050EE76EFD0EDBCFE9FFFE0E6E
:10133000DBCFEAFFE750E926000EEA22EF500F0B61
:10134000146E040EE76EFD0EDBCFE9FFFE0EDBCF61
:10135000EAFFE750E926000EEA22EF500F0B100DCE
:10136000F3501410E66EECEC17F0E552030EE76E46
:10137000FD0EDBCFE9FFFE0EDBCFEAFFE750E926EB
:10138000000EEA22EF500F0B146E020EE76EFD0EF8
:10139000DBCFE9FFFE0EDBCFEAFFE750E926000EC8
:1013A000EA22EF500F0B100DF3501410E66EECEC28
:1013B00017F0E552010EE76EFD0EDBCFE9FFFE0EE2
:1013C000DBCFEAFFE750E926000EEA22EF500F0BD1
:1013D000146EFD0EDBCFE9FFFE0EDBCFEAFFEF5010
:1013E0000F0B100DF3501410E66EECEC17F0E552F5
:1013F000BEEC17F0E552E7CFD9FF1200D9CFE6FFD8
:10140000E1CFD9FFA8EC17F0D00EE66EECEC17F0A8
:10141000E552040EE66EECEC17F0E552010EE76EB5
:10142000FD0EDBCFE9FFFE0EDBCFEAFFE750E9263A
:10143000000EEA22EF500F0B146EFD0EDBCFE9FF1A
:10144000FE0EDBCFEAFFEF500F0B100DF350141020
:10145000E66EECEC17F0E552030EE76EFD0EDBCF07
:10146000E9FFFE0EDBCFEAFFE750E926000EEA2295
:10147000EF500F0B146E020EE76EFD0EDBCFE9FF8F
:10148000FE0EDBCFEAFFE750E926000EEA22EF501E
:101490000F0B100DF3501410E66EECEC17F0E55244
:1014A000050EE76EFD0EDBCFE9FFFE0EDBCFEAFF98
:1014B000E750E926000EEA22EF500F0B146E040EDF
:1014C000E76EFD0EDBCFE9FFFE0EDBCFEAFFE75054
:1014D000E926000EEA22EF500F0B100DF350141006
:1014E000E66EECEC17F0E552BEEC17F0E552E7CFF4
:1014F000D9FF1200D9CFE6FFE1CFD9FFA8EC17F052
:10150000D00EE66EECEC17F0E552030EE66EECEC56
:1015100017F0E552FE0EDBCFE6FFECEC17F0E552DC
:10152000BEEC17F0E552E7CFD9FF1200D9CFE6FFA6
:10153000E1CFD9FFE652E66AD00EE66E84EC18F0F1
:10154000E552E552DF6E7F0EDF14DF6EDFCFE6FF80
:10155000E66AD00EE66EA6EC18F0E552E552E552CA
:10156000900EE66E070EE66ED00EE66EA6EC18F054
:10157000E552E552E552E552E552E7CFD9FF1200B8
:101580002F0EE66E0F0EE66E78EC06F0E552E55291
:101590000F0127510F012F5D05E02FCF27FF0F010E
:0615A000010E006F1200B5
:0A15A600080EE66EC6EC12F0E552E6
:1015B000E66AF8DAE5520C0EE66EC1EC11F0E5527F
:1015C000CFDAC1EF0DF0D9CFE6FFE1CFD9FF060E9C
:1015D000E126DF68D950020FE66E000EDA20E66ED3
:1015E000D950030FE66E000EDA20E66EB4EC16F06A
:1015F000E552E552E552E552000901E196D1020EAD
:10160000DBCFE6FF030EDBCFE6FF99D9E552E552CB
:10161000DF6EFF0EDF5C01E188D10D010051040A8D
:1016200001E111D1070A01E1CFD0010A01E188D01F
:10163000030A2AE0010A01E078D12A0EDF5C0AE100
:101640001651162BEA6A0C0FE96E0D0EEA222A0ECD
:10165000EF6E0CD0230EDF5C09E11651162BEA6AFF
:101660000C0FE96E0D0EEA22230EEF6E010EE66EF0
:1016700099DAE5520F0EE66EC1EC11F0E55270DA20
:101680000D01010E006F51D1080EDF5C0DE1E66A1D
:1016900089DAE5520C0EE66EC1EC11F0E55260DA23
:1016A00070DA0D01006B4BD00C0EDF5C39E1050EDA
:1016B000DB6A0B51EA6A010FE96E0D0EEA22EF6A4E
:1016C000010EE66E0D0EE66E12EC10F0E552E552DC
:1016D000E76E050EE7CFDBFFDB041AE12A0E0D01F2
:1016E0000C5D09E1040EE66E5DDAE55239DA0D01B2
:1016F000040E006F0CD0230E0C6F0C5108E0020E8C
:10170000E66E50DAE5522CDA0D01020E006F07D0BA
:10171000E66A48DAE55224DA34DA0D01006B0FD0BC
:101720000B51EA6A010FE96E0D0EEA22DFCFEFFFDF
:101730002A0EE66ED8EC12F0E5520D010B2BF5D017
:10174000080EDF5C13E10B51000808E2DFCFE6FF73
:10175000D8EC12F0E5520D010B0707D0E66A22DA49
:10176000E552FED90EDA0D01006B2DD00C0EDF5CB8
:101770000CE10B51000808E2030EE66E13DAE552A5
:10178000EFD90D01030E006F1ED00B51EA6A010F55
:10179000E96E0D0EEA22DFCFEFFF0B51EA6A010F6F
:1017A000E96E0D0EEA22EF50E66ED8EC12F0E5522B
:1017B0000D011651162BEA6A0C0FE96E0D0EEA2286
:1017C000DFCFEFFF0B2BB1D0080EDF5C16E10B5122
:1017D000000808E2DFCFE6FFD8EC12F0E5520D0179
:1017E0000B070AD0020EE66EDDD9E552B9D90D011C
:1017F000010E166F020E006F25D00C0EDF5C0DE19E
:101800000B51000809E262D9040EE66ECBD9E5520D
:10181000A7D90D01040E006F15D00B51EA6A010F14
:10182000E96E0D0EEA22DFCFEFFF0B51EA6A010FDE
:10183000E96E0D0EEA22EF50E66ED8EC12F0E5529A
:101840000D010B2B72D0080EDF5C29E10B51000853
:1018500008E2DFCFE6FFD8EC12F0E5520D010B07EE
:101860001DD02A0E0C5D0DE1E66A9CD9E5520C0EE6
:10187000E66EC1EC11F0E55273D983D90D01006B0E
:101880000DD0230E0C5D0AE1030EE66E8BD9E552F6
:1018900067D90D01020E166F030E006F45D00C0EB6
:1018A000DF5C24E12A0E0C5D09E1010EE66E0D0EEF
:1018B000E66E13EC11F0E552E5520BD0230E0C5DF1
:1018C00008E10C0EE66E0D0EE66E30EC10F0E552FF
:1018D000E552E66A67D9E5520C0EE66EC1EC11F0EE
:1018E000E5523ED94ED90D01006B1ED00B51EA6A6C
:1018F000010FE96E0D0EEA22DFCFEFFF1651162B16
:10190000EA6A0C0FE96E0D0EEA22DFCFEFFF0B51F2
:10191000EA6A010FE96E0D0EEA22EF50E66ED8EC8E
:1019200012F0E5520D010B2B00D0060EE15C02E235
:10193000E16AE552E16EE552E7CFD9FF1200D9CF57
:10194000E6FFE1CFD9FFE652DF680D010051040A3E
:1019500001E18AD0070A60E0010A3AE0030A15E0D3
:10196000010A01E0ACD0FE0EDB50F76AD30FF66E31
:10197000390EF7220800F550DF6E2A0EDF5C04E016
:10198000230EDF5C01E0DF689AD0FE0EDB50F76AC1
:10199000D30FF66E390EF7220800F550DF6E050EF4
:1019A0000B5D08E3080EDF5C04E00C0EDF5C01E079
:1019B000DF680DD02A0EDF5C09E0230EDF5C06E055
:1019C0000A0EDF5C03E00B0EDF5C01E1DF6877D01D
:1019D000FE0EDB50F76AD30FF66E390EF7220800C1
:1019E000F550DF6E0B51010802E2DF6814D00B05E1
:1019F00008E1080EDF5C04E00C0EDF5C01E0DF684C
:101A00000AD0080EDF5C07E0310EDF5C04E0320E26
:101A1000DF5C01E0DF6853D0FE0EDB50F76AD30FC6
:101A2000F66E390EF7220800F550DF6E0B510208F2
:101A300002E2DF6818D0020E0B5D08E1080EDF5CE1
:101A400004E00C0EDF5C01E0DF680DD02A0EDF5CE5
:101A500009E0230EDF5C06E00A0EDF5C03E00B0EFC
:101A6000DF5C01E1DF682BD0FE0EDB50F76AD30F9D
:101A7000F66E390EF7220800F550DF6E0B510408A0
:101A800002E2DF681BD0040E0B5D08E1080EDF5C8C
:101A900004E00C0EDF5C01E0DF6810D02A0EDF5C92
:101AA0000CE0230EDF5C09E00A0EDF5C06E00B0EA3
:101AB000DF5C03E00C0EDF5C01E1DF6800D0DF508B
:101AC00000D0E552E552E7CFD9FF1200D9CFE6FFAB
:101AD000E1CFD9FF020EE126010EDB6A0D010B05F5
:101AE00013E11651EA6A0C0FE96E0D0EEA22300E70
:101AF000EF6E162B1651EA6A0C0FE96E0D0EEA22F4
:101B000001CDEFFF162B12D01651EA6A0C0FE96EC9
:101B10000D0EEA2201CDEFFF162B1651EA6A0C0FCB
:101B2000E96E0D0EEA2202CDEFFF162B300E0D5D91
:101B3000146E300E0C5D0A0DF3501424E76E010E86
:101B4000E7CFDBFFDB50146E020EE15C03E200D056
:101B5000E16AE552E16E1450E552E7CFD9FF120079
:101B60000A0EE66EE66AE66A010EE66E0D0EE66E97
:101B70009BEC1BF0146E050EE15E14500D010B6B17
:101B800012000A0EE66EE66AE66A0C0EE66E0D0EAE
:101B9000E66E9BEC1BF0146E050EE15E14500D0119
:101BA000166B1200D9CFE6FFE1CFD9FF030EE12675
:101BB000FE0EEA6ADB34FE0BEA36E96E8F0EE9268A
:101BC0000D0EEA22010EEECFDBFF020EEDCFDBFFA2
:101BD000D1EC12F0DF6ADF50E76E010EDBCFF6FFCB
:101BE000020EDBCFF7FFE750F626000EF7220800C3
:101BF000F55014E0DF50E76E010EDBCFF6FF020E6A
:101C0000DBCFF7FFE750F626000EF7220800F5506D
:101C1000E66ED8EC12F0E552DF2ADDD7030EE15C68
:101C200002E2E16AE552E16EE552E7CFD9FF120028
:101C3000D9CFE6FFE1CFD9FF030EE126FE0EEA6A17
:101C4000DB34FE0BEA36E96E8F0EE9260D0EEA2232
:101C5000010EEECFDBFF020EEDCFDBFFDF6ADF50C0
:101C6000E76E010EDBCFF6FF020EDBCFF7FFE7508A
:101C7000F626000EF7220800F55014E0DF50E76E5C
:101C8000010EDBCFF6FF020EDBCFF7FFE750F626A3
:101C9000000EF7220800F550E66ED8EC12F0E5527F
:101CA000DF2ADDD7030EE15C02E2E16AE552E16E74
:081CB000E552E7CFD9FF120055
:081CB8000101310E1F6F300E17
:101CC000206F216F330E226F236B8090809280945F
:101CD00080961200D9CFE6FFE1CFD9FFE652780E09
:101CE000E66E0D0EE66E78EC06F0E552E5520D015B
:101CF0007A51166E176A100E1702F3CF17F00E0EF8
:101D00001602F3501726100E1602F3CF16F0F450F9
:101D100017263C0E7903F35000011624146E000EB2
:101D20001720156E0D01785101011424246F000E47
:101D30001520256F266B25BF2669E66A9DEC15F0F8
:101D4000E552010804E18090809280948096DF6AD9
:101D5000100EDF5C01E3AED0DF50EA6A270FE96EB8
:101D6000010EEA22EF5001E0A2D0DF50030DF3CFC5
:101D7000F6FFF4CFF7FF300EF626360EF7220900F5
:101D8000F5CF14F00900F5CF15F00800F5CF16F0E7
:101D9000B40E145E000E155A165A14500101245D3B
:101DA00015502559165026591AE3DF50030DF3CF6D
:101DB000F6FFF4CFF7FF300EF626360EF7220900B5
:101DC000F550245D0900F55025590900F5502659B4
:101DD00006E280808092809480966CD067D0DF503D
:101DE000030DF3CFF6FFF4CFF7FF300EF626360ED5
:101DF000F7220900F550245D0900F5502559090026
:101E0000F550265926E3DF50030DF3CFF6FFF4CF4C
:101E1000F7FF300EF626360EF7220900F5CF14F044
:101E20000900F5CF15F00800F5CF16F0580E14266E
:101E3000020E1522000E16221450245D155025594D
:101E40001650265906E2809080828094809632D087
:101E50002DD0DF50030DF3CFF6FFF4CFF7FF300E98
:101E6000F626360EF7220900F5CF14F00900F5CF5B
:101E700015F00800F5CF16F0580E1426020E1522A4
:101E8000000E16221450245D15502559165026595F
:101E90000DE38090809280848086DF50EA6A270F6D
:101EA000E96E010EEA22010EEF6E04D001D000D0DF
:101EB000DF2A4ED7DF6A060EDF5C01E3AED0DF50CB
:101EC000EA6A3D0FE96E010EEA22EF5001E0A2D06E
:101ED000DF50030DF3CFF6FFF4CFF7FF720EF626B7
:101EE000360EF7220900F5CF14F00900F5CF15F0F2
:101EF0000800F5CF16F0B40E145E000E155A165AEF
:101F000014500101245D15502559165026591AE325
:101F1000DF50030DF3CFF6FFF4CFF7FF720EF62676
:101F2000360EF7220900F550245D0900F5502559B9
:101F30000900F550265906E28080809280948096B0
:101F40006CD067D0DF50030DF3CFF6FFF4CFF7FF6F
:101F5000720EF626360EF7220900F550245D0900B0
:101F6000F55025590900F550265926E3DF50030D99
:101F7000F3CFF6FFF4CFF7FF720EF626360EF722F8
:101F80000900F5CF14F00900F5CF15F00800F5CFE2
:101F900016F0580E1426020E1522000E16221450AA
:101FA000245D155025591650265906E280908082EE
:101FB0008094809632D02DD0DF50030DF3CFF6FF02
:101FC000F4CFF7FF720EF626360EF7220900F5CF92
:101FD00014F00900F5CF15F00800F5CF16F0580EF3
:101FE0001426020E1522000E16221450245D1550E0
:101FF0002559165026590DE3809080928084808662
:10200000DF50EA6A3D0FE96E010EEA22010EEF6E23
:1020100004D001D000D0DF2A4ED7E552E552E7CFF9
:10202000D9FF1200D9CFE6FFE1CFD9FFFD0EDBCFFC
:10203000E6FFFE0EDBCFE6FF1F0EE66E010EE66E3C
:10204000B5EC1BF0E552E552E552E552000902E01D
:10205000000E02D0010E00D0E552E7CFD9FF1200EA
:10206000D9CFE6FFE1CFD9FF070EE126010EE76EDB
:10207000FD0EDBCFE9FFFE0EDBCFEAFFE750E926DE
:10208000000EEA22050EEFCFDBFF030EE76EFD0E1A
:10209000DBCFE9FFFE0EDBCFEAFFE750E926000EBB
:1020A000EA22EF50D00F146E020EE76EFD0EDBCF6A
:1020B000E9FFFE0EDBCFEAFFE750E926000EEA2239
:1020C000EF50D00F0A0DF3501424E76E060EE7CF41
:1020D000DBFF050EE76EFD0EDBCFE9FFFE0EDBCF6B
:1020E000EAFFE750E926000EEA22EF50D00F176E04
:1020F000040EE76EFD0EDBCFE9FFFE0EDBCFEAFF3D
:10210000E750E926000EEA22EF50D00F0A0DF350F7
:102110001724146E156A166A100E0C6E0E0E0D6ED4
:102120000E6A14C007F015C008F016C009F080EC64
:102130001AF004C014F005C015F006C016F014C063
:10214000DFFF010E15C0DBFF020E16C0DBFF070E1E
:10215000E76EFD0EDBCFE9FFFE0EDBCFEAFFE750B7
:10216000E926000EEA22EF50D00F146E060EE76E3D
:10217000FD0EDBCFE9FFFE0EDBCFEAFFE750E926DD
:10218000000EEA22EF50D00F0A0DF35014243C0D3C
:10219000030EF3CFDBFF040EF4CFDBFF030EDBCF28
:1021A00017F0040EDBCF18F0196AD9CFE9FFDACFA8
:1021B000EAFFEE501724146EEE501820156EEE5004
:1021C0001920166E14C0DFFF010E15C0DBFF020ED2
:1021D00016C0DBFF050EDB50420DF3CF14F0F4CF39
:1021E00015F0300E1426360E1522060EDB50030DA8
:1021F0001450F324F66E1550F420F76EDFCFF5FF80
:102200000D00010EDBCFF5FF0D00020EDBCFF5FF59
:102210000D00070EE15C02E2E16AE552E16EE55273
:10222000E7CFD9FF1200D9CFE6FFE1CFD9FF0D01EB
:102230007E6B030EE76EFD0EDBCFE9FFFE0EDBCFFC
:10224000EAFFE750E926000EEA22EF50D00F146EA5
:10225000020EE76EFD0EDBCFE9FFFE0EDBCFEAFFDD
:10226000E750E926000EEA22EF50D00F100DF35090
:1022700014107F6F010EE76EFD0EDBCFE9FFFE0E3F
:10228000DBCFEAFFE750E926000EEA22EF50D00F3D
:10229000146EFD0EDBCFE9FFFE0EDBCFEAFFEF5041
:1022A000D00F100DF3501410806F7E0EE66E0D0EE1
:1022B000E66E20EC07F0E552E552E552E7CFD9FF94
:0222C00012000A
:0E22C200D9CFE6FFE1CFD9FF030EE126300EA3
:1022D000F36E010EF3CFDBFF750EF36E020EF3CF3C
:1022E000DBFF010EDF6EDF0425E105DA00000000F0
:1022F00083928384000000008386000000008350E6
:10230000800B01E0010EDF6E8396838600000000E3
:102310008396010EDB06020E01E2DB06D950010FA7
:10232000E96EDACFEAFFEE50ED1003E1ECD9FF0ED3
:1023300004D0D9D7E8D9000E00D0146E030EE15CAA
:1023400002E2E16AE552E16E1450E552E7CFD9FFAF
:102350001200D9CFE6FFE1CFD9FF8392839400002A
:10236000FE0EDB50F00B146E0F0E8C1414108C6EDE
:1023700000008386000000008396E552E7CFD9FF76
:102380001200D9CFE6FFE1CFD9FF9BDF8392839480
:102390000000FE0EDB50F00B146E0F0E8C141410A8
:1023A0008C6E00008386000000008396FE0EDB38F2
:1023B000F00BF00B146E0F0E8C1414108C6E0000CA
:1023C0008386000000008396E552E7CFD9FF120014
:1023D000D9CFE6FFE1CFD9FF74DF83828394000079
:1023E000FE0EDB50F00B146E0F0E8C1414108C6E5E
:1023F00000008386000000008396FE0EDB38F00BA1
:10240000F00B146E0F0E8C1414108C6E000083866B
:10241000000000008396E552E7CFD9FF1200D9CF24
:10242000E6FFE1CFD9FF0B0EE1266DD9280EF36E42
:10243000010EF3CFDBFF020EDB6A010EDBCF14F0DF
:10244000DB06020EDBCF15F001E2DB06145015109F
:1024500006E0040EE66E8DEC1CF0E552EED7300E71
:10246000E66E77DFE5520A0EF36E030EF3CFDBFF65
:10247000040EDB6A030EDBCF14F0DB06040EDBCFA9
:1024800015F001E2DB061450151006E0040EE66EAE
:102490008DEC1CF0E552EED7300EE66E5ADFE552B9
:1024A0000A0EF36E050EF3CFDBFF060EDB6A050E98
:1024B000DBCF14F0DB06060EDBCF15F001E2DB0606
:1024C0001450151006E0040EE66E8DEC1CF0E5527B
:1024D000EED7300EE66E3DDFE5520A0EF36E070EC4
:1024E000F3CFDBFF080EDB6A070EDBCF14F0DB0651
:1024F000080EDBCF15F001E2DB061450151006E0E4
:10250000040EE66E8DEC1CF0E552EED7200EE66E62
:1025100020DFE5520A0EF36E090EF3CFDBFF0A0E41
:10252000DB6A090EDBCF14F0DB060A0EDBCF15F0F9
:1025300001E2DB061450151006E0040EE66E8DEC89
:102540001CF0E552EED7280EE66E1BDFE552B9DE31
:10255000DF6EDF5010E10F0EE66E13DFE552010E65
:10256000E66E0FDFE552040EE66E0BDFE552060E57
:10257000E66E07DFE5520B0EE15C03E200D0E16A94
:10258000E552E16EE552E7CFD9FF1200D9CFE6FF61
:10259000E1CFD9FFFE0EDBCF01FEE552E7CFD9FF39
:1025A0001200010EE66EEDDEE5520E01006B120028
:1025B000D9CFE6FFE1CFD9FFE652FE0EDB500E0188
:1025C000015D23E1005101E137D0100E005D0EE105
:1025D000800EE66ED6DEE552DF6A100EDF5C06E2A4
:1025E000140EE66ECEDEE552DF2AF7D7100EE66E49
:1025F000C8DEE552200EE66EEBDEE552100EE66E0A
:10260000C0DEE5520E01000717D0100E005D05E197
:10261000C00EE66EB6DEE55208D0200E005D05E382
:10262000006B020EE66EADDEE552FE0EDBCFE6FF7E
:10263000CFDEE5520E01002BE552E552E7CFD9FF80
:102640001200EDDE010EE66E9CDEE5520E01006B1F
:102650001200D9CFE6FFE1CFD9FFE652010EE66EB8
:1026600090DEE552DF6A100EDF5C1CE2FD0EDBCF70
:10267000E9FFFE0EDBCFEAFFEF50E66EDF50EA6ABD
:10268000020FE96E0E0EEA22E552E750EF6EFD0EE4
:10269000DBCFE9FFDB2AFE0EDBCFEAFF01E3DB2A1B
:1026A000DF2AE1D7C00EE66E6CDEE552DF6A100E5F
:1026B000DF5C1CE2FD0EDBCFE9FFFE0EDBCFEAFFA5
:1026C000EF50E66EDF50EA6A020FE96E0E0EEA2264
:1026D000E552E750EF6EFD0EDBCFE9FFDB2AFE0E81
:1026E000DBCFEAFF01E3DB2ADF2AE1D7E552E5523F
:1026F000E7CFD9FF1200958E958C958A958895968F
:10270000959495921200959E959C959A959895967C
:0627100095949592120061
:0A271600DACFE4FFE2CFDAFFE9CFEB
:10272000E4FFEACFE4FFF6CFE4FFF7CFE4FFF5CF15
:10273000E4FFF3CFE4FFF4CFE4FFFACFE4FF00EED1
:1027400000F0140EE80403E3EECFE4FFFBD700EE45
:1027500014F0090EE80403E3EECFE4FFFBD7E652E2
:10276000F2940D016C2B000E6D236E236F23702BE2
:102770007123722B7323742B7523762B772362516D
:10278000631107E005D063CDFAFF0D016251F96EC8
:10279000FADF60CDE6FF61CDE6FF3FEC1CF0E552CD
:1027A000E552E55200EE1CF0090EE80403E3E5CF24
:1027B000EDFFFBD700EE13F0140EE80403E3E5CFC2
:1027C000EDFFFBD7E5CFFAFFE5CFF4FFE5CFF3FF51
:1027D000E5CFF5FFE5CFF7FFE5CFF6FFE5CFEAFF61
:1027E000E5CFE9FFE5CFDAFF1100DACFE4FFE2CF72
:1027F000DAFFE9CFE4FFEACFE4FFF6CFE4FFF7CF5B
:10280000E4FFF5CFE4FFF3CFE4FFF4CFE4FFFACF2A
:10281000E4FF00EE00F0140EE80403E3EECFE4FF63
:10282000FBD700EE14F0090EE80403E3EECFE4FF5B
:10283000FBD7E6529E9064CDE6FF65CDE6FF23EC24
:102840001CF0E552E5520D016651671107E005D015
:1028500067CDFAFF0D016651F96EFADFE55200EE21
:102860001CF0090EE80403E3E5CFEDFFFBD700EE13
:1028700013F0140EE80403E3E5CFEDFFFBD7E5CF3B
:10288000FAFFE5CFF4FFE5CFF3FFE5CFF5FFE5CFA6
:10289000F7FFE5CFF6FFE5CFEAFFE5CFE9FFE5CFAC
:1028A000DAFF1100DACFE4FFE2CFDAFFE9CFE4FF8D
:1028B000EACFE4FFF6CFE4FFF7CFE4FFF5CFE4FF84
:1028C000F3CFE4FFF4CFE4FFFACFE4FF00EE00F033
:1028D000140EE80403E3EECFE4FFFBD700EE14F0A0
:1028E000090EE80403E3EECFE4FFFBD7E6529E9225
:1028F00068CDBBFF0D016A516B1107E005D06BCDB0
:10290000FAFF0D016A51F96EFADFE55200EE1CF094
:10291000090EE80403E3E5CFEDFFFBD700EE13F06B
:10292000140EE80403E3E5CFEDFFFBD7E5CFFAFF94
:10293000E5CFF4FFE5CFF3FFE5CFF5FFE5CFF7FFF8
:10294000E5CFF6FFE5CFEAFFE5CFE9FFE5CFDAFF18
:102950001100D9CFE6FFE1CFD9FF9F0EE66E5BEC09
:102960001CF0E552FD0EDBCF60FDFE0EDBCF61FDFE
:10297000FB0EDBCF62FDFC0EDBCF63FDFD0EDBCF7C
:10298000E6FFFE0EDBCFE6FF3FEC1CF0E552E55222
:10299000E552E7CFD9FF1200D9CFE6FFE1CFD9FF4B
:1029A000020EE126830EDF6EDE52080EDD6E010E92
:1029B000DBCFE6FFDFCFE6FFD5EC1BF0E552E552BB
:1029C000FD0EDBCFE6FFFE0EDBCFE6FF23EC1CF0B7
:1029D000E552E5529F809D80010ECD6EFD0EDBCF4E
:1029E00064FDFE0EDBCF65FDFB0EDBCF66FDFC0E4E
:1029F000DBCF67FD020EE15C02E2E16AE552E16EC7
:102A0000E552E7CFD9FF1200D9CFE6FFE1CFD9FFDA
:102A10000F0EBA6E9F829D82FE0EDB50BB6EFE0EC5
:102A2000DB500D01686F696BFC0EDBCF6AFDFD0E9C
:0C2A3000DBCF6BFDE552E7CFD9FF1200B1
:042A3C00D9CFE6FF09
:102A4000E1CFD9FFE6528DD8DF6A010EDF5C09E2E3
:102A5000DF50EA6A990FE96E0D0EEA22EF6ADF2A6B
:102A6000F4D7E552E552E7CFD9FF1200D9CFE6FF00
:102A7000E1CFD9FF9BD8FC0EDBCFE6FFFD0EDBCF0D
:102A8000E6FFFE0EDBCFE6FF98D8E552E552E552B1
:102A9000E552E7CFD9FF1200D9CFE6FFE1CFD9FF4A
:102AA000E652FC0EDB50DF6EFB0EDB50D880DF54AD
:102AB0001AE37CD8DFCFE6FF176ADF34FE0B173648
:102AC000166EFD0EDB501624146EFE0EDB50172022
:102AD000156E14C0E6FF15C0E6FF6FD8E552E5524B
:102AE000E552DF2AE1D7E552E552E7CFD9FF1200E0
:102AF000D9CFE6FFE1CFD9FFE652DF6A57D8DF6AC8
:102B0000010EDF5C15E2DFCFE6FF156ADF34FE0B56
:102B10001536146E9A0E14260D0E152214C0E6FFFB
:102B200015C0E6FF4AD8E552E552E552DF2AE8D75C
:102B3000E552E552E7CFD9FF1200D9CFE6FFE1CF4A
:102B4000D9FFFE0EEA6ADB34FE0BEA36E96E9A0E16
:102B5000E9260D0EEA22EF5000D0E552E7CFD9FF6B
:102B60001200D9CFE6FFE1CFD9FFE652DF6A010EAE
:102B7000DF5C17E2EA6ADF34FE0BEA36E96E9A0E92
:102B8000E9260D0EEA22EF6AEA6ADF34FE0BEA3626
:102B9000E96E9A0EE9260D0EEA22EE52EF6ADF2A5E
:102BA000E6D7E552E552E7CFD9FF12008450020B79
:102BB00001E0010E0D01996F1200D9CFE6FFE1CFC0
:102BC000D9FFFD0EDBCFE9FFFE0EDBCFEAFFEF50B2
:102BD000010A3DE0010A01E074D0FC0EDB50EA6A14
:102BE000990FE96E0D0EEA22EF50010B27E1FD0E61
:102BF000DBCFE9FFFE0EDBCFEAFFEE52EF2AFD0E40
:102C0000DBCFE9FFFE0EDBCFEAFFEECF14F0EFCF14
:102C100015F0020E0001155C10E3FD0EDBCFE9FF9D
:102C2000FE0EDBCFEAFF010EEF6EFD0EDBCFE9FFFC
:102C3000FE0EDBCFEAFFEE52EF6A08D0FD0EDBCFCF
:102C4000E9FFFE0EDBCFEAFFEE52EF6A3AD0FC0E50
:102C5000DB50EA6A990FE96E0D0EEA22EF50010B84
:102C6000010826E1FD0EDBCFE9FFFE0EDBCFEAFF18
:102C7000EE52EF2AFD0EDBCFE9FFFE0EDBCFEAFFBF
:102C8000EECF14F0EFCF15F0020E0001155C0FE34C
:102C9000FD0EDBCFE9FFFE0EDBCFEAFFEF6AFD0E94
:102CA000DBCFE9FFFE0EDBCFEAFFEE52EF6A08D082
:102CB000FD0EDBCFE9FFFE0EDBCFEAFFEE52EF6A3F
:0A2CC00000D0E552E7CFD9FF120063
:062CCA000D015A6B5B6B6B
:102CD0002B6B2C6B2D6B2E692F6B1200D9CFE6FF5F
:102CE000E1CFD9FF020EE1260D015D2B000E5E2320
:102CF000D9CFE6FFDACFE6FF7ED8E552E5520009EC
:102D000001E128D00D015A515B5D02E15B6B5A6B0A
:102D10005B51E96EEA6AD890E936EA36300EE92668
:102D20000D0EEA22DFCFEFFF5B51E96EEA6AD89021
:102D3000E936EA36300EE9260D0EEA22010EE926C2
:102D4000000EEA225DCDEFFF140E5B5D01E25B2B0E
:102D50005D6B5E6B020EE15C02E2E16AE552E16EE0
:102D6000E552E7CFD9FF1200D9CFE6FFE1CFD9FF77
:102D70000D015B515A5D31E25A51E96EEA6AD89011
:102D8000E936EA36300EE9260D0EEA22EF50E66EFD
:102D9000FD0EDBCFE9FFFE0EDBCFEAFFE552E75089
:102DA000EF6E5A51E96EEA6AD890E936EA36300E8B
:102DB000E9260D0EEA22010EE926000EEA22EF5066
:102DC000E66EFB0EDBCFE9FFFC0EDBCFEAFFE55240
:102DD000E750EF6E5A2B010E02D0000E00D0E552E4
:102DE000E7CFD9FF12000D015B6B5A6B2B6B2C6B7D
:102DF0002D6B2E691200D9CFE6FFE1CFD9FFE65245
:102E0000DF68010E146E8150800B01E0010E145C2E
:102E10006FE18150200B01E0010E166E8150040B12
:102E200001E0010EE824156E8150100B01E0010E47
:102E3000040DF3CF14F08150080B01E0010E080DD2
:102E4000F3501410151016100F0BDF6EDF500F0A21
:102E50004CE0010A47E0030A42E0010A3DE0070AAC
:102E600038E0010A33E0030A2FE0010A2AE00F0AE2
:102E700025E0010A20E0030A1BE0010A16E0070A28
:102E800011E0010A0CE0030A07E0010A02E0DF6832
:102E90002FD0050EDF6E2CD0060EDF6E29D0090E66
:102EA000DF6E26D00A0EDF6E23D0020EDF6E20D03A
:102EB000010EDF6E1DD0030EDF6E1AD0070EDF6E1F
:102EC00017D0040EDF6E14D0DF6A12D00B0EDF6E47
:102ED0000FD00F0EDF6E0CD00C0EDF6E09D0080E77
:102EE000DF6E06D00E0EDF6E03D00D0EDF6E00D04B
:102EF000FF0EDF5C05E10D015F695C69000E17D014
:102F00000D015F51DF5C0FE15C51DF5C0CE0FD0EF9
:102F1000DBCFE9FFFE0EDBCFEAFFDFCFEFFFDFCF36
:102F20005CFD010E04D0DFCF5FFD000E00D0E55246
:082F3000E552E7CFD9FF1200C2
:082F3800C76AC78E590EC86E6E
:102F4000280EC66EC56A9E96A19694869488120035
:102F50009496949882888286050EE66ED6EC1CF0D4
:102F6000E5528298050EE66ED6EC1CF0E55282968C
:102F7000050EE66ED6EC1CF0E5521200949694987D
:102F80008298050EE66ED6EC1CF0E5528286050EA0
:102F9000E66ED6EC1CF0E55282881200D9CFE6FF2F
:102FA000E1CFD9FFE65294969488DF6ADF500A0891
:102FB0000EE3050EE66ED6EC1CF0E5528286050E99
:102FC000E66ED6EC1CF0E5528296DF2AEFD7E5528A
:102FD000E552E7CFD9FF1200D9CFE6FFE1CFD9FF05
:102FE000E65294969498DF6A080EDF5C25E2FE0EA6
:102FF000DB50800B02E0010E01D0000EE8B08288A9
:10300000E8A08298030EE66ED6EC1CF0E5528286AC
:10301000060EE66ED6EC1CF0E5528296020EE66EC7
:10302000D6EC1CF0E552FE0EDBCFF3FFF39EF34629
:10303000F3CFDBFFDF2AD8D79488020EE66ED6ECFA
:103040001CF0E5528286060EE66ED6EC1CF0E552C8
:103050008296060EE66ED6EC1CF0E552E552E5527D
:10306000E7CFD9FF1200D9CFE6FFE1CFD9FF020E9B
:10307000E126DF6A949694989488010EDB6A080E24
:10308000F36E010EDBCFF4FFF350F45C17E282869F
:10309000060EE66ED6EC1CF0E552DF9EDF4682504F
:1030A000100B01E0010EDF10DF6E8296060EE66E59
:1030B000D6EC1CF0E552010EDB2AE1D79498FE0E07
:1030C000DB0402E1829801D08288020EE66ED6EC23
:1030D0001CF0E5528286060EE66ED6EC1CF0E55238
:1030E0008296060EE66ED6EC1CF0E552DF50146EAA
:1030F000020EE15C03E200D0E16AE552E16E145099
:10310000E552E7CFD9FF1200D9CFE6FFE1CFD9FFD3
:10311000E6521EDFFE0EDBCFE6FF5EDFE552FD0E60
:10312000DBCFE6FF59DFE55213DFFE0EDB28E66E4C
:1031300053DFE552E66A97DFE552DF6E1FDFDF50AF
:1031400000D0E552E552E7CFD9FF1200D9CFE6FF14
:10315000E1CFD9FFFDDEFE0EDBCFE6FF3DDFE5521E
:10316000FD0EDBCFE6FF38DFE552FC0EDBCFE6FFDE
:0E31700033DFE55203DFE552E7CFD9FF12004F
:02317E00D9CFA7
:10318000E6FFE1CFD9FF0C0EE126A3EC19F0000E0B
:10319000E66EE66A9CCDE6FF9DCDE6FFA9EC14F055
:1031A000E552E552E552E55221EC13F01EEC15F024
:1031B0008080E80EF36E040EF3CFDBFF030EF36E98
:1031C000050EF3CFDBFF040EDBCF14F0DB06050E9C
:1031D000DBCF15F001E2DB061450151006E0040EFB
:1031E000E66E8DEC1CF0E552EED780908082E80E02
:1031F000F36E060EF3CFDBFF030EF36E070EF3CF75
:10320000DBFF060EDBCF14F0DB06070EDBCF15F07D
:1032100001E2DB061450151006E0040EE66E8DEC9C
:103220001CF0E552EED780928084E80EF36E080E13
:10323000F3CFDBFF030EF36E090EF3CFDBFF080EB7
:10324000DBCF14F0DB06090EDBCF15F001E2DB0665
:103250001450151006E0040EE66E8DEC1CF0E552DD
:10326000EED780948086E80EF36E0A0EF3CFDBFF74
:10327000030EF36E0B0EF3CFDBFF0A0EDBCF14F061
:10328000DB060B0EDBCF15F001E2DB061450151048
:1032900006E0040EE66E8DEC1CF0E552EED780964B
:1032A00065EC16F0D3EC0AF05CEC0EF011EC00F0DB
:1032B000F40EDE6E010EDE6EDE6ADD6ADD52DD5278
:1032C000D9CFE9FFDACFEAFFEE500D016C5DEE5089
:1032D0006D59EE506E59EE506F5907E3CCEC1CF06F
:1032E0000D016C6B6D6B6E6B6F6B0D01080E705D7D
:1032F000000E715907E36EEC16F078EC15F00D0135
:10330000706B716B0D01050E745D000E755905E350
:103310006AEC0EF00D01746B756B0D01280E765D75
:10332000000E775905E3E3EC0AF00D01766B776B3D
:10333000C7D70C0EE15C02E2E16AE552E16EE552AC
:06334000E7CFD9FF1200E7
:0A334600D9CFE6FFE1CFD9FF080E52
:10335000E126DE6A240EDE6EF40EDE6EDD6ADD52DC
:10336000DD52DECF07F0DECF08F0DECF09F0DDCF93
:103370000AF0DD52DD52075007E1240E081804E17F
:10338000F40E091801E10A501FE0075008E1480E49
:10339000081805E1E80E091802E1010E0A1810E00C
:1033A000075008E1900E081805E1D00E091802E157
:1033B000030E0A1801E000D0700ED36E9B8C08D06B
:1033C000600ED36E9B8C04D0700ED36E9B9C00D08D
:1033D000D9CFE9FFDACFEAFFEECF14F0EECF15F048
:1033E000EECF16F0EFCF17F0020ED890173216324C
:1033F00015321432E806F9E1040E14C0DBFF050EA5
:1034000015C0DBFF060E16C0DBFF070E17C0DBFF83
:10341000D950040FE96EDACFEAFFE80E0B6E030E07
:103420000C6E0D6A0E6AEECF06F0EECF07F0EECF0F
:1034300008F0EFCF09F0FFEC1BF009C0EDFF08C06A
:10344000EDFF07C0EDFF06C0EFFF17681868196AA7
:10345000040EDBCF1AF0050EDBCF1BF01C6A1A50EE
:10346000175C146E1B501858156E1C501958166EA8
:1034700014C09CFD15C09DFDC26A0F01386B396BED
:103480003A6B3B6B3C6B969094969498959E959C6A
:10349000959A95989596959495928168968292962C
:1034A0008096929080909294809492928092F19ED5
:1034B000080EE15C02E2E16AE552E16EE552E7CF17
:0434C000D9FF12001E
:0C34C40008C012F008500D02F4CF07F011
:1034D000F3CF06F009500E02F4CF09F0F3CF08F055
:1034E0000D02F3500726F4500822E86A0922125010
:1034F0000E02F3500726F4500822E86A0922000C55
:1035000009C013F008C012F007C011F007500C02F8
:10351000F4CF05F0F3CF04F008500D02F4CF07F01C
:10352000F3CF06F00C02F3500526F4500622E86AA9
:10353000072211500D02F3500526F4500622E86AC6
:10354000072209500C02F3500626F45007220950B6
:103550000D02086AE86A0822F3500726F450082290
:1035600011500E02F3500626F4500722096AE86A49
:103570000822092212500E02F3500726F4500822A6
:10358000E86A092213500E02F3500826F45009226B
:02359000000C2D
:0E359200280EF66E000EF76E000EF86E0D019C
:1035A0000900F5508A6F0900F5508B6F03E18A67B7
:1035B00001D03DD00900F550856F0900F550866FA8
:1035C0000900F550876F09000900F550E96E090000
:1035D000F550EA6E090009000900F550886F0900EE
:1035E000F550896F09000900F6CF8CFDF7CF8DFDEE
:1035F000F8CF8EFD85CDF6FF86CDF7FF87CDF8FF9E
:103600000D01885302E1895307E00900F550EE6E81
:103610008807F8E28907F9D78CCDF6FF8DCDF7FF43
:103620008ECDF8FF0D018A07000E8B5BBFD712000D
:10363000784A018C5500945C00387C0098850068BD
:10364000A60044AC0078B4006CCF00CCD800D4DF26
:1036500000C8FA00D00101D808017C2801842F019C
:10366000000000000000000000000000000000005A
:1036700000003075002C970064C800C0F30048209B
:1036800001444201000000000000000000000000B2
:10369000000000000000000000000000000000002A
:1036A000000000000000000000000000000000001A
:0436B0000000000016
:0C36B400446563004E6F76004F637400A5
:1036C00053657000417567004A756C004A756E005D
:1036D0004D617900417072004D6172004665620073
:1036E0004A616E0053617400467269005468750047
:1036F00057656400547565004D6F6E0053756E001C
:1037000054494D452848484D4D293A005452554397
:103710004B204E4F3A00504C414E54204E4F3A00F1
:1037200050415353574F52443A0020202020204408
:05373000454E534F005F
:013735000093
:0A373600FE0EE3CFE9FFFF0EE3CF24
:10374000EAFFE9CFF3FFEACFF4FFFB0EE35003E11A
:10375000FC0EE35009E0FB0EE30602E2FC0EE3067A
:10376000FD0EE350EE6EF1D71200D9CFE6FFDACFAF
:10377000E6FFFA0EE3CFD9FFFB0EE3CFDAFFFC0E34
:10378000E3CFE9FFFD0EE3CFEAFFDE50EF5C02E19D
:10379000EE66FBD7F36EFF0EE3CFDAFFE552FF0EC6
:0A37A000E3CFD9FFE552F350120009
:0637AA00D9CFE6FFDACFE3
:1037B000E6FFE1CFD9FFE2CFDAFFFC0EDB50F30BDF
:1037C000CC6EFD0EDB507F0BE824CD6ECF6ACE6A47
:1037D0009E90FD0EDBAE02D09D8001D09D90A49006
:1037E000FC0EDBA402D0A38001D0A390CCBECC867B
:0E37F000CD80E552E5CFDAFFE7CFD9FF12001A
:0237FE00056A5A
:10380000046A036A026A200EE76ED890063607360D
:103810000836093602360336043605360B50025C8C
:103820000C5003580D5004580E50055809E30B5026
:10383000025E0C50035A0D50045A0E50055A062AC7
:06384000E72EE4D71200A0
:0A384600D9CFE6FFDACFE6FFE1CFAD
:10385000D9FFE2CFDAFFE652E652FC0EDBCFDEFF05
:10386000DBCFDDFF010EDB50CF6EDF50CE6EE552B9
:0E387000E552E552E5CFDAFFE7CFD9FF1200AF
:02387E00D9CFA0
:10388000E6FFDACFE6FFE1CFD9FFE2CFDAFFE6527B
:10389000E652FC0EDBCFDEFFDBCFDDFF010EDB509F
:1038A000D76EDF50D66EE552E552E552E5CFDAFF2E
:0638B000E7CFD9FF120072
:0A38B600D9CFE6FFDACFE6FFE1CF3D
:1038C000D9FFE2CFDAFFFD0EDB507F0BD56ED76A52
:1038D000D66AF294FD0EDBAE02D0F28A01D0F29AE3
:0E38E000D58EE552E5CFDAFFE7CFD9FF120013
:0238EE00056A69
:1038F000046A100EE76ED89008360936043605368D
:103900000D50045C0E50055805E30D50045E0E503A
:0A391000055A082AE72EF0D712002E
:06391A00FF0EE3501D6EDC
:10392000480E01D04C0EE76EE72EFED7E76AE72E71
:0A393000FED71D2EF7D7000012008D
:06393A00380EF36E00EEF2
:1039400000F00F0E01D81200EA6002D0EE6AFCD738
:0A395000F350E9601200EE6AFCD7A4
:06395A0010EE60F020EE0B
:1039600060F0F86A019CC9EC1AF003EC00F0BFECBF
:0639700018F0FBD7120065
:0A397600056A080EE76ED8900936C6
:1039800005360E50055C02E3056E092AE72EF7D7CF
:02399000120023
:0E3992000D019F6B12000D019F0503E19F6B5D
:0C39A000849003D0010E9F6F8480120001
:0439AC00FF0EE350D7
:1039B000E84E1200000000D000D000D0E82EFAD768
:0239C0001200F3
:0E39C200202020202020202020202020202037
:0339D000202000B4
:0D39D3003132330A3435360B373839082AC3
:0339E00030230C85
:0D39E30000000000000000000000000000D7
:0A39F00000000000000000000000CD
:0339FA00000000CA
:0339FD00000000C7
:103A000000000000000000000000000000000000B6
:0F3A1000000000000000000000000000000000A7
:013A1F0000A6
:103A20000000000000000000000000000000000096
:103A30000000000000000000000000000000000086
:103A40000000000000000000000000000000000076
:103A50000000000000000000000000000000000066
:083A600000000000FF0000FF60
:083A6800000000000000000056
:103A70000000000000000000000000000000000046
:103A80000000000000000000000000000000000036
:103A90000000000000000000000000000000000026
:103AA0000000000000000000000000000000000016
:0B3AB00000000000000000000000000B
:053ABB00000000000006
:103AC00000000000000000000000000000000000F6
:033AD000000000F3
:0D3AD30000FC36F836F436F036EC36E836F6
:103AE000E436E036DC36D836D436D036CC36C83676
:0B3AF000C436C036BC36B836B4360011
:023AFB000000C9
:033AFD00000000C6
:0A3B000000000050590003271213C3
:063B0A002A3720371637B0
:043B10000C37003737
:020000040030CA
:0100010008F6
:0100020001FC
:0100030024D8
:01000500BD3D
:010006008079
:010008000FE8
:01000900C036
:01000A000FE6
:01000B00E014
:01000C000FE4
:01000D0040B2
:00000001FF
