:020000040000FA
:06000000DDEF1AF0120012
:020006001200E6
:08000800F2A402D087EF12F010
:100010009EA002D0F1EF12F09EA202D04EEF13F09C
:080020001200D08EF28E1200D6
:080028000C004E370000860DAC
:1000300000000E00000041370000940D00000D008C
:1000400000003F370000B00D0000020000003E3706
:100050000000B30D0000010000003C370000AE0DB1
:1000600000000200000014370000000F000028000C
:100070000000FC3600006E0D000018000000D636AF
:10008000000000010000260000008D360000250D54
:100090000000490000006B360000000E0000220046
:1000A000000068360000AB0D00000300000043367E
:0A00B0000000000D00002500000014
:0600BA00D9CFE6FFE1CF03
:1000C000D9FFE652FD0EDBCF16F0FE0EDBCF17F0A8
:1000D00017C016F0176A640E1702F3CF17F0160256
:1000E000F3CF16F0F4501726FD0EDBCF18F0FE0EFE
:1000F000DBCF19F0040ED89019321832E804FBE176
:100100000A0E1902F3CF19F01802F3CF18F0F450C9
:10011000192616501810146E17501910156E0F0E60
:10012000E76EFD0EDBCF1AF0FE0EDBCF1BF0E750C3
:100130001A161B6A14501A10DF6EDF5000D0E552F9
:10014000E552E7CFD9FF1200D9CFE6FFE1CFD9FFC3
:10015000FE0EDB50F00BE83A060DFE0EDBCFE7FF9C
:10016000F350E75EFE0EE7CFDBFFDB50146E156A3F
:1001700014C0F3FF15C0F4FF00D0E552E7CFD9FF5C
:100180001200D9CFE6FFE1CFD9FF020EE1260A0E19
:10019000146E14C00EF0FE0EDBCF09F0EBEC1AF07B
:1001A0000950DF6E0A0E146E14C00EF0FE0EDBCF87
:1001B00009F0EBEC1AF0010E05C0DBFFDB500F0B72
:1001C000146E0F0EDF14100DF3501410146E020E87
:1001D000E15C03E200D0E16AE552E16E1450E552C1
:1001E000E7CFD9FF1200D9CFE6FFE1CFD9FF0E0E3E
:1001F000E126FD0EDBCF14F0FE0EDBCF15F00A0E6C
:100200000D6E0E6A14C008F015C009F0A7EC1AF0C4
:1002100004C014F005C015F00A0E14C0DBFF0B0E6D
:1002200015C0DBFF0C0EDB6A0D0EDB6A0A0EDB501D
:10023000E76E040EE7CFDBFFFD0EDBCF14F0FE0E02
:10024000DBCF15F00A0E0D6E0E6A14C008F015C053
:1002500009F0A7EC1AF008C014F009C015F0060E5A
:1002600014C0DBFF070E15C0DBFF080EDB6A090EAA
:10027000DB6A060EDBCF06F0070EDBCF07F0080EB9
:10028000DBCF08F0090EDBCF09F00A0E0B6E0C6A0B
:100290000D6A0E6A11EC1AF00A0E02C0DBFF0B0E9B
:1002A00003C0DBFF0C0E04C0DBFF0D0E05C0DBFF3F
:1002B0000A0EDB50E76E030EE7CFDBFF060EDBCF47
:1002C00006F0070EDBCF07F0080EDBCF08F0090EB3
:1002D000DBCF09F00A0E0B6E0C6A0D6A0E6A11EC88
:1002E0001AF0060E06C0DBFF070E07C0DBFF080E84
:1002F00008C0DBFF090E09C0DBFF060EDBCF06F0EE
:10030000070EDBCF07F0080EDBCF08F0090EDBCFBE
:1003100009F00A0E0B6E0C6A0D6A0E6A11EC1AF0E7
:100320000A0E02C0DBFF0B0E03C0DBFF0C0E04C085
:10033000DBFF0D0E05C0DBFF0A0EDB50E76E020E81
:10034000E7CFDBFF060EDBCF06F0070EDBCF07F0B3
:10035000080EDBCF08F0090EDBCF09F00A0E0B6E9A
:100360000C6A0D6A0E6A11EC1AF0060E06C0DBFF6D
:10037000070E07C0DBFF080E08C0DBFF090E09C02F
:10038000DBFF060EDBCF06F0070EDBCF07F0080E13
:10039000DBCF08F0090EDBCF09F00A0E0B6E0C6AFA
:1003A0000D6A0E6A11EC1AF00A0E02C0DBFF0B0E8A
:1003B00003C0DBFF0C0E04C0DBFF0D0E05C0DBFF2E
:1003C0000A0EDB50E76E010EE7CFDBFF060EDBCF38
:1003D00006F0070EDBCF07F0080EDBCF08F0090EA2
:1003E000DBCF09F00A0E0B6E0C6A0D6A0E6A11EC77
:1003F0001AF0060E06C0DBFF070E07C0DBFF080E73
:1004000008C0DBFF090E09C0DBFF060EDB50DF6E04
:10041000050EDB6AF36EDBCFF4FFF350F45C21E2F0
:10042000D9CF14F0DACF15F0050EDB500F011424EC
:10043000E96E000E1520EA6EEF50E66E050EDB50F9
:10044000E76EFB0EDBCFE9FFFC0EDBCFEAFFE750E8
:10045000E926000EEA22E552E750EF6E050EDB2A90
:10046000D9D70E0EE15C02E2E16AE552E16EE55297
:10047000E7CFD9FF1200D9CFE6FFE1CFD9FF080EB1
:10048000E1260A0E146E14C00EF0FE0EDBCF09F04A
:10049000EBEC1AF00550E66ED950060FE96EDACF94
:1004A000EAFFE552E750EE6EED6A060EDB50E76EAE
:1004B000020EE7CFDBFF0A0E146E14C00EF0FE0E24
:1004C000DBCF09F0EBEC1AF00950E66ED950040FBF
:1004D000E96EDACFEAFFE552E750EE6EED6A040E00
:1004E000DBCF14F0050EDBCF15F00A0E0D6E0E6A91
:1004F00014C008F015C009F0A7EC1AF004C014F0FD
:1005000005C015F0060E14C0DBFF070E15C0DBFF9B
:10051000060EDB50E76E010EE7CFDBFF0A0E146E0E
:10052000156A040EDBCF08F0050EDBCF09F014C00E
:100530000DF015C00EF0A7EC1AF0040E08C0DBFF9A
:10054000050E09C0DBFF040EDB50DF6E030EDB6A15
:10055000F36EDBCFF4FFF350F45C21E2D9CF14F05B
:10056000DACF15F0030EDB500F011424E96E000EF4
:100570001520EA6EEF50E66E030EDB50E76EFC0EC0
:10058000DBCFE9FFFD0EDBCFEAFFE750E926000EE7
:10059000EA22E552E750EF6E030EDB2AD9D7080EA8
:1005A000E15C02E2E16AE552E16EE552E7CFD9FF94
:1005B0001200D9CFE6FFE1CFD9FF130EE126FB0EE3
:1005C000DBCF06F0FC0EDBCF07F0FD0EDBCF08F033
:1005D000FE0EDBCF09F00A0E0B6E0C6A0D6A0E6A76
:1005E00011EC1AF00F0E02C0DBFF100E03C0DBFF90
:1005F000110E04C0DBFF120E05C0DBFF0F0EDB5037
:10060000E76E090EE7CFDBFFFB0EDBCF06F0FC0E3B
:10061000DBCF07F0FD0EDBCF08F0FE0EDBCF09F0DD
:100620000A0E0B6E0C6A0D6A0E6A11EC1AF00B0EB4
:1006300006C0DBFF0C0E07C0DBFF0D0E08C0DBFFA2
:100640000E0E09C0DBFF0B0EDBCF06F00C0EDBCF6E
:1006500007F00D0EDBCF08F00E0EDBCF09F00A0E0F
:100660000B6E0C6A0D6A0E6A11EC1AF00F0E02C0C6
:10067000DBFF100E03C0DBFF110E04C0DBFF120E08
:1006800005C0DBFF0F0EDB50E76E080EE7CFDBFF88
:100690000B0EDBCF06F00C0EDBCF07F00D0EDBCF21
:1006A00008F00E0EDBCF09F00A0E0B6E0C6A0D6A15
:1006B0000E6A11EC1AF00B0E06C0DBFF0C0E07C021
:1006C000DBFF0D0E08C0DBFF0E0E09C0DBFF0B0EBB
:1006D000DBCF06F00C0EDBCF07F00D0EDBCF08F002
:1006E0000E0EDBCF09F00A0E0B6E0C6A0D6A0E6A55
:1006F00011EC1AF00F0E02C0DBFF100E03C0DBFF7F
:10070000110E04C0DBFF120E05C0DBFF0F0EDB5025
:10071000E76E070EE7CFDBFF0B0EDBCF06F00C0E0C
:10072000DBCF07F00D0EDBCF08F00E0EDBCF09F0AC
:100730000A0E0B6E0C6A0D6A0E6A11EC1AF00B0EA3
:1007400006C0DBFF0C0E07C0DBFF0D0E08C0DBFF91
:100750000E0E09C0DBFF0B0EDBCF06F00C0EDBCF5D
:1007600007F00D0EDBCF08F00E0EDBCF09F00A0EFE
:100770000B6E0C6A0D6A0E6A11EC1AF00F0E02C0B5
:10078000DBFF100E03C0DBFF110E04C0DBFF120EF7
:1007900005C0DBFF0F0EDB50E76E060EE7CFDBFF79
:1007A0000B0EDBCF06F00C0EDBCF07F00D0EDBCF10
:1007B00008F00E0EDBCF09F00A0E0B6E0C6A0D6A04
:1007C0000E6A11EC1AF00B0E06C0DBFF0C0E07C010
:1007D000DBFF0D0E08C0DBFF0E0E09C0DBFF0B0EAA
:1007E000DBCF06F00C0EDBCF07F00D0EDBCF08F0F1
:1007F0000E0EDBCF09F00A0E0B6E0C6A0D6A0E6A44
:1008000011EC1AF00F0E02C0DBFF100E03C0DBFF6D
:10081000110E04C0DBFF120E05C0DBFF0F0EDB5014
:10082000E76E050EE7CFDBFF0B0EDBCF06F00C0EFD
:10083000DBCF07F00D0EDBCF08F00E0EDBCF09F09B
:100840000A0E0B6E0C6A0D6A0E6A11EC1AF00B0E92
:1008500006C0DBFF0C0E07C0DBFF0D0E08C0DBFF80
:100860000E0E09C0DBFF0B0EDBCF06F00C0EDBCF4C
:1008700007F00D0EDBCF08F00E0EDBCF09F00A0EED
:100880000B6E0C6A0D6A0E6A11EC1AF00F0E02C0A4
:10089000DBFF100E03C0DBFF110E04C0DBFF120EE6
:1008A00005C0DBFF0F0EDB50E76E040EE7CFDBFF6A
:1008B0000B0EDBCF06F00C0EDBCF07F00D0EDBCFFF
:1008C00008F00E0EDBCF09F00A0E0B6E0C6A0D6AF3
:1008D0000E6A11EC1AF00B0E06C0DBFF0C0E07C0FF
:1008E000DBFF0D0E08C0DBFF0E0E09C0DBFF0B0E99
:1008F000DBCF06F00C0EDBCF07F00D0EDBCF08F0E0
:100900000E0EDBCF09F00A0E0B6E0C6A0D6A0E6A32
:1009100011EC1AF00F0E02C0DBFF100E03C0DBFF5C
:10092000110E04C0DBFF120E05C0DBFF0F0EDB5003
:10093000E76E030EE7CFDBFF0B0EDBCF06F00C0EEE
:10094000DBCF07F00D0EDBCF08F00E0EDBCF09F08A
:100950000A0E0B6E0C6A0D6A0E6A11EC1AF00B0E81
:1009600006C0DBFF0C0E07C0DBFF0D0E08C0DBFF6F
:100970000E0E09C0DBFF0B0EDBCF06F00C0EDBCF3B
:1009800007F00D0EDBCF08F00E0EDBCF09F00A0EDC
:100990000B6E0C6A0D6A0E6A11EC1AF00F0E02C093
:1009A000DBFF100E03C0DBFF110E04C0DBFF120ED5
:1009B00005C0DBFF0F0EDB50E76E020EE7CFDBFF5B
:1009C0000B0EDBCF06F00C0EDBCF07F00D0EDBCFEE
:1009D00008F00E0EDBCF09F00A0E0B6E0C6A0D6AE2
:1009E0000E6A11EC1AF00B0E06C0DBFF0C0E07C0EE
:1009F000DBFF0D0E08C0DBFF0E0E09C0DBFF0B0E88
:100A0000DBCF06F00C0EDBCF07F00D0EDBCF08F0CE
:100A10000E0EDBCF09F00A0E0B6E0C6A0D6A0E6A21
:100A200011EC1AF00F0E02C0DBFF100E03C0DBFF4B
:100A3000110E04C0DBFF120E05C0DBFF0F0EDB50F2
:100A4000E76E010EE7CFDBFF0B0EDBCF06F00C0EDF
:100A5000DBCF07F00D0EDBCF08F00E0EDBCF09F079
:100A60000A0E0B6E0C6A0D6A0E6A11EC1AF00B0E70
:100A700006C0DBFF0C0E07C0DBFF0D0E08C0DBFF5E
:100A80000E0E09C0DBFF0B0EDB50DF6E0A0EDB6AB9
:100A9000F36EDBCFF4FFF350F45C22E2D9CF14F015
:100AA000DACF15F00A0EDB500F011424E96E000EA8
:100AB0001520EA6EEF503009E66E0A0EDB50E76E45
:100AC000F90EDBCFE9FFFA0EDBCFEAFFE750E926AC
:100AD000000EEA22E552E750EF6E0A0EDB2AD8D765
:100AE000130EE15C02E2E16AE552E16EE552E7CF06
:100AF000D9FF1200D9CFE6FFE1CFD9FFFE0EDB50C0
:100B0000F00BE83A060DFE0EDBCFE7FFF350E75E91
:100B1000FE0EE7CFDBFFDB5000D0E552E7CFD9FF79
:100B20001200D9CFE6FFE1CFD9FF0A0E146E14C030
:100B30000EF0FE0EDBCF09F0EBEC1AF00950060DBB
:100B4000FE0EDBCFE7FFF350E726FE0EE7CFDBFF1D
:100B5000DB50146E156A14C0F3FF15C0F4FF00D00B
:100B6000E552E7CFD9FF1200D9CFE6FFE1CFD9FF99
:100B7000060EE126F36EFC0EDBCFF4FFF350F45CBF
:100B800071E2020EDB6A030EDB6A040EDB6A050EFD
:100B9000DB6ADF6AFC0EDB50DF5C58E2FC0EDBCF69
:100BA000E6FFDF28E552E75CE76E010EE7CFDBFFEB
:100BB000F36E040EF3CFDBFF050EDB6A010EDB5094
:100BC000000814E20A0E086E096A040EDBCF0DF06D
:100BD000050EDBCF0EF035EC1AF0040E06C0DBFF7D
:100BE000050E07C0DBFF010EDB06E8D7020EDBCFE8
:100BF00016F0030EDBCF17F0DF50E76EFD0EDBCFF4
:100C0000E9FFFE0EDBCFEAFFE750E926000EEA22FD
:100C1000EF500F0B186E196A040EDBCF08F0050EAB
:100C2000DBCF09F018C00DF019C00EF035EC1AF04A
:100C300016500624146E17500720156E020E14C0AD
:100C4000DBFF030E15C0DBFFDF2AA4D7020EDBCFCC
:100C500014F0030EDBCF15F014C0F3FF15C0F4FF42
:100C600004D003D0F36AF46A00D0060EE15C02E21D
:0E0C7000E16AE552E16EE552E7CFD9FF1200CE
:020C7E00D9CFCC
:100C8000E6FFE1CFD9FFFE0EDB04E96EEA6AD890F9
:100C9000E936EA36010EE9260F0EEA22EECF14F00D
:100CA000EFCF15F014C0F3FF15C0F4FF00D0E552EC
:100CB000E7CFD9FF1200D9CFE6FFE1CFD9FFFE0E73
:100CC000DBCFE6FFE66A5DEC00F0E552E552FF0F90
:100CD000E96EEA6AD890E936EA360F0EE9260F0E79
:100CE000EA22EECF14F0EFCF15F014C0F3FF15C0D9
:100CF000F4FF00D0E552E7CFD9FF1200D9CFE6FFCD
:100D0000E1CFD9FF6DEC15F0D00EE66EB1EC15F029
:100D1000E552E66AB1EC15F0E5526DEC15F0D10E36
:100D2000E66EB1EC15F0E552010EE66EF8EC15F04A
:100D3000E552E66EFD0EDBCFE9FFFE0EDBCFEAFFEC
:100D4000E552E750EF6E010EE66EF8EC15F0E55255
:100D5000E66E010EE76EFD0EDBCFE9FFFE0EDBCF88
:100D6000EAFFE750E926000EEA22E552E750EF6E6F
:100D7000010EE66EF8EC15F0E552E66E020EE76E37
:100D8000FD0EDBCFE9FFFE0EDBCFEAFFE750E926E1
:100D9000000EEA22E552E750EF6E010EE66EF8EC27
:100DA00015F0E552E66E030EE76EFD0EDBCFE9FFB0
:100DB000FE0EDBCFEAFFE750E926000EEA22E552FD
:100DC000E750EF6E010EE66EF8EC15F0E552E66EB8
:100DD000040EE76EFD0EDBCFE9FFFE0EDBCFEAFF70
:100DE000E750E926000EEA22E552E750EF6E010EC9
:100DF000E66EF8EC15F0E552E66E050EE76EFD0EB8
:100E0000DBCFE9FFFE0EDBCFEAFFE750E926000E5D
:100E1000EA22E552E750EF6EE66AF8EC15F0E5528B
:100E2000E66E060EE76EFD0EDBCFE9FFFE0EDBCFB2
:100E3000EAFFE750E926000EEA22E552E750EF6E9E
:100E400083EC15F0E552E7CFD9FF1200D9CFE6FFCA
:100E5000E1CFD9FF6DEC15F0D00EE66EB1EC15F0D8
:100E6000E552E66AB1EC15F0E552FD0EDBCFE9FF85
:100E7000FE0EDBCFEAFFEF50E66EB1EC15F0E55267
:100E8000010EE76EFD0EDBCFE9FFFE0EDBCFEAFFC2
:100E9000E750E926000EEA22EF50E66EB1EC15F0BD
:100EA000E552020EE76EFD0EDBCFE9FFFE0EDBCF53
:100EB000EAFFE750E926000EEA22EF50E66EB1ECB9
:100EC00015F0E552030EE76EFD0EDBCFE9FFFE0ED7
:100ED000DBCFEAFFE750E926000EEA22EF50E66E8C
:100EE000B1EC15F0E552040EE76EFD0EDBCFE9FF25
:100EF000FE0EDBCFEAFFE750E926000EEA22EF50B4
:100F0000E66EB1EC15F0E552050EE76EFD0EDBCF97
:100F1000E9FFFE0EDBCFEAFFE750E926000EEA22EA
:100F2000EF50E66EB1EC15F0E552060EE76EFD0EE1
:100F3000DBCFE9FFFE0EDBCFEAFFE750E926000E2C
:100F4000EA22EF50E66EB1EC15F0E55283EC15F0B5
:100F5000E552E7CFD9FF1200D9CFE6FFE1CFD9FFA5
:100F6000FD0EDB041DE1FE0EDB504009E76EFE0EB8
:100F7000E7CFDBFFFC0EDB0408E1FE0EDB502009AF
:100F8000E76EFE0EE7CFDBFF0AD0FC0EDB5007E179
:100F9000FE0EDB50DF0BE76EFE0EE7CFDBFF0AD065
:100FA000FD0EDB5007E1FE0EDB50BF0BE76EFE0EC1
:100FB000E7CFDBFFFE0EDB5000D0E552E7CFD9FFD5
:100FC0001200D9CFE6FFE1CFD9FFFD0EDBCFE9FF5D
:100FD000FE0EDBCFEAFFEE52EF50E66EFB0EDBCFEC
:100FE000E9FFFC0EDBCFEAFFEE52E552E750EF6E71
:100FF000FD0EDBCFE9FFFE0EDBCFEAFFEF50E66E22
:10100000FB0EDBCFE9FFFC0EDBCFEAFFE552E7503A
:10101000EF6EFD0EDBCFE9FFFE0EDBCFEAFF020E27
:10102000E926000EEA22EFCF14F00C0E145C42E326
:10103000FD0EDBCFE9FFFE0EDBCFEAFF020EE92655
:10104000000EEA22EF50F40FE66EFB0EDBCFE9FF55
:10105000FC0EDBCFEAFF020EE926000EEA22E55283
:10106000E750EF6EFB0EDBCFE9FFFC0EDBCFEAFFB4
:10107000070EE926000EEA22010EEF6E0C0E146E2A
:10108000FD0EDBCFE9FFFE0EDBCFEAFF020EE92605
:10109000000EEA22EF50145C0CE1FB0EDBCFE9FFFF
:1010A000FC0EDBCFEAFF020EE926000EEA220C0E50
:1010B000EF6E4BD0FD0EDBCFE9FFFE0EDBCFEAFF7C
:1010C000020EE926000EEA22EFCF14F00C0E145C9B
:1010D0003CE2FD0EDBCFE9FFFE0EDBCFEAFF020EA6
:1010E000E926000EEA22EF50E66EFB0EDBCFE9FFA9
:1010F000FC0EDBCFEAFF020EE926000EEA22E552E3
:10110000E750EF6EFB0EDBCFE9FFFC0EDBCFEAFF13
:10111000070EE926000EEA22EF6AFD0EDBCFE9FF9B
:10112000FE0EDBCFEAFF020EE926000EEA22EF50A8
:101130000CE1FB0EDBCFE9FFFC0EDBCFEAFF020E7A
:10114000E926000EEA220C0EEF6EE552E7CFD9FF3A
:101150001200D9CFE6FFE1CFD9FFFD0EDBCFE9FFCB
:10116000FE0EDBCFEAFFEE52EF50E66EFB0EDBCF5A
:10117000E9FFFC0EDBCFEAFFEE52E552E750EF6EDF
:10118000FD0EDBCFE9FFFE0EDBCFEAFFEF50E66E90
:10119000FB0EDBCFE9FFFC0EDBCFEAFFE552E750A9
:1011A000EF6EFD0EDBCFE9FFFE0EDBCFEAFF070E91
:1011B000E926000EEA22EF0436E1FD0EDBCFE9FF5F
:1011C000FE0EDBCFEAFF020EE926000EEA22EF5008
:1011D0000C0FE66EFB0EDBCFE9FFFC0EDBCFEAFF68
:1011E000020EE926000EEA22E552E750EF6E0C0EE1
:1011F000146EFD0EDBCFE9FFFE0EDBCFEAFF020E21
:10120000E926000EEA22EF50145C0CE1FB0EDBCF66
:10121000E9FFFC0EDBCFEAFF020EE926000EEA2210
:101220000C0EEF6E3FD0FD0EDBCFE9FFFE0EDBCFE5
:10123000EAFF070EE926000EEA22EF5033E1FD0E29
:10124000DBCFE9FFFE0EDBCFEAFF020EE926000E40
:10125000EA22EF50E66EFB0EDBCFE9FFFC0EDBCFA0
:10126000EAFF020EE926000EEA22E552E750EF6E91
:101270000C0E146EFD0EDBCFE9FFFE0EDBCFEAFF96
:10128000020EE926000EEA22EF50145C0BE1FB0E81
:10129000DBCFE9FFFC0EDBCFEAFF020EE926000EF2
:1012A000EA22EF6AE552E7CFD9FF1200D9CFE6FF75
:1012B000E1CFD9FFE652DF6AFD0EDB040DE1FE0E41
:1012C000DB500C0FDF6E0C0E146EFE0EDB50145C48
:1012D00002E10C0EDF6E16D0FD0EDB500BE1FE0EB0
:1012E000DB50DF6E0C0E146EFE0EDB50145C01E161
:1012F000DF6A08D0AA0E146EFD0EDB50145C02E10A
:10130000AA0EDF6EDF5000D0E552E552E7CFD9FFDD
:101310001200D9CFE6FFE1CFD9FF6DEC15F0D00E6A
:10132000E66EB1EC15F0E552E66AB1EC15F0E55267
:10133000050EE76EFD0EDBCFE9FFFE0EDBCFEAFF09
:10134000E750E926000EEA22EF500F0B146E040E50
:10135000E76EFD0EDBCFE9FFFE0EDBCFEAFFE750C5
:10136000E926000EEA22EF500F0B100DF350141077
:10137000E66EB1EC15F0E552030EE76EFD0EDBCF25
:10138000E9FFFE0EDBCFEAFFE750E926000EEA2276
:10139000EF500F0B146E020EE76EFD0EDBCFE9FF70
:1013A000FE0EDBCFEAFFE750E926000EEA22EF50FF
:1013B0000F0B100DF3501410E66EB1EC15F0E55262
:1013C000010EE76EFD0EDBCFE9FFFE0EDBCFEAFF7D
:1013D000E750E926000EEA22EF500F0B146EFD0EC7
:1013E000DBCFE9FFFE0EDBCFEAFFEF500F0B100D56
:1013F000F3501410E66EB1EC15F0E55283EC15F0E5
:10140000E552E7CFD9FF1200D9CFE6FFE1CFD9FFF0
:101410006DEC15F0D00EE66EB1EC15F0E552040E51
:10142000E66EB1EC15F0E552010EE76EFD0EDBCF76
:10143000E9FFFE0EDBCFEAFFE750E926000EEA22C5
:10144000EF500F0B146EFD0EDBCFE9FFFE0EDBCF6E
:10145000EAFFEF500F0B100DF3501410E66EB1ECD5
:1014600015F0E552030EE76EFD0EDBCFE9FFFE0E31
:10147000DBCFEAFFE750E926000EEA22EF500F0B20
:10148000146E020EE76EFD0EDBCFE9FFFE0EDBCF22
:10149000EAFFE750E926000EEA22EF500F0B100D8D
:1014A000F3501410E66EB1EC15F0E552050EE76E40
:1014B000FD0EDBCFE9FFFE0EDBCFEAFFE750E926AA
:1014C000000EEA22EF500F0B146E040EE76EFD0EB5
:1014D000DBCFE9FFFE0EDBCFEAFFE750E926000E87
:1014E000EA22EF500F0B100DF3501410E66EB1EC22
:1014F00015F0E55283EC15F0E552E7CFD9FF120065
:10150000D9CFE6FFE1CFD9FF6DEC15F0D00EE66E36
:10151000B1EC15F0E552030EE66EB1EC15F0E552B4
:10152000FE0EDBCFE6FFB1EC15F0E55283EC15F0D3
:10153000E552E7CFD9FF1200D9CFE6FFE1CFD9FFBF
:10154000E652E66AD00EE66E49EC16F0E552E55238
:10155000DF6E7F0EDF14DF6EDFCFE6FFE66AD00EB0
:10156000E66E6BEC16F0E552E552E552900EE66E33
:10157000070EE66ED00EE66E6BEC16F0E552E55205
:10158000E552E552E552E7CFD9FF12002F0EE66E85
:101590000F0EE66E7EEC06F0E552E5520F01275184
:1015A0000F012F5D05E02FCF27FF0F01010E006F08
:0215B000120027
:0E15B200080EE66EF1EC0FF0E552E66A22DB61
:1015C000E552FEDAF1EF0DF0D9CFE6FFE1CFD9FF1A
:1015D000060EE126DF68D950020FE66E000EDA2013
:1015E000E66ED950030FE66E000EDA20E66E05ECCB
:1015F00011F0E552E552E552E552000901E1ABD1A7
:10160000020EDBCFE6FF030EDBCFE6FFAED9E552DD
:10161000E552DF6EFF0EDF5C01E19DD10D0100514F
:10162000050A01E12DD1010A01E1EBD0070A01E130
:10163000A2D0010A58E0030A10E0010A01E08BD1B0
:101640000A0EDF5C09E1010EE66EDCDAE552B8DA7B
:10165000C8DA0D01010E006F7ED1080EDF5C08E1D3
:10166000E66AD0DAE552ACDABCDA0D01006B3AD0AA
:101670000C0EDF5C28E1050EDB6A1251EA6A010FED
:10168000E96E0D0EEA22EF6A010EE66E0D0EE66EB1
:1016900022EC18F0E552E552E76E050EE7CFDBFFCE
:1016A000DB0409E1020EE66EADDAE55289DA0D01DE
:1016B000020E006F07D0E66AA5DAE55281DA91DA08
:1016C0000D01006B0FD01251EA6A010FE96E0D0E89
:1016D000EA22DFCFEFFF2A0EE66E03EC10F0E552B0
:1016E0000D01122B38D1DF500C0A2DE0070A23E040
:1016F000280A12E0090A01E03DD0040EE66EC8DABD
:10170000E5520D012451242BEA6A130FE96E0D0EE8
:10171000EA222A0EEF6E2ED0030EE66EB9DAE552FB
:101720000D012451242BEA6A130FE96E0D0EEA22F3
:10173000230EEF6E1FD0E66A65DAE55241DA51DA20
:101740000D01006B17D02A0E135D08E1070EE66E3F
:1017500059DAE5520D01050E006F0BD0230E136F01
:10176000135107E0050EE66E4DDAE5520D01030E4A
:10177000006F00D0F0D0080EDF5C15E112510008B8
:1017800008E2DFCFE6FF03EC10F0E5520D0112078F
:1017900009D0020EE66E36DAE55212DA22DA0D01CF
:1017A000020E006F2DD00C0EDF5C0CE11251000810
:1017B00008E2060EE66E26DAE55202DA0D01040EA4
:1017C000006F1ED01251122BEA6A010FE96E0D0E46
:1017D000EA22DFCFEFFF1251EA6A010FE96E0D0E28
:1017E000EA22EF50E66E03EC10F0E5520D012451B1
:1017F000242BEA6A130FE96E0D0EEA22DFCFEFFF0A
:10180000AAD0080EDF5C16E11251000808E2DFCF13
:10181000E6FF03EC10F0E5520D0112070AD0050EA9
:10182000E66EF0D9E552CCD90D01010E246F030EFE
:10183000006F25D00C0EDF5C0DE11251000809E2AB
:1018400075D9070EE66EDED9E552BAD90D01050E3F
:10185000006F15D01251EA6A010FE96E0D0EEA22EF
:10186000DFCFEFFF1251EA6A010FE96E0D0EEA2297
:10187000EF50E66E03EC10F0E5520D01122B6BD029
:10188000080EDF5C26E11251000808E2DFCFE6FF18
:1018900003EC10F0E5520D0112071AD02A0E135D69
:1018A0000AE1020EE66EAED9E5528AD99AD90D0147
:1018B000020E006F0DD0230E135D0AE1060EE66ED8
:1018C000A1D9E5527DD90D01020E246F040E006FDF
:1018D00041D00C0EDF5C21E12A0E135D09E1010EFF
:1018E000E66E0D0EE66E48EC18F0E552E5520BD0B0
:1018F000230E135D08E1130EE66E0D0EE66E40EC4E
:1019000018F0E552E552020EE66E7CD9E55258D940
:1019100068D90D01020E006F1DD01251122BEA6A18
:10192000010FE96E0D0EEA22DFCFEFFF2451242BC9
:10193000EA6A130FE96E0D0EEA22DFCFEFFF1251B4
:10194000EA6A010FE96E0D0EEA22EF50E66E03EC33
:1019500010F0E55200D0060EE15C02E2E16AE552C9
:10196000E16EE552E7CFD9FF1200D9CFE6FFE1CF14
:10197000D9FFE652DF680D010051050A01E1A4D04C
:10198000010A01E179D0070A54E0010A37E0030AAD
:1019900012E0010A01E0C3D0FE0EDB50F76A330FFC
:1019A000F66E360EF7220800F550DF6E0A0EDF5C89
:1019B00001E0DF68B4D0FE0EDB50F76A330FF66E3D
:1019C000360EF7220800F550DF6E050E125D08E3B3
:1019D000080EDF5C04E00C0EDF5C01E0DF680DD078
:1019E0002A0EDF5C09E0230EDF5C06E00A0EDF5CF6
:1019F00003E00B0EDF5C01E1DF6891D0FE0EDB50EF
:101A0000F76A330FF66E360EF7220800F550DF6ED8
:101A10000B0EDF5C0DE0080EDF5C0AE00C0EDF5CF5
:101A200007E02A0EDF5C04E0230EDF5C01E0DF68E4
:101A300076D0FE0EDB50F76A330FF66E360EF722C5
:101A40000800F550DF6E1251010801E2DF6812054F
:101A500008E1080EDF5C04E00C0EDF5C01E0DF68EB
:101A60000AD0080EDF5C07E0310EDF5C04E0320EC6
:101A7000DF5C01E0DF6853D0FE0EDB50F76A330F06
:101A8000F66E360EF7220800F550DF6E125102088E
:101A900002E2DF6818D0020E125D08E1080EDF5C7A
:101AA00004E00C0EDF5C01E0DF680DD02A0EDF5C85
:101AB00009E0230EDF5C06E00A0EDF5C03E00B0E9C
:101AC000DF5C01E1DF682BD0FE0EDB50F76A330FDD
:101AD000F66E360EF7220800F550DF6E125104083C
:101AE00002E2DF681BD0040E125D08E1080EDF5C25
:101AF00004E00C0EDF5C01E0DF6810D02A0EDF5C32
:101B00000CE0230EDF5C09E00A0EDF5C06E00B0E42
:101B1000DF5C03E00C0EDF5C01E1DF6800D0DF502A
:101B200000D0E552E552E7CFD9FF1200D9CFE6FF4A
:101B3000E1CFD9FF020EE126010EDB6A0D0112058D
:101B400013E12451EA6A130FE96E0D0EEA22300EFA
:101B5000EF6E242B2451EA6A130FE96E0D0EEA2270
:101B600001CDEFFF242B12D02451EA6A130FE96E46
:101B70000D0EEA2201CDEFFF242B2451EA6A130F48
:101B8000E96E0D0EEA2202CDEFFF242B300E145D1C
:101B9000146E300E135D0A0DF3501424E76E010E1F
:101BA000E7CFDBFFDB50146E020EE15C03E200D0F6
:101BB000E16AE552E16E1450E552E7CFD9FF120019
:101BC000100EE66EE66AE66A010EE66E0D0EE66E31
:101BD000ADEC19F0146E050EE15E14500D01126BA0
:101BE0001200100EE66EE66AE66A130EE66E0D0E41
:101BF000E66EADEC19F0146E050EE15E14500D01A9
:101C0000246B1200D9CFE6FFE1CFD9FF030EE12606
:101C1000FE0EEA6ADB34FE0BEA36E96E860EE92632
:101C20000D0EEA22010EEECFDBFF020EEDCFDBFF41
:101C3000FCEC0FF0DF6ADF50E76E010EDBCFF6FF42
:101C4000020EDBCFF7FFE750F626000EF722080062
:101C5000F55014E0DF50E76E010EDBCFF6FF020E09
:101C6000DBCFF7FFE750F626000EF7220800F5500D
:101C7000E66E03EC10F0E552DF2ADDD7030EE15CDF
:101C800002E2E16AE552E16EE552E7CFD9FF1200C8
:101C9000D9CFE6FFE1CFD9FF030EE126FE0EEA6AB7
:101CA000DB34FE0BEA36E96E860EE9260D0EEA22DB
:101CB000010EEECFDBFF020EEDCFDBFFDF6ADF5060
:101CC000E76E010EDBCFF6FF020EDBCFF7FFE7502A
:101CD000F626000EF7220800F55014E0DF50E76EFC
:101CE000010EDBCFF6FF020EDBCFF7FFE750F62643
:101CF000000EF7220800F550E66E03EC10F0E552F6
:101D0000DF2ADDD7030EE15C02E2E16AE552E16E13
:081D1000E552E7CFD9FF1200F4
:081D1800D9CFE6FFE1CFD9FFAE
:101D2000030EE126300EF36E010EF3CFDBFF750ECE
:101D3000F36E020EF3CFDBFF010EDF6EDF0425E151
:101D400005DA00000000839283840000000083868F
:101D5000000000008350800B01E0010EDF6E8396CF
:101D60008386000000008396010EDB06020E01E26E
:101D7000DB06D950010FE96EDACFEAFFEE50ED1025
:101D800003E1ECD9FF0E04D0D9D7E8D9000E00D07A
:101D9000146E030EE15C02E2E16AE552E16E14505A
:101DA000E552E7CFD9FF1200D9CFE6FFE1CFD9FF47
:101DB000839283940000FE0EDB50F00B146E0F0E26
:101DC0008C1414108C6E0000838600000000839633
:101DD000E552E7CFD9FF1200D9CFE6FFE1CFD9FF17
:101DE0009BDF839283940000FE0EDB50F00B146E99
:101DF0000F0E8C1414108C6E0000838600000000FF
:101E00008396FE0EDB38F00BF00B146E0F0E8C1465
:101E100014108C6E00008386000000008396E5524B
:101E2000E7CFD9FF1200D9CFE6FFE1CFD9FF74DFAA
:101E3000838283940000FE0EDB50F00B146E0F0EB5
:101E40008C1414108C6E00008386000000008396B2
:101E5000FE0EDB38F00BF00B146E0F0E8C1414100A
:101E60008C6E00008386000000008396E552E7CF69
:101E7000D9FF1200D9CFE6FFE1CFD9FF0B0EE12643
:101E80006DD9280EF36E010EF3CFDBFF020EDB6A75
:101E9000010EDBCF14F0DB06020EDBCF15F001E202
:101EA000DB061450151006E0080EE66EBDEC1AF0C5
:101EB000E552EED7300EE66E77DFE5520A0EF36E8E
:101EC000030EF3CFDBFF040EDB6A030EDBCF14F04F
:101ED000DB06040EDBCF15F001E2DB061450151013
:101EE00006E0080EE66EBDEC1AF0E552EED7300EB5
:101EF000E66E5ADFE5520A0EF36E050EF3CFDBFFF6
:101F0000060EDB6A050EDBCF14F0DB06060EDBCF18
:101F100015F001E2DB061450151006E0080EE66E1F
:101F2000BDEC1AF0E552EED7300EE66E3DDFE5521D
:101F30000A0EF36E070EF3CFDBFF080EDB6A070E07
:101F4000DBCF14F0DB06080EDBCF15F001E2DB0679
:101F50001450151006E0080EE66EBDEC1AF0E552BE
:101F6000EED7200EE66E20DFE5520A0EF36E090E64
:101F7000F3CFDBFF0A0EDB6A090EDBCF14F0DB06C2
:101F80000A0EDBCF15F001E2DB061450151006E057
:101F9000080EE66EBDEC1AF0E552EED7280EE66E9E
:101FA0001BDFE552B9DEDF6EDF5010E10F0EE66E8B
:101FB00013DFE552010EE66E0FDFE552040EE66E0A
:101FC0000BDFE552060EE66E07DFE5520B0EE15C15
:101FD00003E200D0E16AE552E16EE552E7CFD9FFB6
:101FE0001200D9CFE6FFE1CFD9FFFE0EDBCF01FE15
:101FF000E552E7CFD9FF1200010EE66EEDDEE552A5
:102000000E01006B1200D9CFE6FFE1CFD9FFE652F7
:10201000FE0EDB500E01015D23E1005101E137D0DE
:10202000100E005D0EE1800EE66ED6DEE552DF6A30
:10203000100EDF5C06E2140EE66ECEDEE552DF2AFD
:10204000F7D7100EE66EC8DEE552200EE66EEBDE28
:10205000E552100EE66EC0DEE5520E01000717D005
:10206000100E005D05E1C00EE66EB6DEE55208D04A
:10207000200E005D05E3006B020EE66EADDEE5525C
:10208000FE0EDBCFE6FFCFDEE5520E01002BE55260
:10209000E552E7CFD9FF1200EDDE010EE66E9CDEC1
:1020A000E5520E01006B1200D9CFE6FFE1CFD9FF58
:1020B000E652010EE66E90DEE552DF6A100EDF5C3E
:1020C0001CE2FD0EDBCFE9FFFE0EDBCFEAFFEF5097
:1020D000E66EDF50EA6A020FE96E0E0EEA22E55262
:1020E000E750EF6EFD0EDBCFE9FFDB2AFE0EDBCF04
:1020F000EAFF01E3DB2ADF2AE1D7C00EE66E6CDEE1
:10210000E552DF6A100EDF5C1CE2FD0EDBCFE9FF5B
:10211000FE0EDBCFEAFFEF50E66EDF50EA6A020FF9
:10212000E96E0E0EEA22E552E750EF6EFD0EDBCFB0
:10213000E9FFDB2AFE0EDBCFEAFF01E3DB2ADF2A21
:10214000E1D7E552E552E7CFD9FF1200958E958C85
:10215000958A95889596959495921200959E959C52
:0C216000959A959895969594959212008A
:04216C000D01686B8E
:10217000696B396B3A6B3B6B3C693D6B1200D9CF95
:10218000E6FFE1CFD9FF020EE1260D016B2B000E19
:102190006C23D9CFE6FFDACFE6FF18D9E552E55236
:1021A000000901E128D00D016851695D02E1696B08
:1021B000686B6951E96EEA6AD890E936EA363E0EF4
:1021C000E9260D0EEA22DFCFEFFF6951E96EEA6AD8
:1021D000D890E936EA363E0EE9260D0EEA22010EC7
:1021E000E926000EEA226BCDEFFF140E695D01E2D5
:1021F000692B6B6B6C6B020EE15C02E2E16AE552EB
:10220000E16EE552E7CFD9FF1200D9CFE6FFE1CF6B
:10221000D9FF020EE126240E0D01AE5D04E3000E8F
:10222000C1D00D01AE6BAE51040DF3CFF6FFF4CF6C
:10223000F7FF880EF6262E0EF7220900F5CF14F0D0
:102240000800F5CF15F0FF0E141801E1155049E014
:10225000AE51040DF3CFF6FFF4CFF7FF880EF6264C
:102260002E0EF7220900F5CF16F00800F5CF17F073
:10227000180E161801E1175034E0AE51040DF3CFDB
:10228000F6FFF4CFF7FF880EF6262E0EF722080091
:10229000F550E66EFD0EDBCFE9FFFE0EDBCFEAFF69
:1022A000E552E750EF6EAE51040DF3CFF6FFF4CFD9
:1022B000F7FF880EF6262E0EF722020EF626000EE7
:1022C000F7220800F550E66EFB0EDBCFE9FFFC0EAF
:1022D000DBCFEAFFE552E750EF6EAE2B010E62D086
:1022E0005DD0AE51040DF3CFF6FFF4CFF7FF880EAB
:1022F000F6262E0EF7220900F5CF14F00800F5CFD0
:1023000015F0180E141801E1155048E1640EDE6E48
:10231000DD6ADFCF14F0DF06010EDBCF15F001E23E
:10232000DB061450151006E0080EE66EBDEC1AF040
:10233000E552EFD70D01AE51040DF3CFF6FFF4CF08
:10234000F7FF880EF6262E0EF7220800F550E66EEF
:10235000FD0EDBCFE9FFFE0EDBCFEAFFE552E750D3
:10236000EF6EAE51040DF3CFF6FFF4CFF7FF880EFA
:10237000F6262E0EF722020EF626000EF722080091
:10238000F550E66EFB0EDBCFE9FFFC0EDBCFEAFF7C
:10239000E552E750EF6EAE2B010E04D00D01AE2BCF
:1023A000000E00D0146E020EE15C02E2E16AE5521A
:1023B000E16E1450E552E7CFD9FF12000D01696BB1
:1023C000686B396B3A6B3B6B3C691200D9CFE6FF07
:1023D000E1CFD9FFE652DF68010E146E8150800B09
:1023E00001E0010E145C6FE18150200B01E0010E51
:1023F000166E8150040B01E0010EE824156E815029
:10240000100B01E0010E040DF3CF14F08150080B06
:1024100001E0010E080DF3501410151016100F0BEB
:10242000DF6EDF500F0A4CE0010A47E0030A42E08A
:10243000010A3DE0070A38E0010A33E0030A2FE011
:10244000010A2AE00F0A25E0010A20E0030A1BE046
:10245000010A16E0070A11E0010A0CE0030A07E08E
:10246000010A02E0DF682FD0050EDF6E2CD0060EC9
:10247000DF6E29D0090EDF6E26D00A0EDF6E23D064
:10248000020EDF6E20D0010EDF6E1DD0030EDF6E58
:102490001AD0070EDF6E17D0040EDF6E14D0DF6A7D
:1024A00012D00B0EDF6E0FD00F0EDF6E0CD00C0EA5
:1024B000DF6E09D0080EDF6E06D00E0EDF6E03D081
:1024C0000D0EDF6E00D0FF0EDF5C05E10D016D69C2
:1024D0006A69000E17D00D016D51DF5C0FE16A5182
:1024E000DF5C0CE0FD0EDBCFE9FFFE0EDBCFEAFF89
:1024F000DFCFEFFFDFCF6AFD010E04D0DFCF6DFD30
:0E250000000E00D0E552E552E7CFD9FF1200E1
:02250E00DACF22
:10251000E4FFE2CFDAFFE9CFE4FFEACFE4FFF6CF52
:10252000E4FFF7CFE4FFF5CFE4FFF3CFE4FFF4CF10
:10253000E4FFFACFE4FF00EE00F0140EE80403E33A
:10254000EECFE4FFFBD700EE14F0090EE80403E33E
:10255000EECFE4FFFBD7E652F2940D017A2B000E8A
:102560007B237C237D237E2B7F23802B8123822B47
:102570008323842B85237051711107E005D071CD21
:10258000FAFF0D017051F96EFADF6ECDE6FF6FCDE7
:10259000E6FF6FEC1AF0E552E552E55200EE1CF052
:1025A000090EE80403E3E5CFEDFFFBD700EE13F0DF
:1025B000140EE80403E3E5CFEDFFFBD7E5CFFAFF08
:1025C000E5CFF4FFE5CFF3FFE5CFF5FFE5CFF7FF6C
:1025D000E5CFF6FFE5CFEAFFE5CFE9FFE5CFDAFF8C
:1025E0001100DACFE4FFE2CFDAFFE9CFE4FFEACF70
:1025F000E4FFF6CFE4FFF7CFE4FFF5CFE4FFF3CF3E
:10260000E4FFF4CFE4FFFACFE4FF00EE00F0140E95
:10261000E80403E3EECFE4FFFBD700EE14F0090E6D
:10262000E80403E3EECFE4FFFBD7E6529E9072CDC1
:10263000E6FF73CDE6FF53EC1AF0E552E5520D01CB
:102640007451751107E005D075CDFAFF0D01745175
:10265000F96EFADFE55200EE1CF0090EE80403E320
:10266000E5CFEDFFFBD700EE13F0140EE80403E313
:10267000E5CFEDFFFBD7E5CFFAFFE5CFF4FFE5CFE0
:10268000F3FFE5CFF5FFE5CFF7FFE5CFF6FFE5CFA9
:10269000EAFFE5CFE9FFE5CFDAFF1100DACFE4FF8B
:1026A000E2CFDAFFE9CFE4FFEACFE4FFF6CFE4FFC1
:1026B000F7CFE4FFF5CFE4FFF3CFE4FFF4CFE4FF7F
:1026C000FACFE4FF00EE00F0140EE80403E3EECFCF
:1026D000E4FFFBD700EE14F0090EE80403E3EECFAD
:1026E000E4FFFBD7E6529E9276CDBBFF0D017851F9
:1026F000791107E005D079CDFAFF0D017851F96E17
:10270000FADFE55200EE1CF0090EE80403E3E5CF22
:10271000EDFFFBD700EE13F0140EE80403E3E5CF62
:10272000EDFFFBD7E5CFFAFFE5CFF4FFE5CFF3FFF1
:10273000E5CFF5FFE5CFF7FFE5CFF6FFE5CFEAFF01
:10274000E5CFE9FFE5CFDAFF1100D9CFE6FFE1CF12
:10275000D9FF9F0EE66E8BEC1AF0E552FD0EDBCF33
:102760006EFDFE0EDBCF6FFDFB0EDBCF70FDFC0EB2
:10277000DBCF71FDFD0EDBCFE6FFFE0EDBCFE6FF0C
:102780006FEC1AF0E552E552E552E7CFD9FF12009F
:10279000D9CFE6FFE1CFD9FF020EE126830EDF6E2F
:1027A000DE52080EDD6E010EDBCFE6FFDFCFE6FF67
:1027B000E7EC19F0E552E552FD0EDBCFE6FFFE0E29
:1027C000DBCFE6FF53EC1AF0E552E5529F809D8087
:1027D000010ECD6EFD0EDBCF72FDFE0EDBCF73FD65
:1027E000FB0EDBCF74FDFC0EDBCF75FD020EE15C52
:1027F00002E2E16AE552E16EE552E7CFD9FF12004D
:10280000D9CFE6FFE1CFD9FF0F0EBA6E9F829D822E
:10281000FE0EDB50BB6EFE0EDB500D01766F776B4C
:10282000FC0EDBCF78FDFD0EDBCF79FDE552E7CF67
:04283000D9FF1200BA
:0C283400D9CFE6FFE1CFD9FFE6528DD8E6
:10284000DF6A010EDF5C09E2DF50EA6AAB0FE96E76
:102850000D0EEA22EF6ADF2AF4D7E552E552E7CF00
:10286000D9FF1200D9CFE6FFE1CFD9FF9BD8FC0EEC
:10287000DBCFE6FFFD0EDBCFE6FFFE0EDBCFE6FF94
:1028800098D8E552E552E552E552E7CFD9FF12005C
:10289000D9CFE6FFE1CFD9FFE652FC0EDB50DF6E69
:1028A000FB0EDB50D880DF541AE37CD8DFCFE6FF85
:1028B000176ADF34FE0B1736166EFD0EDB5016243A
:1028C000146EFE0EDB501720156E14C0E6FF15C007
:1028D000E6FF6FD8E552E552E552DF2AE1D7E5522F
:1028E000E552E7CFD9FF1200D9CFE6FFE1CFD9FFFC
:1028F000E652DF6A57D8DF6A010EDF5C15E2DFCFF0
:10290000E6FF156ADF34FE0B1536146EAC0E142686
:102910000D0E152214C0E6FF15C0E6FF4AD8E55299
:10292000E552E552DF2AE8D7E552E552E7CFD9FF75
:102930001200D9CFE6FFE1CFD9FFFE0EEA6ADB3401
:10294000FE0BEA36E96EAC0EE9260D0EEA22EF50D8
:1029500000D0E552E7CFD9FF1200D9CFE6FFE1CF93
:10296000D9FFE652DF6A010EDF5C17E2EA6ADF3464
:10297000FE0BEA36E96EAC0EE9260D0EEA22EF6A8E
:10298000EA6ADF34FE0BEA36E96EAC0EE9260D0E7C
:10299000EA22EE52EF6ADF2AE6D7E552E552E7CFA8
:1029A000D9FF12008450020B01E0010E0D01AB6F44
:1029B0001200D9CFE6FFE1CFD9FFFD0EDBCFE9FF53
:1029C000FE0EDBCFEAFFEF50010A3DE0010A01E015
:1029D00074D0FC0EDB50EA6AAB0FE96E0D0EEA22F2
:1029E000EF50010B27E1FD0EDBCFE9FFFE0EDBCF41
:1029F000EAFFEE52EF2AFD0EDBCFE9FFFE0EDBCF42
:102A0000EAFFEECF14F0EFCF15F0020E0001155CD7
:102A100010E3FD0EDBCFE9FFFE0EDBCFEAFF010E78
:102A2000EF6EFD0EDBCFE9FFFE0EDBCFEAFFEE52CD
:102A3000EF6A08D0FD0EDBCFE9FFFE0EDBCFEAFF29
:102A4000EE52EF6A3AD0FC0EDB50EA6AAB0FE96E49
:102A50000D0EEA22EF50010B010826E1FD0EDBCF3F
:102A6000E9FFFE0EDBCFEAFFEE52EF2AFD0EDBCFD1
:102A7000E9FFFE0EDBCFEAFFEECF14F0EFCF15F04B
:102A8000020E0001155C0FE3FD0EDBCFE9FFFE0E29
:102A9000DBCFEAFFEF6AFD0EDBCFE9FFFE0EDBCFF7
:102AA000EAFFEE52EF6A08D0FD0EDBCFE9FFFE0E23
:102AB000DBCFEAFFEE52EF6A00D0E552E7CFD9FF55
:022AC000120002
:0E2AC200C76AC78E590EC86E280EC66EC56A4A
:102AD0009E96A196948694881200949694988288E3
:102AE0008286050EE66E06EC1BF0E5528298050E16
:102AF000E66E06EC1BF0E5528296050EE66E06ECDD
:102B00001BF0E5521200949694988298050EE66E9A
:102B100006EC1BF0E5528286050EE66E06EC1BF015
:102B2000E55282881200D9CFE6FFE1CFD9FFE65205
:102B300094969488DF6ADF500A080EE3050EE66E6D
:102B400006EC1BF0E5528286050EE66E06EC1BF0E5
:102B5000E5528296DF2AEFD7E552E552E7CFD9FF5B
:102B60001200D9CFE6FFE1CFD9FFE65294969498B0
:102B7000DF6A080EDF5C25E2FE0EDB50800B02E010
:102B8000010E01D0000EE8B08288E8A08298030E02
:102B9000E66E06EC1BF0E5528286060EE66E06EC4B
:102BA0001BF0E5528296020EE66E06EC1BF0E55233
:102BB000FE0EDBCFF3FFF39EF346F3CFDBFFDF2AFE
:102BC000D8D79488020EE66E06EC1BF0E55282869A
:102BD000060EE66E06EC1BF0E5528296060EE66ED9
:102BE00006EC1BF0E552E552E552E7CFD9FF1200A3
:102BF000D9CFE6FFE1CFD9FF020EE126DF6A949636
:102C000094989488010EDB6A080EF36E010EDBCFF8
:102C1000F4FFF350F45C17E28286060EE66E06ECD3
:102C20001BF0E552DF9EDF468250100B01E0010EE3
:102C3000DF10DF6E8296060EE66E06EC1BF0E552A4
:102C4000010EDB2AE1D79498FE0EDB0402E18298A4
:102C500001D08288020EE66E06EC1BF0E5528286F9
:102C6000060EE66E06EC1BF0E5528296060EE66E48
:102C700006EC1BF0E552DF50146E020EE15C03E23D
:102C800000D0E16AE552E16E1450E552E7CFD9FF7A
:102C90001200D9CFE6FFE1CFD9FFE6521EDFFE0ECC
:102CA000DBCFE6FF5EDFE552FD0EDBCFE6FF59DF4F
:102CB000E55213DFFE0EDB28E66E53DFE552E66ACF
:102CC00097DFE552DF6E1FDFDF5000D0E552E5529F
:102CD000E7CFD9FF1200D9CFE6FFE1CFD9FFFDDE64
:102CE000FE0EDBCFE6FF3DDFE552FD0EDBCFE6FF5C
:102CF00038DFE552FC0EDBCFE6FF33DFE55203DFC2
:082D0000E552E7CFD9FF1200F4
:082D0800D9CFE6FFE1CFD9FFAE
:102D1000080EE126DE6A480EDE6EE80EDE6E010E5B
:102D2000DD6EDD52DD52DECF07F0DECF08F0DECF04
:102D300009F0DDCF0AF0DD52DD52075007E1240E25
:102D4000081804E1F40E091801E10A501FE00750C9
:102D500008E1480E081805E1E80E091802E1010E25
:102D60000A1810E0075008E1900E081805E1D00E8F
:102D7000091802E1030E0A1801E000D0700ED36EAC
:102D80009B8C08D0600ED36E9B8C04D0700ED36EDB
:102D90009B9C00D0D9CFE9FFDACFEAFFEECF14F049
:102DA000EECF15F0EECF16F0EFCF17F0020ED89061
:102DB0001732163215321432E806F9E1040E14C047
:102DC000DBFF050E15C0DBFF060E16C0DBFF070E8E
:102DD00017C0DBFFD950040FE96EDACFEAFFE80E27
:102DE0000B6E030E0C6E0D6A0E6AEECF06F0EECF80
:102DF00007F0EECF08F0EFCF09F011EC1AF009C0A0
:102E0000EDFF08C0EDFF07C0EDFF06C0EFFF17683C
:102E10001868196A040EDBCF1AF0050EDBCF1BF021
:102E20001C6A1A50175C146E1B501858156E1C50F3
:102E30001958166E14C0B0FD15C0B1FDC26A0F015D
:102E4000386B396B3A6B3B6B3C6B969094969498CD
:102E5000959E959C959A959895969594959281684E
:102E6000968292968096929080909294809492927C
:102E70008092F19E080EE15C02E2E16AE552E16EA9
:082E8000E552E7CFD9FF120073
:082E88000300320000003200DB
:102E90000D0032000D003200020032000F0032003F
:102EA0000E0028000F001E00000028000F001E006A
:102EB0000000280001001E000F0032000100320057
:102EC0000000320005003200060032000F001E0034
:102ED000010032000C003200030032000C0032000E
:102EE000010028000C001E00010032000C0032001E
:102EF000040032000C003200010028000C001E000B
:102F0000010032000C003200050032000C003200DB
:102F1000010028000C001E00010032000C003200ED
:102F2000060032000C003200010032000C003200BA
:102F3000020032000C00280002001E000B003200CC
:102F400008003200010032000C0032000C00320098
:102F50000B0028000C001E000500320006003200A5
:102F6000030032000C003200010032000C0032007D
:102F7000090032000C003200010032000200320071
:102F80000C003200010032000C003200030032005D
:102F9000010032000C0032000B003200020032004F
:102FA0000C003200020032000C003200010032003E
:102FB0000C00320003003200010032000200320037
:102FC0000300320001003200020032000300320030
:102FD0000100320002003200030032000100320022
:102FE0000200320003003200010032000200320011
:042FF00018002D0098
:0C2FF4000101310E1F6F300E206F216FA5
:10300000330E226F236B1200940EE66E0D0EE66EE9
:103010007EEC06F0E552E5523C0E0D019503F3CF30
:1030200014F09603F35014240101246F256BE66A13
:1030300099EC14F0E552010804E1809080928094AC
:1030400080961200D9CFE6FFE1CFD9FFFD0EDBCF8E
:10305000E6FFFE0EDBCFE6FF1F0EE66E010EE66E0C
:10306000C7EC19F0E552E552E552E552000902E0DD
:10307000000E02D0010E00D0E552E7CFD9FF1200BA
:10308000D9CFE6FFE1CFD9FFE552E7CFD9FF120054
:10309000D9CFE6FFE1CFD9FF0D019A6B030EE76EA2
:1030A000FD0EDBCFE9FFFE0EDBCFEAFFE750E9269E
:1030B000000EEA22EF50D00F146E020EE76EFD0EE6
:1030C000DBCFE9FFFE0EDBCFEAFFE750E926000E7B
:1030D000EA22EF50D00F100DF35014109B6F010E29
:1030E000E76EFD0EDBCFE9FFFE0EDBCFEAFFE75018
:1030F000E926000EEA22EF50D00F146EFD0EDBCF52
:10310000E9FFFE0EDBCFEAFFEF50D00F100DF350BA
:1031100014109C6F9A0EE66E0D0EE66E26EC07F00C
:0C312000E552E552E552E7CFD9FF12005E
:04312C00D9CFE6FF12
:10313000E1CFD9FF040EE12684EC16F0000EE66E16
:10314000E66AB0CDE6FFB1CDE6FFA5EC13F0E5529F
:10315000E552E552E552000EE66EE66AB0CDE6FFB6
:10316000B1CDE6FFC8EC13F0E552E552E552E55269
:103170004CEC10F01AEC14F0B6EC10F0D9EC0AF0AC
:10318000FAEC17F011EC00F0F40EDE6E010EDE6EBC
:10319000DE6ADD6ADD52DD52D9CFE9FFDACFEAFF20
:1031A000EE500D017A5DEE507B59EE507C59EE5099
:1031B0007D5907E3FCEC1AF00D017A6B7B6B7C6B9D
:1031C0007D6B0D01080E7E5D000E7F5907E3BFEC9D
:1031D00010F074EC14F00D017E6B7F6B0D01F40E9A
:1031E000825D010E835905E304EC18F00D01826B3A
:1031F000836B0D01280E845D000E855905E3E4EC18
:103200000AF00D01846B856BC7D7040EE15C02E206
:0E321000E16AE552E16EE552E7CFD9FF120008
:02321E00280E78
:10322000F66E000EF76E000EF86E0D010900F550F7
:10323000A66F0900F550A76F03E1A66701D03DD046
:103240000900F550A16F0900F550A26F0900F55073
:10325000A36F09000900F550E96E0900F550EA6E08
:10326000090009000900F550A46F0900F550A56F89
:1032700009000900F6CFA8FDF7CFA9FDF8CFAAFDF8
:10328000A1CDF6FFA2CDF7FFA3CDF8FF0D01A4530A
:1032900002E1A55307E00900F550EE6EA407F8E23D
:1032A000A507F9D7A8CDF6FFA9CDF7FFAACDF8FF5E
:0C32B0000D01A607000EA75BBFD712009F
:0432BC004465630002
:1032C0004E6F76004F637400536570004175670060
:1032D0004A756C004A756E004D617900417072004C
:1032E0004D617200466562004A616E005361740070
:1032F000467269005468750057656400547565002E
:103300004D6F6E0053756E0054494D452848484D29
:103310004D293A00545255434B204E4F3A00504CE1
:10332000414E54204E4F3A00434C4F434B2054499A
:103330004D450053544147494E472054494D45009F
:1033400050415353574F52443A53455454494E47B2
:0A3350003A00090944454E534F00AE
:06335A00FE0EE3CFE9FFC7
:10336000FF0EE3CFEAFFE9CFF3FFEACFF4FFFB0E56
:10337000E35003E1FC0EE35009E0FB0EE30602E23A
:10338000FC0EE306FD0EE350EE6EF1D71200D9CF2E
:10339000E6FFDACFE6FFFA0EE3CFD9FFFB0EE3CF6D
:1033A000DAFFFC0EE3CFE9FFFD0EE3CFEAFFDE50CC
:1033B000EF5C02E1EE66FBD7F36EFF0EE3CFDAFFC0
:0E33C000E552FF0EE3CFD9FFE552F3501200A5
:0233CE00D9CF55
:1033D000E6FFDACFE6FFE1CFD9FFE2CFDAFFFC0E5E
:1033E000DB50F30BCC6EFD0EDB507F0BE824CD6E73
:1033F000CF6ACE6A9E90FD0EDBAE02D09D8001D0DA
:103400009D90A490FC0EDBA402D0A38001D0A390D9
:10341000CCBECC86CD80E552E5CFDAFFE7CFD9FF31
:02342000120098
:0E342200056A046A036A026A200EE76ED890FB
:1034300006360736083609360236033604360536B0
:103440000B50025C0C5003580D5004580E50055898
:1034500009E30B50025E0C50035A0D50045A0E50F3
:0A346000055A062AE72EE4D71200F1
:06346A0008C012F008503A
:103470000D02F4CF07F0F3CF06F009500E02F4CF9F
:1034800009F0F3CF08F00D02F3500726F45008229C
:10349000E86A092212500E02F3500726F45008225F
:0634A000E86A0922000C9D
:0A34A600D9CFE6FFDACFE6FFE1CF51
:1034B000D9FFE2CFDAFFE652E652FC0EDBCFDEFFA9
:1034C000DBCFDDFF010EDB50CF6EDF50CE6EE5525D
:0E34D000E552E552E5CFDAFFE7CFD9FF120053
:0234DE00D9CF44
:1034E000E6FFDACFE6FFE1CFD9FFE2CFDAFFE6521F
:1034F000E652FC0EDBCFDEFFDBCFDDFF010EDB5043
:10350000D76EDF50D66EE552E552E552E5CFDAFFD1
:06351000E7CFD9FF120015
:0A351600D9CFE6FFDACFE6FFE1CFE0
:10352000D9FFE2CFDAFFFD0EDB507F0BD56ED76AF5
:10353000D66AF294FD0EDBAE02D0F28A01D0F29A86
:0E354000D58EE552E5CFDAFFE7CFD9FF1200B6
:02354E00056A0C
:10355000046A100EE76ED890083609360436053630
:103560000D50045C0E50055805E30D50045E0E50DE
:0A357000055A082AE72EF0D71200D2
:06357A00FF0EE3501D6E80
:10358000480E01D04C0EE76EE72EFED7E76AE72E15
:0A359000FED71D2EF7D70000120031
:06359A00380EF36E00EE96
:1035A00000F00F0E01D81200EA6002D0EE6AFCD7DC
:0A35B000F350E9601200EE6AFCD748
:0635BA0010EE60F020EEAF
:1035C00060F0F86A019C0FEC19F003EC00F096EC47
:0635D00018F0FBD7120009
:0A35D600056A080EE76ED89009366A
:1035E00005360E50055C02E3056E092AE72EF7D773
:0235F0001200C7
:0E35F2000D01B36B12000D01B30503E1B36BC5
:0C360000849003D0010EB36F8480120090
:04360C00FF0EE3507A
:10361000E84E1200000000D000D000D0E82EFAD70B
:02362000120096
:0E3622002020202020202020202020202020DA
:0336300020200057
:0D3633003132330A3435360B373839082A66
:0336400030230C28
:0D364300000000000000000000000000007A
:10365000000000000000000000000000000000006A
:08366000000000000000000062
:033668000000005F
:05366B0000000000005A
:10367000000000000000000000000000000000004A
:0D368000000000000000000000000000003D
:03368D000000003A
:10369000000000000000000000000000000000002A
:1036A000000000000000000000000000000000001A
:1036B000000000000000000000000000000000000A
:1036C00000000000000000000000000000000000FA
:0636D0000000FF0000FFF6
:0A36D60000000000000000000000EA
:1036E00000000000000000000000000000000000DA
:0C36F000000000000000000000000000CE
:0436FC0000000000CA
:1037000000000000000000000000000000000000B9
:0437100000000000B5
:0C3714000004330033FC32F832F432F0D1
:1037200032EC32E832E432E032DC32D832D432D019
:0C37300032CC32C832C432C032BC32008D
:02373C00000586
:01373E00008A
:01373F000089
:013740000088
:0D3741000000000000005059000327121383
:02374E005233F4
:0C3750004033333328331E331433083366
:020000040030CA
:0100010008F6
:0100020001FC
:0100030024D8
:01000500BD3D
:010006008079
:010008000FE8
:01000900C036
:01000A000FE6
:01000B00E014
:01000C000FE4
:01000D0040B2
:00000001FF
