:020000040000FA
:0600000042EF19F01200AE
:020006001200E6
:08000800F2A402D0B3EF10F0E6
:100010009EA002D01DEF11F09EA202D07AEF11F047
:080020001200D08EF28E1200D6
:080028000A000B340000930DE7
:1000300000000A00000009340000A00D00000200CA
:10004000000008340000A30D000001000000E033B0
:100050000000000F000028000000C8330000710DF0
:10006000000018000000A33300000001000025007C
:1000700000005A330000280D00004900000038330A
:100080000000000E000022000000353300009D0D2E
:100090000000030000000D330000000D00002800E8
:0200A00000005E
:0E00A200D9CFE6FFE1CFD9FFE652FD0EDBCF4E
:1000B00016F0FE0EDBCF17F017C016F0176A640EAD
:1000C0001702F3CF17F01602F3CF16F0F4501726ED
:1000D000FD0EDBCF18F0FE0EDBCF19F0040ED8902A
:1000E00019321832E804FBE10A0E1902F3CF19F0B5
:1000F0001802F3CF18F0F450192616501810146E89
:1001000017501910156E0F0EE76EFD0EDBCF1AF0AB
:10011000FE0EDBCF1BF0E7501A161B6A14501A10A4
:10012000DF6EDF5000D0E552E552E7CFD9FF120075
:10013000D9CFE6FFE1CFD9FFFE0EDB50F00BE83A56
:10014000060DFE0EDBCFE7FFF350E75EFE0EE7CFB6
:10015000DBFFDB50146E156A14C0F3FF15C0F4FF0B
:1001600000D0E552E7CFD9FF1200D9CFE6FFE1CFAB
:10017000D9FF020EE1260A0E146E14C00EF0FE0E18
:10018000DBCF09F050EC19F00950DF6E0A0E146E47
:1001900014C00EF0FE0EDBCF09F050EC19F0010E8A
:1001A00005C0DBFFDB500F0B146E0F0EDF14100DBC
:1001B000F3501410146E020EE15C03E200D0E16A09
:1001C000E552E16E1450E552E7CFD9FF1200D9CFC6
:1001D000E6FFE1CFD9FF0E0EE126FD0EDBCF14F0D6
:1001E000FE0EDBCF15F00A0E0D6E0E6A14C008F07D
:1001F00015C009F00CEC19F004C014F005C015F09E
:100200000A0E14C0DBFF0B0E15C0DBFF0C0EDB6A01
:100210000D0EDB6A0A0EDB50E76E040EE7CFDBFF44
:10022000FD0EDBCF14F0FE0EDBCF15F00A0E0D6EC7
:100230000E6A14C008F015C009F00CEC19F008C0E3
:1002400014F009C015F0060E14C0DBFF070E15C030
:10025000DBFF080EDB6A090EDB6A060EDBCF06F059
:10026000070EDBCF07F0080EDBCF08F0090EDBCF5F
:1002700009F00A0E0B6E0C6A0D6A0E6A76EC18F025
:100280000A0E02C0DBFF0B0E03C0DBFF0C0E04C026
:10029000DBFF0D0E05C0DBFF0A0EDB50E76E030E21
:1002A000E7CFDBFF060EDBCF06F0070EDBCF07F054
:1002B000080EDBCF08F0090EDBCF09F00A0E0B6E3B
:1002C0000C6A0D6A0E6A76EC18F0060E06C0DBFFAB
:1002D000070E07C0DBFF080E08C0DBFF090E09C0D0
:1002E000DBFF060EDBCF06F0070EDBCF07F0080EB4
:1002F000DBCF08F0090EDBCF09F00A0E0B6E0C6A9B
:100300000D6A0E6A76EC18F00A0E02C0DBFF0B0EC7
:1003100003C0DBFF0C0E04C0DBFF0D0E05C0DBFFCE
:100320000A0EDB50E76E020EE7CFDBFF060EDBCFD7
:1003300006F0070EDBCF07F0080EDBCF08F0090E42
:10034000DBCF09F00A0E0B6E0C6A0D6A0E6A76ECB2
:1003500018F0060E06C0DBFF070E07C0DBFF080E15
:1003600008C0DBFF090E09C0DBFF060EDBCF06F07D
:10037000070EDBCF07F0080EDBCF08F0090EDBCF4E
:1003800009F00A0E0B6E0C6A0D6A0E6A76EC18F014
:100390000A0E02C0DBFF0B0E03C0DBFF0C0E04C015
:1003A000DBFF0D0E05C0DBFF0A0EDB50E76E010E12
:1003B000E7CFDBFF060EDBCF06F0070EDBCF07F043
:1003C000080EDBCF08F0090EDBCF09F00A0E0B6E2A
:1003D0000C6A0D6A0E6A76EC18F0060E06C0DBFF9A
:1003E000070E07C0DBFF080E08C0DBFF090E09C0BF
:1003F000DBFF060EDB50DF6E050EDB6AF36EDBCF34
:10040000F4FFF350F45C21E2D9CF14F0DACF15F009
:10041000050EDB500F011424E96E000E1520EA6E64
:10042000EF50E66E050EDB50E76EFB0EDBCFE9FF0B
:10043000FC0EDBCFEAFFE750E926000EEA22E55288
:10044000E750EF6E050EDB2AD9D70E0EE15C02E213
:10045000E16AE552E16EE552E7CFD9FF1200D9CF4C
:10046000E6FFE1CFD9FF080EE1260A0E146E14C094
:100470000EF0FE0EDBCF09F050EC19F00550E66EE1
:10048000D950060FE96EDACFEAFFE552E750EE6E7B
:10049000ED6A060EDB50E76E020EE7CFDBFF0A0EB9
:1004A000146E14C00EF0FE0EDBCF09F050EC19F004
:1004B0000950E66ED950040FE96EDACFEAFFE55233
:1004C000E750EE6EED6A040EDBCF14F0050EDBCFC5
:1004D00015F00A0E0D6E0E6A14C008F015C009F072
:1004E0000CEC19F004C014F005C015F0060E14C091
:1004F000DBFF070E15C0DBFF060EDB50E76E010EBB
:10050000E7CFDBFF0A0E146E156A040EDBCF08F08E
:10051000050EDBCF09F014C00DF015C00EF00CEC89
:1005200019F0040E08C0DBFF050E09C0DBFF040E46
:10053000DB50DF6E030EDB6AF36EDBCFF4FFF350AC
:10054000F45C21E2D9CF14F0DACF15F0030EDB50C2
:100550000F011424E96E000E1520EA6EEF50E66ECE
:10056000030EDB50E76EFC0EDBCFE9FFFD0EDBCFA9
:10057000EAFFE750E926000EEA22E552E750EF6E67
:10058000030EDB2AD9D7080EE15C02E2E16AE552EC
:10059000E16EE552E7CFD9FF1200D9CFE6FFE1CFF8
:1005A000D9FF130EE126FB0EDBCF06F0FC0EDBCFEE
:1005B00007F0FD0EDBCF08F0FE0EDBCF09F00A0ED0
:1005C0000B6E0C6A0D6A0E6A76EC18F00F0E02C004
:1005D000DBFF100E03C0DBFF110E04C0DBFF120EA9
:1005E00005C0DBFF0F0EDB50E76E090EE7CFDBFF28
:1005F000FB0EDBCF06F0FC0EDBCF07F0FD0EDBCFF2
:1006000008F0FE0EDBCF09F00A0E0B6E0C6A0D6AC5
:100610000E6A76EC18F00B0E06C0DBFF0C0E07C05E
:10062000DBFF0D0E08C0DBFF0E0E09C0DBFF0B0E5B
:10063000DBCF06F00C0EDBCF07F00D0EDBCF08F0A2
:100640000E0EDBCF09F00A0E0B6E0C6A0D6A0E6AF5
:1006500076EC18F00F0E02C0DBFF100E03C0DBFFBC
:10066000110E04C0DBFF120E05C0DBFF0F0EDB50C6
:10067000E76E080EE7CFDBFF0B0EDBCF06F00C0EAC
:10068000DBCF07F00D0EDBCF08F00E0EDBCF09F04D
:100690000A0E0B6E0C6A0D6A0E6A76EC18F00B0EE1
:1006A00006C0DBFF0C0E07C0DBFF0D0E08C0DBFF32
:1006B0000E0E09C0DBFF0B0EDBCF06F00C0EDBCFFE
:1006C00007F00D0EDBCF08F00E0EDBCF09F00A0E9F
:1006D0000B6E0C6A0D6A0E6A76EC18F00F0E02C0F3
:1006E000DBFF100E03C0DBFF110E04C0DBFF120E98
:1006F00005C0DBFF0F0EDB50E76E070EE7CFDBFF19
:100700000B0EDBCF06F00C0EDBCF07F00D0EDBCFB0
:1007100008F00E0EDBCF09F00A0E0B6E0C6A0D6AA4
:100720000E6A76EC18F00B0E06C0DBFF0C0E07C04D
:10073000DBFF0D0E08C0DBFF0E0E09C0DBFF0B0E4A
:10074000DBCF06F00C0EDBCF07F00D0EDBCF08F091
:100750000E0EDBCF09F00A0E0B6E0C6A0D6A0E6AE4
:1007600076EC18F00F0E02C0DBFF100E03C0DBFFAB
:10077000110E04C0DBFF120E05C0DBFF0F0EDB50B5
:10078000E76E060EE7CFDBFF0B0EDBCF06F00C0E9D
:10079000DBCF07F00D0EDBCF08F00E0EDBCF09F03C
:1007A0000A0E0B6E0C6A0D6A0E6A76EC18F00B0ED0
:1007B00006C0DBFF0C0E07C0DBFF0D0E08C0DBFF21
:1007C0000E0E09C0DBFF0B0EDBCF06F00C0EDBCFED
:1007D00007F00D0EDBCF08F00E0EDBCF09F00A0E8E
:1007E0000B6E0C6A0D6A0E6A76EC18F00F0E02C0E2
:1007F000DBFF100E03C0DBFF110E04C0DBFF120E87
:1008000005C0DBFF0F0EDB50E76E050EE7CFDBFF09
:100810000B0EDBCF06F00C0EDBCF07F00D0EDBCF9F
:1008200008F00E0EDBCF09F00A0E0B6E0C6A0D6A93
:100830000E6A76EC18F00B0E06C0DBFF0C0E07C03C
:10084000DBFF0D0E08C0DBFF0E0E09C0DBFF0B0E39
:10085000DBCF06F00C0EDBCF07F00D0EDBCF08F080
:100860000E0EDBCF09F00A0E0B6E0C6A0D6A0E6AD3
:1008700076EC18F00F0E02C0DBFF100E03C0DBFF9A
:10088000110E04C0DBFF120E05C0DBFF0F0EDB50A4
:10089000E76E040EE7CFDBFF0B0EDBCF06F00C0E8E
:1008A000DBCF07F00D0EDBCF08F00E0EDBCF09F02B
:1008B0000A0E0B6E0C6A0D6A0E6A76EC18F00B0EBF
:1008C00006C0DBFF0C0E07C0DBFF0D0E08C0DBFF10
:1008D0000E0E09C0DBFF0B0EDBCF06F00C0EDBCFDC
:1008E00007F00D0EDBCF08F00E0EDBCF09F00A0E7D
:1008F0000B6E0C6A0D6A0E6A76EC18F00F0E02C0D1
:10090000DBFF100E03C0DBFF110E04C0DBFF120E75
:1009100005C0DBFF0F0EDB50E76E030EE7CFDBFFFA
:100920000B0EDBCF06F00C0EDBCF07F00D0EDBCF8E
:1009300008F00E0EDBCF09F00A0E0B6E0C6A0D6A82
:100940000E6A76EC18F00B0E06C0DBFF0C0E07C02B
:10095000DBFF0D0E08C0DBFF0E0E09C0DBFF0B0E28
:10096000DBCF06F00C0EDBCF07F00D0EDBCF08F06F
:100970000E0EDBCF09F00A0E0B6E0C6A0D6A0E6AC2
:1009800076EC18F00F0E02C0DBFF100E03C0DBFF89
:10099000110E04C0DBFF120E05C0DBFF0F0EDB5093
:1009A000E76E020EE7CFDBFF0B0EDBCF06F00C0E7F
:1009B000DBCF07F00D0EDBCF08F00E0EDBCF09F01A
:1009C0000A0E0B6E0C6A0D6A0E6A76EC18F00B0EAE
:1009D00006C0DBFF0C0E07C0DBFF0D0E08C0DBFFFF
:1009E0000E0E09C0DBFF0B0EDBCF06F00C0EDBCFCB
:1009F00007F00D0EDBCF08F00E0EDBCF09F00A0E6C
:100A00000B6E0C6A0D6A0E6A76EC18F00F0E02C0BF
:100A1000DBFF100E03C0DBFF110E04C0DBFF120E64
:100A200005C0DBFF0F0EDB50E76E010EE7CFDBFFEB
:100A30000B0EDBCF06F00C0EDBCF07F00D0EDBCF7D
:100A400008F00E0EDBCF09F00A0E0B6E0C6A0D6A71
:100A50000E6A76EC18F00B0E06C0DBFF0C0E07C01A
:100A6000DBFF0D0E08C0DBFF0E0E09C0DBFF0B0E17
:100A7000DB50DF6E0A0EDB6AF36EDBCFF4FFF35060
:100A8000F45C22E2D9CF14F0DACF15F00A0EDB5075
:100A90000F011424E96E000E1520EA6EEF503009A4
:100AA000E66E0A0EDB50E76EF90EDBCFE9FFFA0EB9
:100AB000DBCFEAFFE750E926000EEA22E552E750D5
:100AC000EF6E0A0EDB2AD8D7130EE15C02E2E16A70
:100AD000E552E16EE552E7CFD9FF1200D9CFE6FF2C
:100AE000E1CFD9FFFE0EDB50F00BE83A060DFE0E0B
:100AF000DBCFE7FFF350E75EFE0EE7CFDBFFDB5017
:100B000000D0E552E7CFD9FF1200D9CFE6FFE1CF01
:100B1000D9FF0A0E146E14C00EF0FE0EDBCF09F0E2
:100B200050EC19F00950060DFE0EDBCFE7FFF35035
:100B3000E726FE0EE7CFDBFFDB50146E156A14C00C
:100B4000F3FF15C0F4FF00D0E552E7CFD9FF120044
:100B5000D9CFE6FFE1CFD9FF060EE126F36EFC0EFA
:100B6000DBCFF4FFF350F45C71E2020EDB6A030E9C
:100B7000DB6A040EDB6A050EDB6ADF6AFC0EDB5003
:100B8000DF5C58E2FC0EDBCFE6FFDF28E552E75CD6
:100B9000E76E010EE7CFDBFFF36E040EF3CFDBFF52
:100BA000050EDB6A010EDB50000814E20A0E086E27
:100BB000096A040EDBCF0DF0050EDBCF0EF09AECC8
:100BC00018F0040E06C0DBFF050E07C0DBFF010EA8
:100BD000DB06E8D7020EDBCF16F0030EDBCF17F0F3
:100BE000DF50E76EFD0EDBCFE9FFFE0EDBCFEAFF45
:100BF000E750E926000EEA22EF500F0B186E196A33
:100C0000040EDBCF08F0050EDBCF09F018C00DF0A5
:100C100019C00EF09AEC18F016500624146E1750F6
:100C20000720156E020E14C0DBFF030E15C0DBFF9C
:100C3000DF2AA4D7020EDBCF14F0030EDBCF15F0B2
:100C400014C0F3FF15C0F4FF04D003D0F36AF46AB4
:100C500000D0060EE15C02E2E16AE552E16EE55287
:060C6000E7CFD9FF1200EE
:0A0C6600D9CFE6FFE1CFD9FFFE0E63
:100C7000DB04E96EEA6AD890E936EA36010EE92625
:100C80000F0EEA22EECF14F0EFCF15F014C0F3FFF1
:100C900015C0F4FF00D0E552E7CFD9FF1200D9CF3D
:100CA000E6FFE1CFD9FFFE0EDBCFE6FFE66A51ECAF
:100CB00000F0E552E552FF0FE96EEA6AD890E93696
:100CC000EA360F0EE9260F0EEA22EECF14F0EFCF30
:100CD00015F014C0F3FF15C0F4FF00D0E552E7CFC4
:100CE000D9FF1200D9CFE6FFE1CFD9FFD0EC14F045
:100CF000D00EE66E14EC15F0E552E66A14EC15F031
:100D0000E552D0EC14F0D10EE66E14EC15F0E5527D
:100D1000010EE66E5BEC15F0E552E66EFD0EDBCFE4
:100D2000E9FFFE0EDBCFEAFFE552E750EF6E010E62
:100D3000E66E5BEC15F0E552E66E010EE76EFD0E19
:100D4000DBCFE9FFFE0EDBCFEAFFE750E926000E1E
:100D5000EA22E552E750EF6E010EE66E5BEC15F00D
:100D6000E552E66E020EE76EFD0EDBCFE9FFFE0EEA
:100D7000DBCFEAFFE750E926000EEA22E552E75012
:100D8000EF6E010EE66E5BEC15F0E552E66E030EBB
:100D9000E76EFD0EDBCFE9FFFE0EDBCFEAFFE7508B
:100DA000E926000EEA22E552E750EF6E010EE66EEC
:100DB0005BEC15F0E552E66E040EE76EFD0EDBCF40
:100DC000E9FFFE0EDBCFEAFFE750E926000EEA223C
:100DD000E552E750EF6E010EE66E5BEC15F0E55262
:100DE000E66E050EE76EFD0EDBCFE9FFFE0EDBCFF4
:100DF000EAFFE750E926000EEA22E552E750EF6EDF
:100E0000E66A5BEC15F0E552E66E060EE76EFD0E47
:100E1000DBCFE9FFFE0EDBCFEAFFE750E926000E4D
:100E2000EA22E552E750EF6EE6EC14F0E552E7CF28
:100E3000D9FF1200D9CFE6FFE1CFD9FFD0EC14F0F3
:100E4000D00EE66E14EC15F0E552E66A14EC15F0DF
:100E5000E552FD0EDBCFE9FFFE0EDBCFEAFFEF50E0
:100E6000E66E14EC15F0E552010EE76EFD0EDBCFD9
:100E7000E9FFFE0EDBCFEAFFE750E926000EEA228B
:100E8000EF50E66E14EC15F0E552020EE76EFD0E23
:100E9000DBCFE9FFFE0EDBCFEAFFE750E926000ECD
:100EA000EA22EF50E66E14EC15F0E552030EE76E01
:100EB000FD0EDBCFE9FFFE0EDBCFEAFFE750E926B0
:100EC000000EEA22EF50E66E14EC15F0E552040E27
:100ED000E76EFD0EDBCFE9FFFE0EDBCFEAFFE7504A
:100EE000E926000EEA22EF50E66E14EC15F0E5520A
:100EF000050EE76EFD0EDBCFE9FFFE0EDBCFEAFF4E
:100F0000E750E926000EEA22EF50E66E14EC15F0E9
:100F1000E552060EE76EFD0EDBCFE9FFFE0EDBCFDE
:100F2000EAFFE750E926000EEA22EF50E66E14ECE5
:100F300015F0E552E6EC14F0E552E7CFD9FF1200C8
:100F4000D9CFE6FFE1CFD9FFFD0EDB041DE1FE0E98
:100F5000DB504009E76EFE0EE7CFDBFFFC0EDB0443
:100F600008E1FE0EDB502009E76EFE0EE7CFDBFF47
:100F70000AD0FC0EDB5007E1FE0EDB50DF0BE76E04
:100F8000FE0EE7CFDBFF0AD0FD0EDB5007E1FE0EC1
:100F9000DB50BF0BE76EFE0EE7CFDBFFFE0EDB5034
:100FA00000D0E552E7CFD9FF1200D9CFE6FFE1CF5D
:100FB000D9FFFD0EDBCFE9FFFE0EDBCFEAFFEE52DD
:100FC000EF50E66EFB0EDBCFE9FFFC0EDBCFEAFF56
:100FD000EE52E552E750EF6EFD0EDBCFE9FFFE0E5D
:100FE000DBCFEAFFEF50E66EFB0EDBCFE9FFFC0E36
:100FF000DBCFEAFFE552E750EF6EFD0EDBCFE9FFF6
:10100000FE0EDBCFEAFF020EE926000EEA22EFCF4A
:1010100014F00C0E145C42E3FD0EDBCFE9FFFE0E74
:10102000DBCFEAFF020EE926000EEA22EF50F40FB2
:10103000E66EFB0EDBCFE9FFFC0EDBCFEAFF020E14
:10104000E926000EEA22E552E750EF6EFB0EDBCFF9
:10105000E9FFFC0EDBCFEAFF070EE926000EEA22CD
:10106000010EEF6E0C0E146EFD0EDBCFE9FFFE0ECF
:10107000DBCFEAFF020EE926000EEA22EF50145CF5
:101080000CE1FB0EDBCFE9FFFC0EDBCFEAFF020E2B
:10109000E926000EEA220C0EEF6E4BD0FD0EDBCFE0
:1010A000E9FFFE0EDBCFEAFF020EE926000EEA2280
:1010B000EFCF14F00C0E145C3CE2FD0EDBCFE9FF29
:1010C000FE0EDBCFEAFF020EE926000EEA22EF5009
:1010D000E66EFB0EDBCFE9FFFC0EDBCFEAFF020E74
:1010E000E926000EEA22E552E750EF6EFB0EDBCF59
:1010F000E9FFFC0EDBCFEAFF070EE926000EEA222D
:10110000EF6AFD0EDBCFE9FFFE0EDBCFEAFF020E3A
:10111000E926000EEA22EF500CE1FB0EDBCFE9FFDF
:10112000FC0EDBCFEAFF020EE926000EEA220C0ECF
:10113000EF6EE552E7CFD9FF1200D9CFE6FFE1CF3E
:10114000D9FFFD0EDBCFE9FFFE0EDBCFEAFFEE524B
:10115000EF50E66EFB0EDBCFE9FFFC0EDBCFEAFFC4
:10116000EE52E552E750EF6EFD0EDBCFE9FFFE0ECB
:10117000DBCFEAFFEF50E66EFB0EDBCFE9FFFC0EA4
:10118000DBCFEAFFE552E750EF6EFD0EDBCFE9FF64
:10119000FE0EDBCFEAFF070EE926000EEA22EF047F
:1011A00036E1FD0EDBCFE9FFFE0EDBCFEAFF020EDC
:1011B000E926000EEA22EF500C0FE66EFB0EDBCFA5
:1011C000E9FFFC0EDBCFEAFF020EE926000EEA2261
:1011D000E552E750EF6E0C0E146EFD0EDBCFE9FF0B
:1011E000FE0EDBCFEAFF020EE926000EEA22EF50E8
:1011F000145C0CE1FB0EDBCFE9FFFC0EDBCFEAFF5A
:10120000020EE926000EEA220C0EEF6E3FD0FD0E14
:10121000DBCFE9FFFE0EDBCFEAFF070EE926000E6B
:10122000EA22EF5033E1FD0EDBCFE9FFFE0EDBCF0C
:10123000EAFF020EE926000EEA22EF50E66EFB0EF0
:10124000DBCFE9FFFC0EDBCFEAFF020EE926000E42
:10125000EA22E552E750EF6E0C0E146EFD0EDBCF66
:10126000E9FFFE0EDBCFEAFF020EE926000EEA22BE
:10127000EF50145C0BE1FB0EDBCFE9FFFC0EDBCF84
:10128000EAFF020EE926000EEA22EF6AE552E7CFF6
:10129000D9FF1200D9CFE6FFE1CFD9FFE652DF6ACE
:1012A000FD0EDB040DE1FE0EDB500C0FDF6E0C0EAD
:1012B000146EFE0EDB50145C02E10C0EDF6E16D0D5
:1012C000FD0EDB500BE1FE0EDB50DF6E0C0E146EDC
:1012D000FE0EDB50145C01E1DF6A08D0AA0E146E2A
:1012E000FD0EDB50145C02E1AA0EDF6EDF5000D071
:1012F000E552E552E7CFD9FF1200D9CFE6FFE1CFA3
:10130000D9FFD0EC14F0D00EE66E14EC15F0E552D7
:10131000E66A14EC15F0E552050EE76EFD0EDBCF24
:10132000E9FFFE0EDBCFEAFFE750E926000EEA22D6
:10133000EF500F0B146E040EE76EFD0EDBCFE9FFCE
:10134000FE0EDBCFEAFFE750E926000EEA22EF505F
:101350000F0B100DF3501410E66E14EC15F0E5525F
:10136000030EE76EFD0EDBCFE9FFFE0EDBCFEAFFDB
:10137000E750E926000EEA22EF500F0B146E020E22
:10138000E76EFD0EDBCFE9FFFE0EDBCFEAFFE75095
:10139000E926000EEA22EF500F0B100DF350141047
:1013A000E66E14EC15F0E552010EE76EFD0EDBCF94
:1013B000E9FFFE0EDBCFEAFFE750E926000EEA2246
:1013C000EF500F0B146EFD0EDBCFE9FFFE0EDBCFEF
:1013D000EAFFEF500F0B100DF3501410E66E14ECF3
:1013E00015F0E552E6EC14F0E552E7CFD9FF120014
:1013F000D9CFE6FFE1CFD9FFD0EC14F0D00EE66EE6
:1014000014EC15F0E552040EE66E14EC15F0E552FE
:10141000010EE76EFD0EDBCFE9FFFE0EDBCFEAFF2C
:10142000E750E926000EEA22EF500F0B146EFD0E76
:10143000DBCFE9FFFE0EDBCFEAFFEF500F0B100D05
:10144000F3501410E66E14EC15F0E552030EE76E3F
:10145000FD0EDBCFE9FFFE0EDBCFEAFFE750E9260A
:10146000000EEA22EF500F0B146E020EE76EFD0E17
:10147000DBCFE9FFFE0EDBCFEAFFE750E926000EE7
:10148000EA22EF500F0B100DF3501410E66E14EC1F
:1014900015F0E552050EE76EFD0EDBCFE9FFFE0EFF
:1014A000DBCFEAFFE750E926000EEA22EF500F0BF0
:1014B000146E040EE76EFD0EDBCFE9FFFE0EDBCFF0
:1014C000EAFFE750E926000EEA22EF500F0B100D5D
:1014D000F3501410E66E14EC15F0E552E6EC14F03F
:1014E000E552E7CFD9FF1200D9CFE6FFE1CFD9FF10
:1014F000D0EC14F0D00EE66E14EC15F0E552030EAD
:10150000E66E14EC15F0E552FE0EDBCFE6FF14ECB0
:1015100015F0E552E6EC14F0E552E7CFD9FF1200E2
:10152000D9CFE6FFE1CFD9FFE652E66AD00EE66EEC
:10153000ACEC15F0E552E552DF6E7F0EDF14DF6E86
:10154000DFCFE6FFE66AD00EE66ECEEC15F0E55290
:10155000E552E552900EE66E070EE66ED00EE66E90
:10156000CEEC15F0E552E552E552E552E552E7CFF3
:10157000D9FF12002F0EE66E0F0EE66E72EC06F02B
:10158000E552E5520F0127510F012F5D05E02FCFE6
:0A15900027FF0F01010E006F12008B
:06159A00080EE66EEEEC07
:1015A0000FF0E552E66A2BDBE552D7DAC0EF0DF01B
:1015B000D9CFE6FFE1CFD9FF060EE126DF68D9508B
:1015C000020FE66E000EDA20E66ED950030FE66ECB
:1015D000000EDA20E66EDCEC13F0E552E552E5523F
:1015E000E552000901E18DD1020EDBCFE6FF030ECB
:1015F000DBCFE6FF90D9E552E552DF6EFF0EDF5CF0
:1016000001E17FD10D010051050A01E129D1010A53
:1016100001E1E6D0070A01E1A5D0010A58E0030A7A
:1016200010E0010A01E06DD10A0EDF5C09E1010E54
:10163000E66EE5DAE55291DAA3DA0D01010E006FEC
:1016400060D1080EDF5C08E1E66AD9DAE55285DA96
:1016500097DA0D01006B3AD00A0EDF5C28E1050E27
:10166000DB6A1351EA6A020FE96E0D0EEA22EF6A95
:10167000020EE66E0D0EE66ED6EC17F0E552E55260
:10168000E76E050EE7CFDBFFDB0409E1020EE66E35
:10169000B6DAE55262DA0D01020E006F07D0E66A93
:1016A000AEDAE5525ADA6CDA0D01006B0FD0135145
:1016B000EA6A020FE96E0D0EEA22DFCFEFFF2A0E73
:1016C000E66E00EC10F0E5520D01132B1AD1080E56
:1016D000DF5C0FE1135100080BE2DFCFE6FF00EC07
:1016E00010F0E5520D0113072751000801E227070A
:1016F00038D00C0EDF5C0CE11351000808E2030E39
:10170000E66E7DDAE55229DA0D01030E006F29D06D
:101710000B0EDF5C08E1E66A72DAE5521EDA30DAB7
:101720000D01006B1ED01351EA6A020FE96E0D0E17
:10173000EA22DFCFEFFF1351EA6A020FE96E0D0EC6
:10174000EA22EF50E66E00EC10F0E5520D01275151
:10175000EA6A160FE96E0D0EEA22DFCFEFFF272BA4
:10176000132BCFD0080EDF5C15E11351000808E2FF
:10177000DFCFE6FF00EC10F0E5520D01130709D0B2
:10178000020EE66E3CDAE552E8D9FAD90D01020EF6
:10179000006F25D00C0EDF5C0DE11351000809E24B
:1017A00092D9040EE66E2BDAE552D7D90D01040E5C
:1017B000006F15D01351EA6A020FE96E0D0EEA228E
:1017C000DFCFEFFF1351EA6A020FE96E0D0EEA2236
:1017D000EF50E66E00EC10F0E5520D01132B91D0A6
:1017E000080EDF5C17E11351000808E2DFCFE6FFC7
:1017F00000EC10F0E5520D0113070BD0030EE66E5E
:10180000FED9E5520D01010E276FA7D90D01030E78
:10181000006F25D00C0EDF5C0DE11351000809E2CA
:10182000050EE66EECD9E5524ED997D90D01050E9D
:10183000006F15D01351EA6A020FE96E0D0EEA220D
:10184000DFCFEFFF1351EA6A020FE96E0D0EEA22B5
:10185000EF50E66E00EC10F0E5520D01132B51D065
:10186000080EDF5C17E11351000808E2DFCFE6FF46
:1018700000EC10F0E5520D0113070BD0040EE66EDC
:10188000BED9E5520D01030E276F67D90D01040E75
:10189000006F36D00C0EDF5C1EE1135100081AE217
:1018A00012D90D012751EA6A160FE96E0D0EEA22D0
:1018B000EF6A160EE66E0D0EE66EF4EC17F0E552CA
:1018C000E552020EE66E9BD9E55247D959D90D0172
:1018D000020E006F15D01351EA6A020FE96E0D0E69
:1018E000EA22DFCFEFFF1351EA6A020FE96E0D0E15
:1018F000EA22EF50E66E00EC10F0E5520D01132BDA
:1019000000D0060EE15C02E2E16AE552E16EE552CA
:10191000E7CFD9FF1200D9CFE6FFE1CFD9FFE652DA
:10192000DF680D010051050A01E1A3D0010A74E04E
:10193000070A4FE0010A2DE0030A12E0010A01E064
:10194000BBD0FE0EDB50F76AFD0FF66E320EF722AB
:101950000800F550DF6E0A0EDF5C01E0DF68ACD0F6
:10196000050E135D08E3080EDF5C04E00C0EDF5C7F
:1019700001E0DF680DD02A0EDF5C09E0230EDF5C9A
:1019800006E00A0EDF5C03E00B0EDF5C01E1DF68BE
:1019900093D0FE0EDB50F76AFD0FF66E320EF72283
:1019A0000800F550DF6E010E135D08E3080EDF5CE2
:1019B00004E00C0EDF5C01E0DF680AD00B0EDF5C98
:1019C00007E0310EDF5C04E0320EDF5C01E0DF682F
:1019D00073D0FE0EDB50F76AFD0FF66E320EF72263
:1019E0000800F550DF6E020E135D08E3080EDF5CA1
:1019F00004E00C0EDF5C01E0DF680DD02A0EDF5C36
:101A000009E0230EDF5C06E00A0EDF5C03E00B0E4C
:101A1000DF5C01E1DF6850D0FE0EDB50F76AFD0F9E
:101A2000F66E320EF7220800F550DF6EFE0EDB5028
:101A3000F76AFD0FF66E320EF7220800F550DF6EE2
:101A4000020E135D08E3080EDF5C04E00C0EDF5CA1
:101A500001E0DF680DD02A0EDF5C09E0230EDF5CB9
:101A600006E00A0EDF5C03E00B0EDF5C01E1DF68DD
:101A700023D0FE0EDB50F76AFD0FF66E320EF72212
:101A80000800F550DF6E020E135D08E3080EDF5C00
:101A900004E00C0EDF5C01E0DF680DD02A0EDF5C95
:101AA00009E0230EDF5C06E00A0EDF5C03E00B0EAC
:101AB000DF5C01E1DF6800D0DF5000D0E552E55285
:101AC000E7CFD9FF1200D9CFE6FFE1CFD9FF020E51
:101AD000E126010EDB6A0D01130513E12751EA6AC5
:101AE000160FE96E0D0EEA22300EEF6E272B2751EE
:101AF000EA6A160FE96E0D0EEA2202CDEFFF272BE0
:101B000012D02751EA6A160FE96E0D0EEA2202CDB5
:101B1000EFFF272B2751EA6A160FE96E0D0EEA2216
:101B200003CDEFFF272B300E175D146E300E165DC0
:101B30000A0DF3501424E76E010EE7CFDBFFDB50F4
:101B4000146E020EE15C03E200D0E16AE552E16E40
:101B50001450E552E7CFD9FF1200100EE66EE66A88
:101B6000E66A020EE66E0D0EE66E1CEC17F0146EC1
:101B7000050EE15E14500D01136B156B1469120014
:101B8000100EE66EE66AE66A160EE66E0D0EE66E5C
:101B90001CEC17F0146E050EE15E14500D01276B5E
:101BA0001200D9CFE6FFE1CFD9FFE652F9EC0FF0F2
:101BB000DF6ADF50E76EFD0EDBCFE9FFFE0EDBCF05
:101BC000EAFFE750E926000EEA22EF5013E0DF506B
:101BD000E76EFD0EDBCFE9FFFE0EDBCFEAFFE7503D
:101BE000E926000EEA22EF50E66E00EC10F0E55216
:101BF000DF2ADFD7E552E552E7CFD9FF1200D9CF70
:101C0000E6FFE1CFD9FF030EE126FE0EEA6ADB34E0
:101C1000FE0BEA36E96E930EE9260D0EEA22010E5E
:101C2000EECFDBFF020EEDCFDBFFF9EC0FF0DF6A4A
:101C3000DF50E76E010EDBCFF6FF020EDBCFF7FFC2
:101C4000E750F626000EF7220800F55014E0DF50AA
:101C5000E76E010EDBCFF6FF020EDBCFF7FFE7509A
:101C6000F626000EF7220800F550E66E00EC10F0A4
:101C7000E552DF2ADDD7030EE15C02E2E16AE552BC
:101C8000E16EE552E7CFD9FF1200D9CFE6FFE1CFF1
:101C9000D9FF030EE126FE0EEA6ADB34FE0BEA36BC
:101CA000E96E930EE9260D0EEA22010EEECFDBFF60
:101CB000020EEDCFDBFFDF6ADF50E76E010EDBCFF8
:101CC000F6FF020EDBCFF7FFE750F626000EF722F5
:101CD0000800F55014E0DF50E76E010EDBCFF6FF91
:101CE000020EDBCFF7FFE750F626000EF7220800C2
:101CF000F550E66E00EC10F0E552DF2ADDD7030E5A
:101D0000E15C02E2E16AE552E16EE552E7CFD9FF1C
:021D10001200BF
:0E1D1200D9CFE6FFE1CFD9FF030EE126300E58
:101D2000F36E010EF3CFDBFF750EF36E020EF3CFF1
:101D3000DBFF010EDF6EDF0425E105DA00000000A5
:101D4000839283840000000083860000000083509B
:101D5000800B01E0010EDF6E839683860000000099
:101D60008396010EDB06020E01E2DB06D950010F5D
:101D7000E96EDACFEAFFEE50ED1003E1ECD9FF0E89
:101D800004D0D9D7E8D9000E00D0146E030EE15C60
:101D900002E2E16AE552E16E1450E552E7CFD9FF65
:101DA0001200D9CFE6FFE1CFD9FF839283940000E0
:101DB000FE0EDB50F00B146E0F0E8C1414108C6E94
:101DC00000008386000000008396E552E7CFD9FF2C
:101DD0001200D9CFE6FFE1CFD9FF9BDF8392839436
:101DE0000000FE0EDB50F00B146E0F0E8C1414105E
:101DF0008C6E00008386000000008396FE0EDB38A8
:101E0000F00BF00B146E0F0E8C1414108C6E00007F
:101E10008386000000008396E552E7CFD9FF1200C9
:101E2000D9CFE6FFE1CFD9FF74DF8382839400002E
:101E3000FE0EDB50F00B146E0F0E8C1414108C6E13
:101E400000008386000000008396FE0EDB38F00B56
:101E5000F00B146E0F0E8C1414108C6E0000838621
:101E6000000000008396E552E7CFD9FF1200D9CFDA
:101E7000E6FFE1CFD9FF0B0EE1266DD9280EF36EF8
:101E8000010EF3CFDBFF020EDB6A010EDBCF14F095
:101E9000DB06020EDBCF15F001E2DB061450151055
:101EA00006E0080EE66E22EC19F0E552EED7300E91
:101EB000E66E77DFE5520A0EF36E030EF3CFDBFF1B
:101EC000040EDB6A030EDBCF14F0DB06040EDBCF5F
:101ED00015F001E2DB061450151006E0080EE66E60
:101EE00022EC19F0E552EED7300EE66E5ADFE552DD
:101EF0000A0EF36E050EF3CFDBFF060EDB6A050E4E
:101F0000DBCF14F0DB06060EDBCF15F001E2DB06BB
:101F10001450151006E0080EE66E22EC19F0E5529A
:101F2000EED7300EE66E3DDFE5520A0EF36E070E79
:101F3000F3CFDBFF080EDB6A070EDBCF14F0DB0606
:101F4000080EDBCF15F001E2DB061450151006E099
:101F5000080EE66E22EC19F0E552EED7200EE66E82
:101F600020DFE5520A0EF36E090EF3CFDBFF0A0EF7
:101F7000DB6A090EDBCF14F0DB060A0EDBCF15F0AF
:101F800001E2DB061450151006E0080EE66E22ECA6
:101F900019F0E552EED7280EE66E1BDFE552B9DEEA
:101FA000DF6EDF5010E10F0EE66E13DFE552010E1B
:101FB000E66E0FDFE552040EE66E0BDFE552060E0D
:101FC000E66E07DFE5520B0EE15C03E200D0E16A4A
:101FD000E552E16EE552E7CFD9FF1200D9CFE6FF17
:101FE000E1CFD9FFFE0EDBCF01FEE552E7CFD9FFEF
:101FF0001200010EE66EEDDEE5520E01006B1200DE
:10200000D9CFE6FFE1CFD9FFE652FE0EDB500E013D
:10201000015D23E1005101E137D0100E005D0EE1BA
:10202000800EE66ED6DEE552DF6A100EDF5C06E259
:10203000140EE66ECEDEE552DF2AF7D7100EE66EFE
:10204000C8DEE552200EE66EEBDEE552100EE66EBF
:10205000C0DEE5520E01000717D0100E005D05E14D
:10206000C00EE66EB6DEE55208D0200E005D05E338
:10207000006B020EE66EADDEE552FE0EDBCFE6FF34
:10208000CFDEE5520E01002BE552E552E7CFD9FF36
:102090001200EDDE010EE66E9CDEE5520E01006BD5
:1020A0001200D9CFE6FFE1CFD9FFE652010EE66E6E
:1020B00090DEE552DF6A100EDF5C1CE2FD0EDBCF26
:1020C000E9FFFE0EDBCFEAFFEF50E66EDF50EA6A73
:1020D000020FE96E0E0EEA22E552E750EF6EFD0E9A
:1020E000DBCFE9FFDB2AFE0EDBCFEAFF01E3DB2AD1
:1020F000DF2AE1D7C00EE66E6CDEE552DF6A100E15
:10210000DF5C1CE2FD0EDBCFE9FFFE0EDBCFEAFF5A
:10211000EF50E66EDF50EA6A020FE96E0E0EEA2219
:10212000E552E750EF6EFD0EDBCFE9FFDB2AFE0E36
:10213000DBCFEAFF01E3DB2ADF2AE1D7E552E552F4
:10214000E7CFD9FF1200958E958C958A9588959644
:10215000959495921200959E959C959A9598959632
:0621600095949592120017
:0A216600DACFE4FFE2CFDAFFE9CFA1
:10217000E4FFEACFE4FFF6CFE4FFF7CFE4FFF5CFCB
:10218000E4FFF3CFE4FFF4CFE4FFFACFE4FF00EE87
:1021900000F0140EE80403E3EECFE4FFFBD700EEFB
:1021A00014F0090EE80403E3EECFE4FFFBD7E65298
:1021B000F2940D017D2B000E7E237F238023812B43
:1021C0008223832B8423852B8623872B882373519B
:1021D000741107E005D074CDFAFF0D017351F96E4B
:1021E000FADF71CDE6FF72CDE6FFD4EC18F0E552D0
:1021F000E552E55200EE1CF0090EE80403E3E5CFDA
:10220000EDFFFBD700EE13F0140EE80403E3E5CF77
:10221000EDFFFBD7E5CFFAFFE5CFF4FFE5CFF3FF06
:10222000E5CFF5FFE5CFF7FFE5CFF6FFE5CFEAFF16
:10223000E5CFE9FFE5CFDAFF1100DACFE4FFE2CF27
:10224000DAFFE9CFE4FFEACFE4FFF6CFE4FFF7CF10
:10225000E4FFF5CFE4FFF3CFE4FFF4CFE4FFFACFE0
:10226000E4FF00EE00F0140EE80403E3EECFE4FF19
:10227000FBD700EE14F0090EE80403E3EECFE4FF11
:10228000FBD7E6529E9075CDE6FF76CDE6FFB8EC23
:1022900018F0E552E5520D017751781107E005D0AD
:1022A00078CDFAFF0D017751F96EFADFE55200EEB5
:1022B0001CF0090EE80403E3E5CFEDFFFBD700EEC9
:1022C00013F0140EE80403E3E5CFEDFFFBD7E5CFF1
:1022D000FAFFE5CFF4FFE5CFF3FFE5CFF5FFE5CF5C
:1022E000F7FFE5CFF6FFE5CFEAFFE5CFE9FFE5CF62
:1022F000DAFF1100DACFE4FFE2CFDAFFE9CFE4FF43
:10230000EACFE4FFF6CFE4FFF7CFE4FFF5CFE4FF39
:10231000F3CFE4FFF4CFE4FFFACFE4FF00EE00F0E8
:10232000140EE80403E3EECFE4FFFBD700EE14F055
:10233000090EE80403E3EECFE4FFFBD7E6529E92DA
:1023400079CDBBFF0D017B517C1107E005D07CCD21
:10235000FAFF0D017B51F96EFADFE55200EE1CF039
:10236000090EE80403E3E5CFEDFFFBD700EE13F021
:10237000140EE80403E3E5CFEDFFFBD7E5CFFAFF4A
:10238000E5CFF4FFE5CFF3FFE5CFF5FFE5CFF7FFAE
:10239000E5CFF6FFE5CFEAFFE5CFE9FFE5CFDAFFCE
:1023A0001100D9CFE6FFE1CFD9FF9F0EE66EF0EC2A
:1023B00018F0E552FD0EDBCF71FDFE0EDBCF72FD96
:1023C000FB0EDBCF73FDFC0EDBCF74FDFD0EDBCF10
:1023D000E6FFFE0EDBCFE6FFD4EC18F0E552E55247
:1023E000E552E7CFD9FF1200D9CFE6FFE1CFD9FF01
:1023F000020EE126830EDF6EDE52080EDD6E010E48
:10240000DBCFE6FFDFCFE6FF4CEC18F0E552E552FC
:10241000FD0EDBCFE6FFFE0EDBCFE6FFB8EC18F0DB
:10242000E552E5529F809D80010ECD6EFD0EDBCF03
:1024300075FDFE0EDBCF76FDFB0EDBCF77FDFC0ED0
:10244000DBCF78FD020EE15C02E2E16AE552E16E6B
:10245000E552E7CFD9FF1200D9CFE6FFE1CFD9FF90
:102460000F0EBA6E9F829D82FE0EDB50BB6EFE0E7B
:10247000DB500D01796F7A6BFC0EDBCF7BFDFD0E1F
:0C248000DBCF7CFDE552E7CFD9FF120056
:04248C00D9CFE6FFBF
:10249000E1CFD9FFE6528DD8DF6A010EDF5C09E299
:1024A000DF50EA6A9D0FE96E0D0EEA22EF6ADF2A1D
:1024B000F4D7E552E552E7CFD9FF1200D9CFE6FFB6
:1024C000E1CFD9FF9BD8FC0EDBCFE6FFFD0EDBCFC3
:1024D000E6FFFE0EDBCFE6FF98D8E552E552E55267
:1024E000E552E7CFD9FF1200D9CFE6FFE1CFD9FF00
:1024F000E652FC0EDB50DF6EFB0EDB50D880DF5463
:102500001AE37CD8DFCFE6FF176ADF34FE0B1736FD
:10251000166EFD0EDB501624146EFE0EDB501720D7
:10252000156E14C0E6FF15C0E6FF6FD8E552E55200
:10253000E552DF2AE1D7E552E552E7CFD9FF120095
:10254000D9CFE6FFE1CFD9FFE652DF6A57D8DF6A7D
:10255000010EDF5C15E2DFCFE6FF156ADF34FE0B0C
:102560001536146E9E0E14260D0E152214C0E6FFAD
:1025700015C0E6FF4AD8E552E552E552DF2AE8D712
:10258000E552E552E7CFD9FF1200D9CFE6FFE1CF00
:10259000D9FFFE0EEA6ADB34FE0BEA36E96E9E0EC8
:1025A000E9260D0EEA22EF5000D0E552E7CFD9FF21
:1025B0001200D9CFE6FFE1CFD9FFE652DF6A010E64
:1025C000DF5C17E2EA6ADF34FE0BEA36E96E9E0E44
:1025D000E9260D0EEA22EF6AEA6ADF34FE0BEA36DC
:1025E000E96E9E0EE9260D0EEA22EE52EF6ADF2A10
:1025F000E6D7E552E552E7CFD9FF12008450020B2F
:1026000001E0010E0D019D6F1200D9CFE6FFE1CF71
:10261000D9FFFD0EDBCFE9FFFE0EDBCFEAFFEF5067
:10262000010A3DE0010A01E074D0FC0EDB50EA6AC9
:102630009D0FE96E0D0EEA22EF50010B27E1FD0E12
:10264000DBCFE9FFFE0EDBCFEAFFEE52EF2AFD0EF5
:10265000DBCFE9FFFE0EDBCFEAFFEECF14F0EFCFCA
:1026600015F0020E0001155C10E3FD0EDBCFE9FF53
:10267000FE0EDBCFEAFF010EEF6EFD0EDBCFE9FFB2
:10268000FE0EDBCFEAFFEE52EF6A08D0FD0EDBCF85
:10269000E9FFFE0EDBCFEAFFEE52EF6A3AD0FC0E06
:1026A000DB50EA6A9D0FE96E0D0EEA22EF50010B36
:1026B000010826E1FD0EDBCFE9FFFE0EDBCFEAFFCE
:1026C000EE52EF2AFD0EDBCFE9FFFE0EDBCFEAFF75
:1026D000EECF14F0EFCF15F0020E0001155C0FE302
:1026E000FD0EDBCFE9FFFE0EDBCFEAFFEF6AFD0E4A
:1026F000DBCFE9FFFE0EDBCFEAFFEE52EF6A08D038
:10270000FD0EDBCFE9FFFE0EDBCFEAFFEE52EF6AF4
:0A27100000D0E552E7CFD9FF120018
:06271A000D016B6B6C6BFE
:102720003C6B3D6B3E6B3F69406B1200D9CFE6FFBF
:10273000E1CFD9FF020EE1260D016E2B000E6F23B3
:10274000D9CFE6FFDACFE6FF7ED8E552E5520009A1
:1027500001E128D00D016B516C5D02E16C6B6B6B7C
:102760006C51E96EEA6AD890E936EA36410EE926FC
:102770000D0EEA22DFCFEFFF6C51E96EEA6AD890C6
:10278000E936EA36410EE9260D0EEA22010EE92667
:10279000000EEA226ECDEFFF140E6C5D01E26C2B91
:1027A0006E6B6F6B020EE15C02E2E16AE552E16E74
:1027B000E552E7CFD9FF1200D9CFE6FFE1CFD9FF2D
:1027C0000D016C516B5D31E26B51E96EEA6AD89094
:1027D000E936EA36410EE9260D0EEA22EF50E66EA2
:1027E000FD0EDBCFE9FFFE0EDBCFEAFFE552E7503F
:1027F000EF6E6B51E96EEA6AD890E936EA36410E1F
:10280000E9260D0EEA22010EE926000EEA22EF501B
:10281000E66EFB0EDBCFE9FFFC0EDBCFEAFFE552F5
:10282000E750EF6E6B2B010E02D0000E00D0E55288
:10283000E7CFD9FF12000D016C6B6B6B3C6B3D6BEE
:102840003E6B3F691200D9CFE6FFE1CFD9FFE652D8
:10285000DF68010E146E8150800B01E0010E145CE4
:102860006FE18150200B01E0010E166E8150040BC8
:1028700001E0010EE824156E8150100B01E0010EFD
:10288000040DF3CF14F08150080B01E0010E080D88
:10289000F3501410151016100F0BDF6EDF500F0AD7
:1028A0004CE0010A47E0030A42E0010A3DE0070A62
:1028B00038E0010A33E0030A2FE0010A2AE00F0A98
:1028C00025E0010A20E0030A1BE0010A16E0070ADE
:1028D00011E0010A0CE0030A07E0010A02E0DF68E8
:1028E0002FD0050EDF6E2CD0060EDF6E29D0090E1C
:1028F000DF6E26D00A0EDF6E23D0020EDF6E20D0F0
:10290000010EDF6E1DD0030EDF6E1AD0070EDF6ED4
:1029100017D0040EDF6E14D0DF6A12D00B0EDF6EFC
:102920000FD00F0EDF6E0CD00C0EDF6E09D0080E2C
:10293000DF6E06D00E0EDF6E03D00D0EDF6E00D000
:10294000FF0EDF5C05E10D0170696D69000E17D0A7
:102950000D017051DF5C0FE16D51DF5C0CE0FD0E8D
:10296000DBCFE9FFFE0EDBCFEAFFDFCFEFFFDFCFEC
:102970006DFD010E04D0DFCF70FD000E00D0E552DA
:08298000E552E7CFD9FF120078
:08298800C76AC78E590EC86E24
:10299000280EC66EC56A9E96A196948694881200EB
:1029A0009496949882888286050EE66E6BEC19F0F8
:1029B000E5528298050EE66E6BEC19F0E5528296B0
:1029C000050EE66E6BEC19F0E552120094969498A1
:1029D0008298050EE66E6BEC19F0E5528286050EC4
:1029E000E66E6BEC19F0E55282881200D9CFE6FF53
:1029F000E1CFD9FFE65294969488DF6ADF500A0847
:102A00000EE3050EE66E6BEC19F0E5528286050EBC
:102A1000E66E6BEC19F0E5528296DF2AEFD7E552AD
:102A2000E552E7CFD9FF1200D9CFE6FFE1CFD9FFBA
:102A3000E65294969498DF6A080EDF5C25E2FE0E5B
:102A4000DB50800B02E0010E01D0000EE8B082885E
:102A5000E8A08298030EE66E6BEC19F0E5528286D0
:102A6000060EE66E6BEC19F0E5528296020EE66EEB
:102A70006BEC19F0E552FE0EDBCFF3FFF39EF3464D
:102A8000F3CFDBFFDF2AD8D79488020EE66E6BEC1B
:102A900019F0E5528286060EE66E6BEC19F0E552EF
:102AA0008296060EE66E6BEC19F0E552E552E552A1
:102AB000E7CFD9FF1200D9CFE6FFE1CFD9FF020E51
:102AC000E126DF6A949694989488010EDB6A080EDA
:102AD000F36E010EDBCFF4FFF350F45C17E2828655
:102AE000060EE66E6BEC19F0E552DF9EDF46825073
:102AF000100B01E0010EDF10DF6E8296060EE66E0F
:102B00006BEC19F0E552010EDB2AE1D79498FE0E2A
:102B1000DB0402E1829801D08288020EE66E6BEC43
:102B200019F0E5528286060EE66E6BEC19F0E5525E
:102B30008296060EE66E6BEC19F0E552DF50146ECD
:102B4000020EE15C03E200D0E16AE552E16E14504E
:102B5000E552E7CFD9FF1200D9CFE6FFE1CFD9FF89
:102B6000E6521EDFFE0EDBCFE6FF5EDFE552FD0E16
:102B7000DBCFE6FF59DFE55213DFFE0EDB28E66E02
:102B800053DFE552E66A97DFE552DF6E1FDFDF5065
:102B900000D0E552E552E7CFD9FF1200D9CFE6FFCA
:102BA000E1CFD9FFFDDEFE0EDBCFE6FF3DDFE552D4
:102BB000FD0EDBCFE6FF38DFE552FC0EDBCFE6FF94
:0E2BC00033DFE55203DFE552E7CFD9FF120005
:022BCE00D9CF5D
:102BD000E6FFE1CFD9FF080EE126DE6A480EDE6E81
:102BE000E80EDE6E010EDD6EDD52DD52DECF07F047
:102BF000DECF08F0DECF09F0DDCF0AF0DD52DD5286
:102C0000075007E1240E081804E1F40E091801E149
:102C10000A501FE0075008E1480E081805E1E80EC9
:102C2000091802E1010E0A1810E0075008E1900EA1
:102C3000081805E1D00E091802E1030E0A1801E098
:102C400000D0700ED36E9B8C08D0600ED36E9B8C20
:102C500004D0700ED36E9B9C00D0D9CFE9FFDACFA1
:102C6000EAFFEECF14F0EECF15F0EECF16F0EFCF77
:102C700017F0020ED8901732163215321432E806C9
:102C8000F9E1040E14C0DBFF050E15C0DBFF060ED4
:102C900016C0DBFF070E17C0DBFFD950040FE96E2B
:102CA000DACFEAFFE80E0B6E030E0C6E0D6A0E6AA9
:102CB000EECF06F0EECF07F0EECF08F0EFCF09F041
:102CC00076EC18F009C0EDFF08C0EDFF07C0EDFF7E
:102CD00006C0EFFF17681868196A040EDBCF1AF0F8
:102CE000050EDBCF1BF01C6A1A50175C146E1B50CC
:102CF0001858156E1C501958166E14C0A0FD15C03A
:102D0000A1FDC26A0F01386B396B3A6B3B6B3C6BB0
:102D1000969094969498959E959C959A959895964C
:102D200095949592816896829296809692908090E2
:102D30009294809492928092F19E080EE15C02E25D
:0E2D4000E16AE552E16EE552E7CFD9FF1200DD
:022D4E00D9CFDB
:102D5000E6FFE1CFD9FF040EE126E7EC15F0000E07
:102D6000E66EE66AA0CDE6FFA1CDE6FFD1EC11F05C
:102D7000E552E552E552E552000EE66EE66AA0CD58
:102D8000E6FFA1CDE6FFF4EC11F0E552E552E55285
:102D9000E55249EC10F08DEC13F0CDEC0AF0C6ECE6
:102DA00017F011EC00F0F40EDE6E010EDE6EDE6A3E
:102DB000DD6ADD52DD52D9CFE9FFDACFEAFFEE500E
:102DC0000D017D5DEE507E59EE507F59EE508059D9
:102DD00007E361EC19F00D017D6B7E6B7F6B806BFF
:102DE0000D01080E815D000E825905E396EC13F08B
:102DF0000D01816B826B0D01F40E855D010E86590C
:102E000005E3D0EC17F00D01856B866B0D01280EE4
:102E1000875D000E885905E3D8EC0AF00D01876B39
:102E2000886BC9D7040EE15C02E2E16AE552E16E0B
:082E3000E552E7CFD9FF1200C3
:082E3800FE0EE3CFE9FFFF0EDF
:102E4000E3CFEAFFE9CFF3FFEACFF4FFFB0EE35055
:102E500003E1FC0EE35009E0FB0EE30602E2FC0E88
:102E6000E306FD0EE350EE6EF1D71200D9CFE6FF78
:102E7000DACFE6FFFA0EE3CFD9FFFB0EE3CFDAFF9E
:102E8000FC0EE3CFE9FFFD0EE3CFEAFFDE50EF5C7F
:102E900002E1EE66FBD7F36EFF0EE3CFDAFFE552F9
:102EA000FF0EE3CFD9FFE552F3501200D9CFE6FF72
:102EB000DACFE6FFFA0EE3CFD9FFFB0EE3CFDAFF5E
:102EC000FC0EE3CFE9FFFD0EE3CFEAFFE9CFF3FF0E
:102ED000EACFF4FFDECFEFFFEE66FCD7FF0EE3CFC5
:0E2EE000DAFFE552FF0EE3CFD9FFE5521200F4
:022EEE00280EAC
:102EF000F66E000EF76E000EF86E0D010900F5502B
:102F00008E6F0900F5508F6F03E18E6701D03DD0C1
:102F10000900F550896F0900F5508A6F0900F550D6
:102F20008B6F09000900F550E96E0900F550EA6E53
:102F3000090009000900F5508C6F0900F5508D6FEC
:102F400009000900F6CF90FDF7CF91FDF8CF92FD73
:102F500089CDF6FF8ACDF7FF8BCDF8FF0D018C539D
:102F600002E18D5307E00900F550EE6E8C07F8E2A0
:102F70008D07F9D790CDF6FF91CDF7FF92CDF8FFF1
:0C2F80000D018E07000E8F5BBFD7120002
:042F8C000101310E00
:102F9000206F300E216F226F330E236F246B1200CF
:102FA00001011F51000801E21F071200D9CFE6FFFF
:102FB000E1CFD9FFFD0EDBCFE6FFFE0EDBCFE6FF54
:102FC000200EE66E010EE66E36EC17F0E552E55285
:102FD000E552E552000902E0000E02D0010E00D0D9
:102FE000E552E7CFD9FF1200D9CFE6FFE1CFD9FFF5
:102FF000FD0EDBCFE6FFFE0EDBCFE6FF010EE66E39
:10300000010EE66E56EC17F0E552E552E552E55238
:0C30100001011F2BE552E7CFD9FF120091
:04301C0044656300A4
:103020004E6F76004F637400536570004175670002
:103030004A756C004A756E004D61790041707200EE
:103040004D617200466562004A616E005361740012
:1030500046726900546875005765640054756500D0
:103060004D6F6E0053756E004D494E3A00484F55F6
:10307000523A00545255434B204E4F3A0050415360
:1030800053574F52443A504C414E54204E4F3A0001
:08309000090944454E534F00AD
:08309800D9CFE6FFDACFE6FF15
:1030A000E1CFD9FFE2CFDAFFFC0EDB50F30BCC6EA1
:1030B000FD0EDB507F0BE824CD6ECF6ACE6A9E906A
:1030C000FD0EDBAE02D09D8001D09D90A490FC0E41
:1030D000DBA402D0A38001D0A390CCBECC86CD804F
:0C30E000E552E5CFDAFFE7CFD9FF120080
:0430EC00056A046A03
:1030F000036A026A200EE76ED89006360736083655
:10310000093602360336043605360B50025C0C5085
:1031100003580D5004580E50055809E30B50025E39
:103120000C50035A0D50045A0E50055A062AE72E29
:04313000E4D71200CE
:0C31340008C012F008500D02F4CF07F0A4
:10314000F3CF06F009500E02F4CF09F0F3CF08F0E8
:103150000D02F3500726F4500822E86A09221250A3
:103160000E02F3500726F4500822E86A0922000CE8
:10317000D9CFE6FFDACFE6FFE1CFD9FFE2CFDAFF22
:10318000E652E652FC0EDBCFDEFFDBCFDDFF010EA9
:10319000DB50CF6EDF50CE6EE552E552E552E5CF03
:0831A000DAFFE7CFD9FF1200AE
:0831A800D9CFE6FFDACFE6FF04
:1031B000E1CFD9FFE2CFDAFFE652E652FC0EDBCFD9
:1031C000DEFFDBCFDDFF010EDB50D76EDF50D66EAA
:1031D000E552E552E552E5CFDAFFE7CFD9FF12001D
:1031E000D9CFE6FFDACFE6FFE1CFD9FFE2CFDAFFB2
:1031F000FD0EDB507F0BD56ED76AD66AF294FD0EBA
:10320000DBAE02D0F28A01D0F29AD58EE552E5CF3C
:08321000DAFFE7CFD9FF12003D
:08321800056A046A100EE76E5E
:10322000D89008360936043605360D50045C0E5029
:10323000055805E30D50045E0E50055A082AE72E86
:04324000F0D71200B1
:0C324400FF0EE3501D6E480E01D04C0E32
:10325000E76EE72EFED7E76AE72EFED71D2EF7D7DB
:043260000000120058
:0C326400380EF36E00EE00F00F0E01D8E3
:103270001200EA6002D0EE6AFCD7F350E960120057
:04328000EE6AFCD71F
:0C32840010EE60F020EE60F0F86A019C93
:1032900077EC17F003EC00F0A7EC16F0FBD7120068
:1032A000056A080EE76ED890093605360E50055CA3
:0C32B00002E3056E092AE72EF7D7120092
:0432BC000D01A36BF2
:1032C00012000D01A30503E1A36B849003D0010E4E
:0632D000A36F84801200D0
:0A32D600FF0EE350E84E1200000066
:0C32E00000D000D000D0E82EFAD7120079
:0432EC00202020205E
:0D32F0002020202020202020202020200051
:0332FD0031323338
:0D3300000A3435360B373839082A30230CD3
:03330D00000000BD
:1033100000000000000000000000000000000000AD
:1033200000FF00000000000000000000000000009E
:05333000000000000098
:0333350000000095
:0833380000000000000000008D
:10334000000000000000000000000000000000007D
:0A3350000000000000000000000073
:06335A000000000000006D
:10336000000000000000000000000000000000005D
:10337000000000000000000000000000000000004D
:10338000000000000000000000000000000000003D
:10339000000000000000000000000000000000FF2E
:0333A0000000FF2B
:0D33A300000000000000000000000000001D
:1033B000000000000000000000000000000000000D
:0833C000000000000000000005
:0833C8000000000000000000FD
:1033D00000000000000000000000000000000000ED
:1033E00000643060305C305830543050304C3048DD
:1033F00030443040303C303830343030302C30289D
:0834000030243020301C3000A4
:0134080000C3
:023409000000C1
:05340B0090307D3073DC
:05341000306D30683052
:020000040030CA
:0100010008F6
:0100020001FC
:0100030024D8
:01000500BD3D
:010006008079
:010008000FE8
:01000900C036
:01000A000FE6
:01000B00E014
:01000C000FE4
:01000D0040B2
:00000001FF
